:020000040000FA
:060000006DEF74F0120028
:08000800D3EF51F01200DACF32
:10001000E4FFE2CFDAFFE652E552E5CFDAFF110066
:10002000D8CFE4FFE0CFE4FFE46EDACFE4FFE2CF25
:10003000DAFFE652E552E5CFDAFFE550E5CFE0FF23
:06004000E5CFD8FF10001F
:06A000006DEF74F0120088
:02A00600120046
:06A0080007EF00F012005A
:02A00E0012003E
:06A0180010EF00F0120041
:02A01E0002003E
:10A020003FE9000000010000D70000006FDD0000E4
:08A03000FD0100000100000029
:08A0380018EC70F083EC70F0ED
:10A04000B8EC6EF04DEC66F0E66A32EC67F0E55283
:10A050001200AAEC71F0000901E1FBD70F01486979
:10A0600049691CEF50F0D9CFE6FFE1CFD9FF020ECE
:10A07000E126D59ED59CD59AD596F80ED51407091C
:10A08000D56EF2940101170EE26F3B0EE36F320EB4
:10A09000E46FE56B1F0EE66F0C0EE76FE86BE96B84
:10A0A0000B0EEA6F8B0EDE6EDD68DECF14F0DDCFB7
:10A0B00015F015C014F0156A14C0ECF1DECF14F0E1
:10A0C000DDCF15F014C0EBF1FE0EDB5003E0F184A0
:10A0D000F28AF294020EE15C02E2E16AE552E16E7C
:10A0E000E552E7CFD9FF1200ECC1D7FFEBC1D6FF95
:10A0F000D58EF29412000101E251180A01E179D0E3
:10A100000F0A74E0010A6FE0030A6AE0010A65E0E1
:10A11000070A60E0010A5BE0030A56E0010A51E029
:10A120001F0A4CE0010A47E0030A42E0010A3DE051
:10A13000070A38E0010A33E0030A2EE0010A29E0A9
:10A140000F0A24E0010A1FE0030A1AE0010A15E0E1
:10A15000070A10E0010A0BE0030A06E0010A01E029
:10A160004BD00C0EEA6F48D0010EEA6F45D0020EBC
:10A17000EA6F42D0030EEA6F3FD0040EEA6F3CD084
:10A18000050EEA6F39D0060EEA6F36D0070EEA6F79
:10A1900033D0080EEA6F30D0090EEA6F2DD00A0EC8
:10A1A000EA6F2AD00B0EEA6F27D00C0EEA6F24D08C
:10A1B000010EEA6F21D0020EEA6F1ED0030EEA6F85
:10A1C0001BD0040EEA6F18D0050EEA6F15D0060EEC
:10A1D000EA6F12D0070EEA6F0FD0080EEA6F0CD0AC
:10A1E000090EEA6F09D00A0EEA6F06D00B0EEA6F6D
:10A1F00003D00C0EEA6F00D0E25103E0E2510D08EB
:10A2000004E30101066B076B04D0010E0101066F28
:10A21000076B0101EA5100D01200D9CFE6FFE1CF70
:10A22000D9FF0101E451E66EE66AE351E66EE66AA3
:10A2300062DFE66EE66AC80E146EE40E156E166AEC
:10A2400014C0E6FF15C0E6FF16C0E6FF820EE66EFC
:10A25000010EE66E6CEC72F0176E0B0EE15E17509D
:10A2600001010651071117E1FB0EDBCFE6FFFD0EE2
:10A27000DBCF14F0FE0EDBCF15F0010E1424E66EDA
:10A28000C50EE66EE40EE66E4AEC68F0E552E55265
:10A29000E552E55216D0FB0EDBCFE6FFFD0EDBCF1D
:10A2A00014F0FE0EDBCF15F0010E1424E66EC20E84
:10A2B000E66EE40EE66E4AEC68F0E552E552E552D1
:10A2C000E552FB0EDBCFE6FFFD0EDBCFE6FF820E95
:10A2D000E66E010EE66E84EC68F0E552E552E5525A
:10A2E000E552E552E7CFD9FF1200D9CFE6FFE1CF23
:10A2F000D9FF0101E451E66EE66AE351E66EE66AD3
:10A30000E251E66EE66AC80E146EE40E156E166A29
:10A3100014C0E6FF15C0E6FF16C0E6FF960EE66E17
:10A32000010EE66E6CEC72F0176E0B0EE15E1750CC
:10A33000FB0EDBCFE6FFFD0EDBCFE6FF960EE66EF3
:10A34000010EE66E84EC68F0E552E552E552E55206
:10A35000E552E7CFD9FF1200D9CFE6FFE1CFD9FF11
:10A36000FE0EDB500101E527640EE55D12E3640E8D
:10A37000E55DE56FE42B3C0EE45D0BE1E46BE32B64
:10A380003C0EE35D06E1E36BE22B180EE25D01E1BA
:10A39000E26BE552E7CFD9FF1200D550800B01E008
:10A3A000010E00D01200DACFE4FFE2CFDAFFE9CFEE
:10A3B000E4FFEACFE4FFF6CFE4FFF7CFE4FFF5CF09
:10A3C000E4FFF3CFE4FFF4CFE4FFFACFE4FF00EEC5
:10A3D00000F0140EE80403E3EECFE4FFFBD700EE39
:10A3E00014F0070EE80403E3EECFE4FFFBD7E652D8
:10A3F000F29EF2A406D078DE0400010EE66EACDF19
:10A40000E552F28EE55200EE1AF0070EE80403E37F
:10A41000E5CFEDFFFBD700EE13F0140EE80403E3E5
:10A42000E5CFEDFFFBD7E5CFFAFFE5CFF4FFE5CFB2
:10A43000F3FFE5CFF5FFE5CFF7FFE5CFF6FFE5CF7B
:10A44000EAFFE5CFE9FFE5CFDAFF110081B01FD0C9
:10A450000101ABC114F0ACC115F0ADC116F0AEC135
:10A4600017F0AB2B000EAC23AD23AE23D8800A0E21
:10A470001454000E1554000E1654000E175406E224
:10A48000AB6BAC6BAD6BAE6B010EAA6F11D0010163
:10A49000AA050EE1AB51AC11AD11AE1104E1AA6BEE
:10A4A000010E08D005D0AB07000EAC5BAD5BAE5B18
:10A4B000000E00D01200D9CFE6FFE1CFD9FF080E81
:10A4C000E126E66A1BEC70F0E552020EF3CFDBFFEB
:10A4D000030EF4CFDBFFE66E1BEC70F0E552F3CF1A
:10A4E000DEFFF4CFDDFF010EE66E1BEC70F0E552EF
:10A4F000040EF3CFDBFF050EF4CFDBFF020EE66E9A
:10A500001BEC70F0E552060EF3CFDBFF070EF4CF25
:10A51000DBFF130EC26ED9CFE9FFDACFEAFF200EC0
:10A52000D880EE54030EED5402E34C0E27D0D950E0
:10A53000020FE96EDACFEAFF200ED880EE54030E48
:10A54000ED5402E3520E1AD0D950040FE96EDACF5F
:10A55000EAFFC50ED880EE54030EED5402E2550E0C
:10A560000DD0D950060FE96EDACFEAFFD40ED880AD
:10A57000EE54030EED5402E2440E00D0146E080EA9
:10A58000E15C02E2E16AE552E16E1450E552E7CF88
:10A59000D9FF1200D9CFE6FFE1CFD9FF1E0EE12689
:10A5A000C30EC2141009C26EC282C2B2FED7D9CF86
:10A5B000E6FFDACFE6FFC3CFE6FFC4CFE6FFE4EC69
:10A5C00070F0E552E552E552E552B00ED880C35422
:10A5D000040EC4540AE3E90ED880C354030EC454D5
:10A5E00004E2070EF36EF46A3CD0E80ED880C35440
:10A5F000030EC4540AE3EE0ED880C354020EC454B2
:10A6000004E2060EF36EF46A2CD0EE0EC35C020E6A
:10A61000C4580AE2F40ED880C354010EC45404E2B4
:10A62000050EF36EF46A1DD0F40EC35C010EC4581F
:10A630000AE2FA0ED880C354000EC45404E2040E99
:10A64000F36EF46A0ED0FA0EC35C000EC45809E231
:10A65000000EC35C000EC45804E3030EF36EF46AEC
:10A6600000D01E0EE15C02E2E16AE552E16EE552C5
:10A67000E7CFD9FF1200D9CFE6FFE1CFD9FF020E15
:10A68000E126E66A32EC67F0E5520101010E041999
:10A6900001E105510CE1500EE66EE66A000EE66E31
:10A6A000E66ABBDDE552E552E552E5520BD0500EAD
:10A6B000E66EE66A000EE66EE66A17DEE552E552E1
:10A6C000E552E55267DFF3CFDEFFF4CFDDFFE66A48
:10A6D000E66AB70EE66EE40EE66E4AEC68F0E55206
:10A6E000E552E552E552E66A030EE66EA40EE66E0A
:10A6F000E40EE66E4AEC68F0E552E552E552E552AA
:10A70000E66A040EE66E910EE66EE40EE66E4AEC24
:10A7100068F0E552E552E552E552E66A050EE66E4E
:10A720007E0EE66EE40EE66E4AEC68F0E552E55207
:10A73000E552E552E66A060EE66E6B0EE66EE40E34
:10A74000E66E4AEC68F0E552E552E552E552E66AFB
:10A75000070EE66E5C0EE66EE40EE66E4AEC68F0FE
:10A76000E552E552E552E552780EE66EDECF14F082
:10A77000DDCF15F0B00E1424E66E3C0EE66E1EEC36
:10A7800068F0E552E552E552780EE66EDECF14F041
:10A79000DDCF15F01406000E155AB00E1424E66E27
:10A7A000200EE66E1EEC68F0E552E552E552780E9A
:10A7B000E66EDECF14F0DDCF15F0010E1426000E8C
:10A7C0001522B00E1424E66E200EE66E1EEC68F024
:10A7D000E552E552E5523ADE01082CE1000EDFCFEA
:10A7E00008F0010EDBCF09F0070E081801E109504F
:10A7F0001FE0060E081801E1095017E0050E0818C1
:10A8000001E109500FE0040E081801E1095008E0C9
:10A81000030E081801E1095001E00CD022D80AD03B
:10A8200041DA08D035EC58F005D0A5EC59F002D04B
:10A8300028D900D040DE4C0808E1E66A32EC67F027
:10A84000E552020EE15C08E205D0B7EC5DF0D9EC10
:10A850005DF01BD7E16AE552E16EE552E7CFD9FF23
:10A860001200D9CFE6FFE1CFD9FF050EE126460E53
:10A87000DF6E030EF36E010EF3CFDBFF020EDB6A19
:10A88000E66A32EC67F0E552780EE66E010EDBCF39
:10A8900014F0020EDBCF15F0B00E1424E66E3C0E61
:10A8A000E66E1EEC68F0E552E552E5520101010E3C
:10A8B000041901E105510CE1500EE66EE66A000E46
:10A8C000E66EE66AAADCE552E552E552E5520BD0A7
:10A8D000500EE66EE66A000EE66EE66A06DDE552AA
:10A8E000E552E552E552E66AE66AB70EE66EE40E18
:10A8F000E66E4AEC68F0E552E552E552E552E66A4A
:10A90000030EE66E4B0EE66EE40EE66E4AEC68F061
:10A91000E552E552E552E552E66A040EE66E3A0E5D
:10A92000E66EE40EE66E4AEC68F0E552E552E5525A
:10A93000E552C1DDDF6E2EDE030EF3CFDBFF040E2A
:10A94000F4CFDBFFD950030FE96EDACFEAFF030E35
:10A95000EE1801E1ED500AE0D950030FE96EDACFAD
:10A96000EAFF040EEE1801E1ED5016E1780EE66EF6
:10A97000B40EE66E200EE66E1EEC68F0E552E5526F
:10A98000E552780EE66EB30EE66E3C0EE66E1EECF9
:10A9900068F0E552E552E552D950030FE96EDACF7F
:10A9A000EAFF050EEE1801E1ED500AE0D950030F61
:10A9B000E96EDACFEAFF060EEE1801E1ED5016E17E
:10A9C000780EE66EB30EE66E200EE66E1EEC68F0B4
:10A9D000E552E552E552780EE66EB40EE66E3C0E98
:10A9E000E66E1EEC68F0E552E552E552B7EC5DF01C
:10A9F000D9EC5DF04C0EDF5C01E139D0520EDF5C2A
:10AA000035E1D950030FE96EDACFEAFF030EEE18F5
:10AA100001E1ED500AE0D950030FE96EDACFEAFF09
:10AA2000040EEE1801E1ED5004E1020E0101006F89
:10AA3000016BD950030FE96EDACFEAFF050EEE186D
:10AA400001E1ED500AE0D950030FE96EDACFEAFFD9
:10AA5000060EEE1801E1ED5004E1010E0101006F58
:10AA6000016BE66A32EC67F0E55201D01FD7050EA4
:10AA7000E15C02E2E16AE552E16EE552E7CFD9FF1F
:10AA80001200D9CFE6FFE1CFD9FF050EE126460E31
:10AA9000DF6E030EF36E010EF3CFDBFF020EDB6AF7
:10AAA000E66A32EC67F0E552780EE66E010EDBCF17
:10AAB00014F0020EDBCF15F0B00E1424E66E3C0E3F
:10AAC000E66E1EEC68F0E552E552E5520101010E1A
:10AAD000041901E105510DE1500EE66EE66A000E23
:10AAE000E66EE66A0DEC51F0E552E552E552E552AC
:10AAF0000CD0500EE66EE66A000EE66EE66A75EC65
:10AB000051F0E552E552E552E552E66AE66A2C0E4E
:10AB1000E66EE40EE66E4AEC68F0E552E552E55268
:10AB2000E552E66A030EE66E240EE66EE40EE66E6D
:10AB30004AEC68F0E552E552E552E552E66A040E49
:10AB4000E66E1C0EE66EE40EE66E4AEC68F0E55228
:10AB5000E552E552E552AFDCDF6E1CDD030EF3CFAC
:10AB6000DBFF040EF4CFDBFFD950030FE96EDACF21
:10AB7000EAFF030EEE1801E1ED500AE0D950030F91
:10AB8000E96EDACFEAFF040EEE1801E1ED5016E1AE
:10AB9000780EE66EB40EE66E200EE66E1EEC68F0E1
:10ABA000E552E552E552780EE66EB30EE66E3C0EC7
:10ABB000E66E1EEC68F0E552E552E552D950030FFF
:10ABC000E96EDACFEAFF050EEE1801E1ED500AE07A
:10ABD000D950030FE96EDACFEAFF070EEE1801E154
:10ABE000ED5016E1780EE66EB30EE66E200EE66EC0
:10ABF0001EEC68F0E552E552E552780EE66EB40EB2
:10AC0000E66E3C0EE66E1EEC68F0E552E552E5524B
:10AC1000B7EC5DF0D9EC5DF04C0EDF5C01E138D0B3
:10AC2000520EDF5C34E1D950030FE96EDACFEAFF50
:10AC3000030EEE1801E1ED500AE0D950030FE96E62
:10AC4000DACFEAFF040EEE1801E1ED5004E1010E47
:10AC50000101046F056BD950030FE96EDACFEAFFEB
:10AC6000050EEE1801E1ED500AE0D950030FE96E30
:10AC7000DACFEAFF070EEE1801E1ED5003E1010122
:10AC8000046B056BE66A32EC67F0E55201D01ED723
:10AC9000050EE15C02E2E16AE552E16EE552E7CFC2
:10ACA000D9FF1200D9CFE6FFE1CFD9FF0E0EE12682
:10ACB000460EDF6E010EDB6A020EDB6A320EF36EA9
:10ACC000030EF3CFDBFF040EDB6A0101E251E66EF7
:10ACD000D950080FE96EDACFEAFFE552E750EE6E81
:10ACE000ED6AE351E66ED9500A0FE96EDACFEAFF5A
:10ACF000E552E750EE6EED6AE451E66ED9500C0F66
:10AD0000E96EDACFEAFFE552E750EE6EED6AE66AE9
:10AD100032EC67F0E552010EDBCFE4F1320EE66E65
:10AD2000E66A040EE66EE66A75EC51F0E552E5520D
:10AD3000E552E552E66AE66A130EE66EE40EE66E4A
:10AD40004AEC68F0E552E552E552E5525BEC52F010
:10AD5000DF6E20DC050EF3CFDBFF060EF4CFDBFF4A
:10AD6000D950050FE96EDACFEAFF030EEE1801E1C4
:10AD7000ED5033E1320EE66EB50EE66E5F0EE66E16
:10AD80001EEC68F0E552E552E552380EE66EB50E5F
:10AD9000E66E5F0EE66E1EEC68F0E552E552E55297
:10ADA000440EE66EB50EE66E200EE66E1EEC68F002
:10ADB000E552E552E5524A0EE66EB50EE66E200EFD
:10ADC000E66E1EEC68F0E552E552E552320EF36E87
:10ADD000030EF3CFDBFF040EDB6AD950050FE96EDB
:10ADE000DACFEAFF040EEE1801E1ED5049E1320E30
:10ADF000E66EB50EE66E200EE66E1EEC68F0E552CD
:10AE0000E552E552380EE66EB50EE66E200EE66EA1
:10AE10001EEC68F0E552E552E552560EE66EB50EB0
:10AE2000E66E200EE66E1EEC68F0E552E552E55245
:10AE30005C0EE66EB50EE66E200EE66E1EEC68F059
:10AE4000E552E552E552440EE66EB50EE66E5F0E33
:10AE5000E66E1EEC68F0E552E552E5524A0EE66EEB
:10AE6000B50EE66E5F0EE66E1EEC68F0E552E5523A
:10AE7000E552440EF36E030EF3CFDBFF040EDB6AE4
:10AE8000D950050FE96EDACFEAFF050EEE1801E1A1
:10AE9000ED5033E1560EE66EB50EE66E5F0EE66ED1
:10AEA0001EEC68F0E552E552E5525C0EE66EB50E1A
:10AEB000E66E5F0EE66E1EEC68F0E552E552E55276
:10AEC000440EE66EB50EE66E200EE66E1EEC68F0E1
:10AED000E552E552E5524A0EE66EB50EE66E200EDC
:10AEE000E66E1EEC68F0E552E552E552560EF36E42
:10AEF000030EF3CFDBFF040EDB6AD950030FE96EBC
:10AF0000DACFEAFF320EEE1801E1ED5010E1550EF6
:10AF1000DF5C05E1170E0101E25D01E2E22B440E68
:10AF2000DF5C05E10101E251000801E2E207D950CE
:10AF3000030FE96EDACFEAFF440EEE1801E1ED509F
:10AF400010E1550EDF5C05E13B0E0101E35D01E21E
:10AF5000E32B440EDF5C05E10101E351000801E24F
:10AF6000E307D950030FE96EDACFEAFF560EEE1869
:10AF700001E1ED5026E1550EDF5C10E13B0E0101D1
:10AF8000E45D0CE2E42BE451E66ED950010FE96E6A
:10AF9000DACFEAFFE552E750EE6EED6A440EDF5C71
:10AFA00010E10101E45100080CE2E407E451E66E0F
:10AFB000D950010FE96EDACFEAFFE552E750EE6EA5
:10AFC000ED6A4C0EDF5C0AE1080EDBCFE2F10A0EFF
:10AFD000DBCFE3F10C0EDBCFE4F109D0520EDF5CE6
:10AFE00001E105D0B7EC5DF0D9EC5DF094D60E0E22
:10AFF000E15C02E2E16AE552E16EE552E7CFD9FF9A
:10B000001200D9CFE6FFE1CFD9FF0101E751E66E8B
:10B01000E66AE651E66EE66A090E146EE40E156EF7
:10B02000166A14C0E6FF15C0E6FF16C0E6FFAF0EB5
:10B03000E66E010EE66E6CEC72F0176E090EE15EC4
:10B040001750FB0EDBCFE6FFFD0EDBCFE6FFAF0EAA
:10B05000E66E010EE66E84EC68F0E552E552E552CC
:10B06000E552E552E7CFD9FF1200D9CFE6FFE1CF95
:10B07000D9FF0C0EE126460EDF6E010EF36EF3CF04
:10B08000DBFF020EDB6A320EF36E030EF3CFDBFF43
:10B09000040EDB6A0101E651E66ED950080FE96E35
:10B0A000DACFEAFFE552E750EE6EED6AE751E66E61
:10B0B000D9500A0FE96EDACFEAFFE552E750EE6E9B
:10B0C000ED6AE66A32EC67F0E552320EE66EE66A49
:10B0D000040EE66EE66A95DFE552E552E552E5526A
:10B0E000E66AE66A000EE66EE40EE66E4AEC68F08A
:10B0F000E552E552E552E5520101010E041901E164
:10B1000005510DE1500EE66EE66A000EE66EE66A47
:10B110000DEC51F0E552E552E552E5520CD0500EDF
:10B12000E66EE66A000EE66EE66A75EC51F0E552F0
:10B13000E552E552E5525BEC52F0DF6ECAEC52F09C
:10B14000060EF3CFDBFF070EF4CFDBFFD950060F5F
:10B15000E96EDACFEAFF030EEE1801E1ED5033E1BC
:10B16000320EF36E030EF3CFDBFF040EDB6A320EFA
:10B17000E66EB50EE66E5F0EE66E1EEC68F0E5520A
:10B18000E552E552380EE66EB50EE66E5F0EE66EDF
:10B190001EEC68F0E552E552E552440EE66EB50E3F
:10B1A000E66E200EE66E1EEC68F0E552E552E552C2
:10B1B0004A0EE66EB50EE66E200EE66E1EEC68F0E8
:10B1C000E552E552E552D950060FE96EDACFEAFFB3
:10B1D000040EEE1801E1ED5033E1440EF36E030E60
:10B1E000F3CFDBFF040EDB6A320EE66EB50EE66EC1
:10B1F000200EE66E1EEC68F0E552E552E552380E80
:10B20000E66EB50EE66E200EE66E1EEC68F0E552B8
:10B21000E552E552440EE66EB50EE66E5F0EE66E42
:10B220001EEC68F0E552E552E5524A0EE66EB50EA8
:10B23000E66E5F0EE66E1EEC68F0E552E552E552F2
:10B24000D950030FE96EDACFEAFF320EEE1801E1B2
:10B25000ED5010E1550EDF5C05E11F0E0101E65DCA
:10B2600001E2E62B440EDF5C05E10101E651010835
:10B2700001E2E607D950030FE96EDACFEAFF440E88
:10B28000EE1801E1ED5010E1550EDF5C05E10C0E0A
:10B290000101E75D01E2E72B440EDF5C05E10101FE
:10B2A000E751010801E2E7074C0EDF5C07E10A0EF7
:10B2B000DBCFE7F1080EDBCFE6F109D0520EDF5C01
:10B2C00001E105D0B7EC5DF0D9EC5DF0FED60C0ED7
:10B2D000E15C02E2E16AE552E16EE552E7CFD9FFB7
:10B2E0001200D9CFE6FFE1CFD9FF0101E951E66EA7
:10B2F000E66AE851E66EE66AF60E146EE30E156E27
:10B30000166A14C0E6FF15C0E6FF16C0E6FFC30EBE
:10B31000E66E010EE66E6CEC72F0176E090EE15EE1
:10B320001750FB0EDBCFE6FFFD0EDBCFE6FFC30EB3
:10B33000E66E010EE66E84EC68F0E552E552E552E9
:10B34000E552E552E7CFD9FF1200D9CFE6FFE1CFB2
:10B35000D9FF080EE126460EDF6E010EF36EF3CF25
:10B36000DBFF020EDB6A320EF36E030EF3CFDBFF60
:10B37000040EDB6AE66A32EC67F0E552320EE66EE6
:10B38000E66A040EE66EE66AACDFE552E552E55287
:10B39000E552E66AE66AEC0EE66EE30EE66E4AEC0D
:10B3A00068F0E552E552E552E5520101010E04193B
:10B3B00001E105510DE1500EE66EE66A000EE66E03
:10B3C000E66A0DEC51F0E552E552E552E5520CD03B
:10B3D000500EE66EE66A000EE66EE66A75EC51F017
:10B3E000E552E552E552E552CAEC52F0060EF3CFB3
:10B3F000DBFF070EF4CFDBFF5BEC52F0DF6ED950C2
:10B40000060FE96EDACFEAFF030EEE1801E1ED5008
:10B410000AE0D950060FE96EDACFEAFF040EEE1803
:10B4200001E1ED5033E1320EF36E030EF3CFDBFF9B
:10B43000040EDB6A320EE66EB50EE66E5F0EE66E49
:10B440001EEC68F0E552E552E552380EE66EB50E98
:10B45000E66E5F0EE66E1EEC68F0E552E552E552D0
:10B46000440EE66EB50EE66E200EE66E1EEC68F03B
:10B47000E552E552E5524A0EE66EB50EE66E200E36
:10B48000E66E1EEC68F0E552E552E552D950060F23
:10B49000E96EDACFEAFF050EEE1801E1ED500AE0A1
:10B4A000D950060FE96EDACFEAFF060EEE1801E179
:10B4B000ED5033E1440EF36E030EF3CFDBFF040EC9
:10B4C000DB6A320EE66EB50EE66E200EE66E1EEC00
:10B4D00068F0E552E552E552380EE66EB50EE66EBE
:10B4E000200EE66E1EEC68F0E552E552E552440E81
:10B4F000E66EB50EE66E5F0EE66E1EEC68F0E55287
:10B50000E552E5524A0EE66EB50EE66E5F0EE66E49
:10B510001EEC68F0E552E552E552D950030FE96E92
:10B52000DACFEAFF320EEE1801E1ED5010E1550ED0
:10B53000DF5C05E1170E0101E85D01E2E82B440E36
:10B54000DF5C05E10101E851000801E2E807D9509C
:10B55000030FE96EDACFEAFF440EEE1801E1ED5079
:10B5600010E1550EDF5C05E13B0E0101E95D01E2F2
:10B57000E92B440EDF5C05E10101E951000801E21D
:10B58000E9074C0EDF5C04E10101026B036B0BD099
:10B59000520EDF5C05E1010E0101026F036B03D067
:10B5A000E6DA07DBEBD6080EE15C02E2E16AE5527F
:10B5B000E16EE552E7CFD9FF1200D9CFE6FFE1CF28
:10B5C000D9FF130EE126040EDB6A050EDB6A060EB8
:10B5D000DB6A070EDB6A020EF36E080EF3CFDBFFA9
:10B5E000090EDB6A0A0EE2C1DBFF0B0EE3C1DBFFD3
:10B5F0000C0EE4C1DBFF0D0EDB6A140EF36E0E0EB3
:10B60000F3CFDBFF300EF36E0F0EF3CFDBFF420EF6
:10B61000F36E100EF3CFDBFF5A0EF36E110EF3CF65
:10B62000DBFF6E0EF36E120EF3CFDBFF0101010E96
:10B63000041901E1055106E17BEC50F0E76E0A0EBA
:10B64000E7CFDBFF01010651071112E1010E0419DA
:10B6500001E105510DE1E66A070EE66EC50EE66EE4
:10B66000E40EE66E4AEC68F0E552E552E552E5522A
:10B670000101010E061901E1075112E1010E041941
:10B6800001E105510DE1E66A070EE66EC20EE66EB7
:10B69000E40EE66E4AEC68F0E552E552E552E552FA
:10B6A000DE6ADD6ADECF14F0DDCF15F0D8901550DC
:10B6B00004E6030E145C000E155801E34ED2D95077
:10B6C0000A0F156EDACF16F0DE501524E96EDD5044
:10B6D0001620EA6EEFCF14F00A0E176E17C00EF0A8
:10B6E00014C009F089EC74F00950E66ED950040FCB
:10B6F000E96EDACFEAFFE552E750EE6EED6AD95017
:10B700000A0F156EDACF16F0DE501524E96EDD5003
:10B710001620EA6EEFCF14F00A0E176E17C00EF067
:10B7200014C009F089EC74F00550E66ED950060F8C
:10B73000E96EDACFEAFFE552E750EE6EED6A020EEF
:10B74000DB6A030EDB6A020EDBCF14F0030EDBCFE5
:10B7500015F0D890155004E6020E145C000E155832
:10B7600001E3CAD1D950040F166EDACF17F0020EDA
:10B77000086E096ADBCF0DF0030EDBCF0EF0E8ECAC
:10B7800072F016500624E96E17500720EA6EEECFCD
:10B7900014F0EFCF15F0090E141801E1155001E176
:10B7A00080D1080E141801E1155001E155D1070EA2
:10B7B000141801E1155001E12AD1060E141801E117
:10B7C000155001E1FFD0050E141801E1155001E1FB
:10B7D000D4D0040E141801E1155001E1A9D0030ED4
:10B7E000141801E1155001E17ED0020E141801E198
:10B7F000155054E0010E141801E115502AE01450C0
:10B8000001E1155001E072D1D9500D0F166EDACF5B
:10B8100017F0020E086E096ADECF0DF0DDCF0EF0D4
:10B82000E8EC72F016500624146E17500720156EBF
:10B83000020EDB501424E96E030EDB501520EA6E75
:10B84000EF50E66E200EE66E18EC69F0E552E55218
:10B850004DD1D9500D0F166EDACF17F0020E086ECB
:10B86000096ADECF0DF0DDCF0EF0E8EC72F0165075
:10B870000624146E17500720156E020EDB50142498
:10B88000E96E030EDB501520EA6EEF50E66E240ED3
:10B89000E66E18EC69F0E552E55228D1D9500D0F4B
:10B8A000166EDACF17F0020E086E096ADECF0DF0C1
:10B8B000DDCF0EF0E8EC72F016500624146E17502F
:10B8C0000720156E020EDB501424E96E030EDB50C8
:10B8D0001520EA6EEF50E66E280EE66E18EC69F061
:10B8E000E552E55203D1D9500D0F166EDACF17F09D
:10B8F000020E086E096ADECF0DF0DDCF0EF0E8EC27
:10B9000072F016500624146E17500720156E020EA2
:10B91000DB501424E96E030EDB501520EA6EEF5065
:10B92000E66E2C0EE66E18EC69F0E552E552DED0BC
:10B93000D9500D0F166EDACF17F0020E086E096A95
:10B94000DECF0DF0DDCF0EF0E8EC72F016500624DD
:10B95000146E17500720156E020EDB501424E96E8A
:10B96000030EDB501520EA6EEF50E66E300EE66EE9
:10B9700018EC69F0E552E552B9D0D9500D0F166EAA
:10B98000DACF17F0020E086E096ADECF0DF0DDCFB8
:10B990000EF0E8EC72F016500624146E17500720D3
:10B9A000156E020EDB501424E96E030EDB501520D9
:10B9B000EA6EEF50E66E340EE66E18EC69F0E55272
:10B9C000E55294D0D9500D0F166EDACF17F0020E53
:10B9D000086E096ADECF0DF0DDCF0EF0E8EC72F0F4
:10B9E00016500624146E17500720156E020EDB50F9
:10B9F0001424E96E030EDB501520EA6EEF50E66E5C
:10BA0000380EE66E18EC69F0E552E5526FD0D95069
:10BA10000D0F166EDACF17F0020E086E096ADECF30
:10BA20000DF0DDCF0EF0E8EC72F016500624146E27
:10BA300017500720156E020EDB501424E96E030E1A
:10BA4000DB501520EA6EEF50E66E3C0EE66E18EC09
:10BA500069F0E552E5524AD0D9500D0F166EDACF93
:10BA600017F0020E086E096ADECF0DF0DDCF0EF082
:10BA7000E8EC72F016500624146E17500720156E6D
:10BA8000020EDB501424E96E030EDB501520EA6E23
:10BA9000EF50E66E400EE66E18EC69F0E552E552A6
:10BAA00025D0D9500D0F166EDACF17F0020E086EA2
:10BAB000096ADECF0DF0DDCF0EF0E8EC72F0165023
:10BAC0000624146E17500720156E020EDB50142446
:10BAD000E96E030EDB501520EA6EEF50E66E440E61
:10BAE000E66E18EC69F0E552E55200D0020EDB2A52
:10BAF000030E01E3DB2A27D6280EE66EB30EE66EB0
:10BB00006F0EE66E1EEC68F0E552E552E552280E27
:10BB1000E66EB40EE66E6F0EE66E1EEC68F0E55251
:10BB2000E552E552540EE66EB30EE66E6F0EE66E0B
:10BB30001EEC68F0E552E552E552540EE66EB40E86
:10BB4000E66E6F0EE66E1EEC68F0E552E552E552C9
:10BB5000DF2A010E01E3DB2AA5D5130EE15C02E228
:10BB6000E16AE552E16EE552E7CFD9FF1200170E08
:10BB70000101E25D1DE13B0EE35D1AE13B0EE45D78
:10BB800017E1E26BE36BE46B1F0EE65D0AE1010E69
:10BB9000E66F0C0EE75D03E1010EE76F01D0E72BC6
:10BBA00002D0E629E66F0C0EE75D02E1010EE76FB9
:10BBB0001200D9CFE6FFE1CFD9FFE6520101010E15
:10BBC000021901E1035104E10101E251E85D07E0DE
:10BBD0000101EA51E85D32E1E351E95D2FE1E45111
:10BBE00014082CE31E0EE66EE66A20EC66F0E552C1
:10BBF000E55226EC52F0DF6EDF0411E10101026B29
:10BC0000036B320EE66EB70EE66E5F0EE66E1EEC4E
:10BC100068F0E552E552E552F36AF46A0FD0320E4D
:10BC2000E66EB70EE66E5A0EE66E1EEC68F0E55252
:10BC3000E552E552E66A32EC67F0E552E552E5522C
:10BC4000E7CFD9FF1200010EE66E050EE66E400E3C
:10BC5000E66EE66AE66E74EC6BF0146E050EE15E5D
:10BC60001450010EE66E200EE66E670EE66E200E94
:10BC7000E66E600EE66E74EC6BF0146E050EE15E1F
:10BC80001450010EE66E3B0EE66E400EE66EE66E5A
:10BC9000E66E74EC6BF0146E050EE15E1450010E4E
:10BCA000E66E200EE66E220EE66E200EE66E1B0E8F
:10BCB000E66E74EC6BF0146E050EE15E1450E66AED
:10BCC0000C0EE66E610EE66E120EE66E5B0EE66E12
:10BCD00074EC6BF0146E050EE15E1450E66A330EE0
:10BCE000E66E610EE66E2D0EE66E5B0EE66E74EC91
:10BCF0006BF0146E050EE15E1450E66A330EE66ECC
:10BD00001F0EE66E2D0EE66E250EE66E74EC6BF0E1
:10BD1000146E050EE15E1450E66A0C0EE66E1F0E00
:10BD2000E66E120EE66E250EE66E74EC6BF0146E87
:10BD3000050EE15E14501200D9CFE6FFE1CFD9FF26
:10BD4000020EE126E66A32EC67F0E5520101E251AB
:10BD500001E18DD0170A01E186D0010A01E17FD00F
:10BD6000030A01E178D0010A72E0070A6CE0010AD7
:10BD700066E0030A60E0010A5AE01F0A54E0010A83
:10BD80004EE0030A48E0010A43E0070A3DE0010AE9
:10BD900037E0030A31E0010A2BE00F0A25E0010A2F
:10BDA0001FE0030A19E0010A13E0070A0DE0010A87
:10BDB00007E0030A01E05ED0050EDE6EDD6A5AD0B0
:10BDC0000A0EDE6EDD6A56D00F0EDE6EDD6A52D0D0
:10BDD000140EDE6EDD6A4ED0190EDE6EDD6A4AD0BC
:10BDE0001E0EDE6EDD6A46D0230EDE6EDD6A42D0A8
:10BDF000280EDE6EDD6A3ED02D0EDE6EDD6A3AD094
:10BE0000320EDE6EDD6A36D0370EDE6EDD6A32D07F
:10BE1000DE6ADD6A2FD0050EDE6EDD6A2BD00A0EDB
:10BE2000DE6EDD6A27D00F0EDE6EDD6A23D0140EC3
:10BE3000DE6EDD6A1FD0190EDE6EDD6A1BD01E0EAF
:10BE4000DE6EDD6A17D0230EDE6EDD6A13D0280E9B
:10BE5000DE6EDD6A0FD02D0EDE6EDD6A0BD0320E87
:10BE6000DE6EDD6A07D0370EDE6EDD6A03D0DE6A75
:10BE7000DD6A00D0E66AE451EA6A450FE96E010E18
:10BE8000EA22EF50E66EE451EA6A080FE96E010E0D
:10BE9000EA22EF50E66E200EE66E400EE66E74EC7F
:10BEA0006BF0146E050EE15E1450010EE66E01019A
:10BEB000E351EA6A450FE96E010EEA22EF50E66EA1
:10BEC000E351EA6A080FE96E010EEA22EF50E66ECE
:10BED000200EE66E400EE66E74EC6BF0146E050EEE
:10BEE000E15E1450020EE66EDECFE9FFDDCFEAFF21
:10BEF000450EE926010EEA22EF50E66EDECFE9FF9D
:10BF0000DDCFEAFF080EE926010EEA22EF50E66EC9
:10BF1000200EE66E400EE66E74EC6BF0146E050EAD
:10BF2000E15E1450020EE15C02E2E16AE552E16E6C
:10BF3000E552E7CFD9FF1200D9CFE6FFE1CFD9FF15
:10BF4000030EE12629EC50F0010EE66E33EC50F0C2
:10BF5000E552F28ED08E74EC50F0C080CDEC51F0F2
:10BF6000000952E00101010E001901E1015121E136
:10BF70005F0EE66EE66A070EE66EE66A01EC58F0C2
:10BF8000E552E552E552E552DDEC5AF0F0DD0101F3
:10BF9000010E021901E103510BE1000EE66EE66AA3
:10BFA000E66EE66A71EC59F0E552E552E552E5526B
:10BFB00020D0C2DE48DE000EE66EE66A070EE66EB0
:10BFC000E66A01EC58F0E552E552E552E552CFDD64
:10BFD0000101010E021901E103510BE1000EE66EB1
:10BFE000E66AE66EE66A71EC59F0E552E552E55212
:10BFF000E55226EC52F0E76E020EE7CFDBFFDB04E2
:10C0000002E13BEC53F0D5DDA9D7030EE15C02E27F
:0EC01000E16AE552E16EE552E7CFD9FF12007A
:02C01E004BECE9
:10C0200065F0FB0EDBCFF3FFDB06F35000090AE0FF
:10C0300099EC65F0FA0E04EC66F0F3E1151CF1E101
:10C04000010E01D0000E7AEF65F04BEC65F03B0E6F
:10C05000E12402E3E168E652E16E010EDB6A020EC2
:10C06000DB6AF90EDBCFF6FFFA0EDBCFF7FFFB0E34
:10C07000DBCFF8FF0800F550DF6EDF5002E19EEFE6
:10C0800064F0250EDF5C02E091EF64F0030EDB6AE2
:10C09000040EDB6A050EDB6A060EDB6A070EDB6A3E
:10C0A000B3EC64F02D0EDF5C0CE02B0EDF5C09E0DE
:10C0B000200EDF5C06E0230EDF5C03E0300EDF5C69
:10C0C0001AE1DF50300A14E0130A0FE0030A0AE015
:10C0D0000B0A05E0060AE4E1030EDB80E1D7030E5C
:10C0E000DB82DED7030EDB84DBD7030EDB86D8D7FB
:10C0F000030EDB88D5D72A0EDF5C1BE1AFEC64F0C2
:10C10000FDEC64F010E0030EDB8008680968130E94
:10C11000DBCF0DF0140EDBCF0EF0E8EC72F0040E66
:10C1200006C0DBFF03D0130EE6EC64F0B3EC64F062
:10C130000BD0090EDB6A54EC65F003E0C8EC65F047
:10C14000FAD7090EE6EC64F0030EDBB0DB982E0E96
:10C15000DF5C1BE1B3EC64F02A0EDF5C0BE1AFECBB
:10C1600064F0FDEC64F003E1130E38EC65F0B3EC21
:10C1700064F00BD0090EDB6A54EC65F003E0C8EC08
:10C1800065F0FAD7090E38EC65F0680EDF5C07E160
:10C19000B3EC64F0680EDF5C1DE1030E18D0740E82
:10C1A000DF5C17E07A0EDF5C14E0480EDF5C06E02F
:10C1B000540EDF5C03E05A0EDF5C02E1020E07D092
:10C1C0006C0EDF5C03E06A0EDF5C04E1010E8BECB9
:10C1D00065F0C9DBDF506E0A01E17FD31E0A01E181
:10C1E00092D1200A01E18FD13F0A01E149D11A0A17
:10C1F00001E146D10D0A01E143D1200A01E140D11C
:10C200003A0A01E13DD1200A01E13AD1260A01E1D1
:10C2100035D10D0A01E132D11A0A01E1D9D0200A43
:10C220004AE0300A1FE0460A0EE0250A01E083D307
:10C23000D950F90FE96EFF0EDA20EA6E010EEE5EBC
:10C24000000EEE5AEE5A99EC65F0250EE66E95DB7F
:10C2500003E1151C01E169D395EC65F001E26BD3B4
:10C26000DB2A69D3080EDB6A040EDB50010806E204
:10C27000040EDB045DEC65F0DB508BDB080EDB505D
:10C2800009E0030EDB50010B05E172DB01E04DD349
:10C29000080EDB6A64DBEFCFDFFF0DEC66F003E135
:10C2A000151C01E142D395EC65F001E3DB2A60DB6C
:10C2B00001E141D33AD3070EDB5002080FE1D9EC7C
:10C2C00065F0030EA0EC65F00E0EEECFDBFF0F0E57
:10C2D000EECFDBFF100EEECFDBFF20D0F70EDBCF73
:10C2E00017F0F80EDBCF18F0020E175E000E185A8A
:10C2F000F70E17C0DBFFF80E18C0DBFF17C0E9FF11
:10C3000018C0EAFF90EC65F0166A0E0E14C0DBFF51
:10C310000F0E15C0DBFF100E16C0DBFF0E0EDBCFBD
:10C32000E6FF0F0EDBCFE6FF100EDBCFE6FFECECF7
:10C3300073F0E552E552E552130E07C0DBFF140E11
:10C3400008C0DBFF060EDB5005E0130ED4EC65F0F1
:10C3500001E26ADBF8EC65F002E2130E37DBBBECBE
:10C3600065F006E0040ED4EC65F002E2050E2EDB6B
:10C37000030EDBB005D0FCDA01E0D7D2080EDB6A91
:10C38000090EDB6A0E0EDBCFF6FF0F0EDBCFF7FFD9
:10C39000100EDBCFF8FF0800F550DF6EDF5014E021
:10C3A000FEEC65F011E20DEC66F003E1151C01E115
:10C3B000BCD2BBDB01E3DB2A090EDB2AD9500E0F0E
:10C3C000E96E000ECBDBE7D7D3DA01E1B4D2ADD210
:10C3D000C6DA110EEECFDBFF120EEDCFDBFF110E32
:10C3E000DBCFE6FF120EDBCFE6FFDEEC73F0E552AB
:10C3F000E552130EF3CFDBFF140EF4CFDBFF060E76
:10C40000DB5004E0130ED0DB01E20EDBF8EC65F04C
:10C4100002E2130EDBDAAFDB05E0040EC5DB02E25D
:10C42000050ED4DA030EDBB005D0A2DA01E07DD22E
:10C43000080EDB6A090EDB6A110EDBCFE9FF120E74
:10C44000DBCFEAFFEFCFDFFFDF5014E0D7DB12E2F4
:10C45000E4DB03E1151C01E168D267DB01E3DB2AC1
:10C46000090EDB2A110EDB2ADBCFE9FF120EE8E30F
:10C47000DB2AE6D77DDA01E15ED257D2030EDB8EEE
:10C48000070EDB0410E195DB040E5ADB0A0EEECF3B
:10C49000DBFF0B0EEECFDBFF0C0EEECFDBFF0D0E46
:10C4A000EECFDBFF6CD0070EDB5003082CE1030E50
:10C4B000DBAE0DD0B2DA020E76DAEFCF14F0156AE9
:10C4C000166A176A14AE39D01568166835D0F70E9B
:10C4D000DBCF15F0F80EDBCF16F0020E155E000E66
:10C4E000165AF70E15C0DBFFF80E16C0DBFF15C09D
:10C4F000E9FF16C0EAFFEFCF14F00A0E14C0DBFF0D
:10C500000B0EDB6A38D0070EDB50020809E1030E80
:10C51000DBAE04D059DB16AE10D00ED055DB0DD0FB
:10C52000030EDBAE12D079DA020E3DDAF9DA166AC2
:10C53000176A15AE02D016681768E2DA0C0E16C03C
:10C54000DBFF0D0E17C0DBFF1AD0F70EDBCF16F0A6
:10C55000F80EDBCF17F0020E165E000E175AF70E1C
:10C5600016C0DBFFF80E17C0DBFF16C0E9FF17C0CF
:10C57000EAFFD6DAC5DA0C0EDB6A0D0EDB6A060EB0
:10C58000DB5005E1010EF36E050EF3CFDBFF150E58
:10C59000DB6A160EDB6AD950370F146E000EDA20F4
:10C5A000156E390E14C0DBFF3A0E15C0DBFF380ED6
:10C5B000DB6A080EDB6A0A0EAEDADF50780A12E098
:10C5C000200A10E0280A0CE0200A0AE03F0A06E0F0
:10C5D0000D0A02E0200A08E1020E05D0080E03D081
:10C5E000080EDF26100E97DA030EDBBE02D0DB92B8
:10C5F000DB94DB50800B24E08ADAD890030EEB50FA
:10C60000000A08E6000EEE5C000EEE58000EEE5832
:10C61000000EEE5815E213DA0B680C680D680E6810
:10C62000A6EC73F00A0E02C0DBFF0B0E03C0DBFFAB
:10C630000C0E04C0DBFF0D0E05C0DBFF2D0E08D075
:10C64000030EDBA202D02B0E03D0DBA408D0200EF9
:10C65000F36E170EF3CFDBFF150EDB2A02D0170E99
:10C66000DB6A050EDB5003E1B7D901E189D02E0E5C
:10C67000146EE90E156E000E166E070EDBCF17F066
:10C68000186A196A1A6A17C00BF018C00CF019C0A2
:10C690000DF01AC00EF0D3D911EC74F0145002242E
:10C6A000F36E15500320F46E16500420F86EF4CF8C
:10C6B000F7FFF3CFF6FF0800090EF5CFDBFF580EAA
:10C6C000DF5C0FE1610EF36E090E7BD90AE3200EE9
:10C6D000146E090EDBCFE7FF1450E75E090EE7CFBB
:10C6E000DBFF070EDBCF14F0156A166A176A0FDA44
:10C6F00014C00BF015C00CF016C00DF017C00EF0F2
:10C70000EECF06F0EECF07F0EECF08F0EFCF09F056
:10C7100011EC74F009C0EDFF08C0EDFF07C0EDFF9C
:10C7200006C0EFFF390EDBCFE9FFDB063A0EDBCFA9
:10C73000EAFF01E2DB06090EDBCFEFFF150EDB2A75
:10C740004BD995E1030EDBA61DD06F0EDF5C06E131
:10C75000C1D918E3150EDB285BDA14D0780EDF5C44
:10C7600009E0580EDF5C06E0620EDF5C03E0420E7B
:10C77000DF5C08E1020EF36E160EF3CFDBFF02D092
:10C78000150EDB6A030EDB50100B0EE0040EDBCF40
:10C7900014F0050EDB50D880145406E2060EDB5070
:10C7A00003E1040EDB5034DA95D90AE2050EDBCF43
:10C7B000E7FF150EDB50E75E050EE7CFDBFF02D08B
:10C7C000050EDB6A040EDBCF14F0160E45D9D880B7
:10C7D000145414E2160EDBCFE6FF150EDBCFE6FF96
:10C7E000040EDBCFE6FF050EDB50E552E75CE552B9
:10C7F000D880E754E552D880E7545FD9030EDB5068
:10C80000010B0BE1080EDB5008E0B2D801E08DD03F
:10C81000080EDB50BED8080EDB6A170EDB5007E0AF
:10C8200088D9170EF1D903E1151C01E17ED0160E4F
:10C83000DB5016E07ED9300EE66E9FD802E1151C63
:10C8400074E077D9DFCFE6FF64EC73F0E552E55290
:10C85000E552F4CF15F00001F31C02E1151C65E070
:10C86000050EDBCF14F0160EDB50D880145409E20D
:10C87000050EDBCFE7FF160EDB50E75E050EE7CFB8
:10C88000DBFF300EE66E050ECBD94FE1390EDB2A09
:10C89000DBCFE9FF3A0E01E3DB2ADBCFEAFF090E2B
:10C8A000EFCFDBFFDB500EE044D9090EADD902E13A
:10C8B000151C3BE0390EDB2ADBCFE9FF3A0EEDE336
:10C8C000DB2AEBD755D831E1160EDBCFE6FF080E99
:10C8D000C3D8E552E7245DD82ED0070EDB50030AFB
:10C8E0001CE0010A14E0030A07E07BD9DBCFEEFF6E
:10C8F000020EDBCFEDFF1FD0F5D8196A17AE02D0BC
:10C90000186819682CD8BCD819C0EEFF14D0EAD822
:10C9100017BE186824D8B4D80ED063D9DBCFEFFF88
:10C920000AD07BD905E1151C03E1F368F46810D047
:10C93000FCD801E3DB2A79D93AEF60F0010EDBCFB6
:10C9400014F0020EDBCF15F014C0F3FF15C0F4FF96
:10C950003B0EE15C02E2E16AE552E16ECBD029D9FF
:10C96000020EA0EF65F061D90800F550DF6E1200ED
:10C97000200EE66E080E10EF66F064EC73F0E552E0
:10C98000E552E552F3CF14F0F4CF15F00001F31C9B
:10C990001200146E156AD950010F4DD91450EE26AD
:10C9A0001550ED221200185E000E195AF70E18C02D
:10C9B000DBFFF80E19C0DBFF18C0E9FF19C0EAFF62
:10C9C0001200DBCFF4FFF350F45C1200DB50E76E93
:10C9D000040EE7CFDBFF12000A0EDBCF14F00B0EC4
:10C9E000DBCF15F00C0EDBCF16F00D0EDBCF17F002
:10C9F00014501510161017101200130EEECFDBFF97
:10CA0000140EEDCFDBFF130EDBCF14F0140EDBCFD3
:10CA100015F00001800E15141200F70EDBCF18F090
:10CA2000F80EDBCF19F01200050EDB50E66ED95080
:10CA3000130F01D9E552E750EE6EED6A12000A0EAF
:10CA4000DBCF06F00B0EDBCF07F00C0EDBCF08F0D0
:10CA50000D0EDBCF09F01200DBCFE6FF150EDBCFAA
:10CA6000E6FF050EDB50E552E724E552E72412000D
:10CA7000DB50CED8010EF36E060EF3CFDBFF1200B3
:10CA8000EE50EFCFEAFFE96E16C0EEFF17C0EEFFE3
:10CA900018C0EEFF1200D9CFE6FFDACFE6FFE1CFF4
:10CAA000D9FFE2CFDAFF1200DFCFE6FFE66A4BECF8
:10CAB00074F0E552E552F3501200E76E080EE7CF2E
:10CAC000DBFF1200EECF14F0EECF15F0EFCF16F033
:10CAD000176A1200050EDBCF14F0150EDB50D8805C
:10CAE00014541200010EDBCF16F0020EDBCF17F04C
:10CAF000186A1200E552E5CFDAFFE7CFD9FF12003E
:10CB00000A0E14C0DBFF0B0E15C0DBFF1200D9505C
:10CB10000A0F1BEF66F0F36E070EF3CFDBFF120078
:10CB2000EECF14F0EFCF15F01200010EDB2A020E4B
:10CB30001200FC0EDBCFE6FFFD0EDBCFE6FF12009E
:10CB4000145E000E155AF70E14C0DBFFF80E15C068
:10CB5000DBFF14C0E9FF15C0EAFF1200DA20EA6E1D
:10CB6000EF2AEECFF6FF000EEF22EECFF7FFEF2217
:10CB7000EECFF8FF1200040EDBCFE6FF130EDB5002
:10CB8000E552E75C9ADFDB5004DF060EDB50120053
:10CB9000090EDB500A0DF350DF24D00FE76E090EAB
:10CBA000E7CFDBFFB3EF64F0DB50F36E050EE1EF90
:10CBB00064F0F70EDBCF14F0F80EDBCF15F01200A7
:10CBC000DFCFE6FFBDEF64F028DF030EECDE62EF9F
:10CBD00065F00FEC60F0E552E552E552E5520009D0
:10CBE0001200BDDEEE50EFCFEAFFE96E010E12003B
:10CBF000130EDB50F36E040EE1EF64F0040EDB5015
:10CC0000F36E090EE1EF64F0DBCFE6FFBDEF64F0F9
:10CC1000E76E050EE7CFDBFF12008BDFE0EF65F07C
:10CC2000DBCFE6FF86DFE9EF65F0D950F90FE96E5B
:10CC3000FF0EAEEF65F0E96E000EDA20EA6E12002C
:10CC4000D9CFE6FFE1CFD9FF020EE126FD0EDBCF03
:10CC500014F0DB06FE0EDBCF15F001E2DB0614500C
:10CC6000151011E0DE6ADD6ADECF14F0DDCF15F0BD
:10CC7000E30E145C0D0E155805E2DF2A010E01E3E8
:10CC8000DB2AF2D7E3D7020EE15C02E2E16AE55269
:10CC9000E16EE552E7CFD9FF1200D9CFE6FFE1CF31
:10CCA000D9FF060EE1268D9296928D9096908D84F6
:10CCB00096948A9A939A8C92DE6ADE6ADE6ADD6ABC
:10CCC000DD52DD52D9CFE9FFDACFEAFF640EEE5C28
:10CCD000000EEE58000EEE58000EEE580AE2D9CFC4
:10CCE000E9FFDACFEAFFEE2A000EEE22EE22EE2274
:10CCF000E9D78C82DE6ADE6ADE6ADD6ADD52DD52E9
:10CD0000D9CFE9FFDACFEAFF640EEE5C000EEE58F1
:10CD1000000EEE58000EEE580AE2D9CFE9FFDACF46
:10CD2000EAFFEE2A000EEE22EE22EE22E9D7AE0E48
:10CD3000E66E70D8E552DB0EE66E6CD8E552230E37
:10CD4000E66E68D8E552D90EE66E64D8E552220E3A
:10CD5000E66E60D8E552A10EE66E5CD8E552C80ECC
:10CD6000E66E58D8E552DA0EE66E54D8E552120E49
:10CD7000E66E50D8E552A80EE66E4CD8E5523F0E4E
:10CD8000E66E48D8E552D50EE66E44D8E552A00EC0
:10CD9000E66E40D8E552810EE66E3CD8E552600E54
:10CDA000E66E38D8E552D30EE66E34D8E552E66A20
:10CDB00031D8E552A60EE66E2DD8E552AD0EE66EE0
:10CDC00029D8E5528B0EE66E25D8E552AF0EE66EF9
:10CDD00021D8E5520A0EE66EE66A32DFE552E552E8
:10CDE000A40EE66E17D8E552400EE66E13D8E55253
:10CDF000020EE66E0FD8E552100EE66E0BD8E55225
:10CE0000060EE15C02E2E16AE552E16EE552E7CF2F
:10CE1000D9FF1200D9CFE6FFE1CFD9FF956AFE0E08
:10CE2000DB508C6E8D808D828A9A8D948D928D824E
:10CE30008D849568E552E7CFD9FF1200D9CFE6FF80
:10CE4000E1CFD9FF956AFE0EDB508C6E8D808D820E
:10CE50008A8A8D948D928D828D849568E552E7CF74
:10CE6000D9FF1200D9CFE6FFE1CFD9FF020EE126AC
:10CE7000B00EDF6EB80EDF5C23E2DFCFE6FFCADF65
:10CE8000E552020EE66EC6DFE552100EE66EC2DF18
:10CE9000E552010EDB6ADB50146E156AD89015500E
:10CEA00004E6840E145C000E155808E2FE0EDBCF7B
:10CEB000E6FFC4DFE552010EDB2AEDD7DF2ADAD721
:10CEC000020EE15C03E200D0E16AE552E16EE55258
:10CED000E7CFD9FF1200D9CFE6FFE1CFD9FF640E2B
:10CEE000E66EFD0EDBCFE6FF3C0EE66EE66AD2D8BC
:10CEF000E552E552E552E55200D0E552E7CFD9FFC1
:10CF00001200D9CFE6FFE1CFD9FF200E146EFE0E3E
:10CF1000DBCFE7FF1450E75EFE0EE7CFDBFFDBCF92
:10CF2000F6FFF76AF6BEF768050EF702F3CFF7FFD4
:10CF3000F602F3CFF6FFF450F7269A0EF626DA0E35
:10CF4000F7220800F550E66E79DFE552FE0EDBCFE2
:10CF5000F6FFF76AF6BEF768050EF702F3CFF7FFA4
:10CF6000F602F3CFF6FFF450F7269A0EF626DA0E05
:10CF7000F722010EF626000EF7220800F550E66EA5
:10CF80005DDFE552FE0EDBCFF6FFF76AF6BEF7680F
:10CF9000050EF702F3CFF7FFF602F3CFF6FFF450DA
:10CFA000F7269A0EF626DA0EF722020EF626000E65
:10CFB000F7220800F550E66E41DFE552FE0EDBCFAA
:10CFC000F6FFF76AF6BEF768050EF702F3CFF7FF34
:10CFD000F602F3CFF6FFF450F7269A0EF626DA0E95
:10CFE000F722030EF626000EF7220800F550E66E33
:10CFF00025DFE552FE0EDBCFF6FFF76AF6BEF768D7
:10D00000050EF702F3CFF7FFF602F3CFF6FFF45069
:10D01000F7269A0EF626DA0EF722040EF626000EF2
:10D02000F7220800F550E66E09DFE552E66A06DFF2
:10D03000E55200D0E552E7CFD9FF1200D9CFE6FF85
:10D04000E1CFD9FFE652FD0EDBCFE6FFE3DEE5528E
:10D05000020E146EFC0EDBCFE7FF1450E726FC0E29
:10D06000E7CFDBFFDB500F0BE66ED4DEE552FC0EA4
:10D07000DB380F0B0F0B100FE66ECCDEE552FE0E09
:10D08000DBCFE6FF3EDFE55200D0E552E552E7CFC9
:10D09000D9FF1200D9CFE6FFE1CFD9FFFC0EDB505C
:10D0A000B00FE76EFC0EE7CFDBFFFB0EDBCFE6FF3A
:10D0B000FC0EDBCFE6FFFD0EDBCFF6FFFE0EDBCF77
:10D0C000F7FF0800F550E66EB9DFE552E552E5528C
:10D0D000FD0EDB2ADBCFF6FFFE0E01E3DB2ADBCF02
:10D0E000F7FF0800F5500CE0FD0EDBCFF6FFFE0E5B
:10D0F000DBCFF7FF0800F550E66E03DFE552E8D717
:10D10000E552E7CFD9FF1200D9CFE6FFE1CFD9FF33
:10D11000FC0EDB50B00FE76EFC0EE7CFDBFFFB0E23
:10D12000DBCFE6FFFC0EDBCFE6FFFD0EDBCFE9FF3A
:10D13000FE0EDBCFEAFFEF50E66E80DFE552E552F0
:10D14000E552FD0EDB2ADBCFE9FFFE0E01E3DB2A11
:10D15000DBCFEAFFEF500BE0FD0EDBCFE9FFFE0E69
:10D16000DBCFEAFFEF50E66ECCDEE552EAD7E552C0
:10D17000E7CFD9FF1200D9CFE6FFE1CFD9FF050EE7
:10D18000E126030EDB6A040EDB6A020E146EFA0E51
:10D19000DBCFE7FF1450E726FA0EE7CFDBFFF90EEF
:10D1A000DB50B00FDF6EFB0EDB50B00FDF5C35E203
:10D1B000DFCFE6FF2FDEE552FA0EDB500F0BE66EF7
:10D1C00029DEE552FA0EDB380F0B0F0B1009E66E65
:10D1D00021DEE552010EDB6AFC0EDB50F36E010E20
:10D1E000DBCFF4FFF350F45C16E2030EDB2A040EEF
:10D1F00001E3DB2AFD0EDBCFF6FFDB2AFE0EDBCFE1
:10D20000F7FF01E3DB2A0800F550E66E17DEE55272
:10D21000010EDB2AE1D7DF2AC6D7050EE15C03E267
:10D2200000D0E16AE552E16EE552E7CFD9FF120086
:10D23000D9CFE6FFE1CFD9FF070EE126B00EF36E9E
:10D24000060EF3CFDBFF020E146EFD0EDBCFE7FF01
:10D250001450E726FD0EE7CFDBFF200E146EFE0E06
:10D26000DBCFE7FF1450E75EFE0EE7CFDBFF050ED6
:10D27000F36E040EF3CFDBFF050EDB6A040EDBCF8B
:10D2800014F0050EDBCF15F0153404E2145001083C
:10D29000000E155474E2060EDBCFE7FF040EDB50E0
:10D2A000E726060EE7CFDBFFDBCFE6FFB3DDE55277
:10D2B000FD0EDB500F0BE66EADDDE552FD0EDB38EB
:10D2C0000F0B0F0B100FE66EA5DDE552DE6ADD6A6F
:10D2D000DECF14F0DDCF15F0D890155004E6050E22
:10D2E000145C000E15583BE2020EDB6A030EDB6A8B
:10D2F000020EDBCF14F0030EDBCF15F0D8901550E3
:10D3000004E6030E145C000E155824E2FE0EDBCF7B
:10D3100014F0156A14BE1568050E1502F3CF15F04A
:10D320001402F3CF14F0F4501526750E1426DC0EFB
:10D330001522DE501424F66EDD501520F76E08001D
:10D34000F550E66E7BDDE552020EDB2A030E01E3AB
:10D35000DB2ACED7DF2A010E01E3DB2AB9D7B00ED4
:10D36000F36E060EF3CFDBFFFE0EDB2AE66A66DD08
:10D37000E552040EDB06050E01E2DB067FD7070E41
:10D38000E15C03E200D0E16AE552E16EE552E7CFED
:04D39000D9FF1200AF
:0CD39400D9CFE6FFE1CFD9FFE652956843
:10D3A0008D808D828A8A8D948D900000000000000F
:10D3B00000000000000000008D8000008D90000043
:10D3C0008350DF6E8D808D84E552E552E7CFD9FF23
:10D3D0001200D9CFE6FFE1CFD9FF020EE126FD0E04
:10D3E000DBCFE9FFFE0EDBCFEAFFEF50DE6EDD6A3A
:10D3F000F90EDBCFE9FFFA0EDBCFEAFFEF50E66E66
:10D40000FD0EDBCFE9FFFE0EDBCFEAFFE552E75072
:10D41000EF6EF90EDBCFE9FFFA0EDBCFEAFFDFCFCD
:10D42000EFFFFB0EDBCFE9FFFC0EDBCFEAFFEF5097
:10D43000DE6EDD6AF70EDBCFE9FFF80EDBCFEAFF29
:10D44000EF50E66EFB0EDBCFE9FFFC0EDBCFEAFF11
:10D45000E552E750EF6EF70EDBCFE9FFF80EDBCFBA
:10D46000EAFFDFCFEFFF020EE15C02E2E16AE55284
:10D47000E16EE552E7CFD9FF1200D9CFE6FFE1CF49
:10D48000D9FFE652E00EE66E0AEC67F0E55282DF65
:10D49000DF6EFE0EDB50DF1ADFCFE6FF1EEC67F01B
:10D4A000E552EE0EE66E0AEC67F0E552E552E55203
:10D4B000E7CFD9FF1200D9CFE6FFE1CFD9FFFE0EAB
:10D4C000DB50B00FE66E0AEC67F0E552020E146E08
:10D4D000FD0EDBCFE7FF1450E726FD0EE7CFDBFFA5
:10D4E000DB500F0BE66E0AEC67F0E552FD0EDB3801
:10D4F0000F0B0F0B100FE66E0AEC67F0E552E552CA
:10D50000E7CFD9FF1200D9CFE6FFE1CFD9FF040E54
:10D51000E126DF6AFD0EDB40E840E8401F0BE76EC6
:10D52000020EE7CFDBFFFD0EDB50070BE76E030EAD
:10D53000E7CFDBFF010EDB6A030EDB50070815E3C4
:10D54000FC0EDB5012E0010EF36E030EDB5004E024
:10D55000D890F336E806FCE1F350DF12010EDB2A27
:10D56000FC0EDB06030EDB2AE7D7FE0EDBCFE6FF61
:10D57000020EDBCFE6FF9FDFE552E552DFCFE6FF8D
:10D580007CDFE552FB0EDBCF14F0000EE76E1418C3
:10D59000E8AE02D0143403D0E750D880145419E216
:10D5A000FE0EDB50156E166AD890165004E6830EF8
:10D5B000155C000E16580DE2FE0EDB28E66E020E1C
:10D5C000DBCFE6FF78DFE552E552DFCFE6FF55DF40
:10D5D000E552FB0EDBCF14F0010EE76E1418E8AE37
:10D5E00002D0143403D0E750D880145411E2FE0E58
:10D5F000DB5000080DE2FE0EDB04E66E020EDBCF10
:10D60000E6FF59DFE552E552DFCFE6FF36DFE552B0
:10D61000010EDB50146E040EE15C03E200D0E16AFF
:10D62000E552E16E1450E552E7CFD9FF1200D9CF91
:10D63000E6FFE1CFD9FF020EE126010EDF6EFC0E00
:10D64000DBCF14F0000EE76E1418E8AE02D01434ED
:10D6500003D0E750D880145407E2FD0EDB500008D9
:10D6600003E2FD0EDB06DF2AFC0EDBCF14F0010E19
:10D67000E76E1418E8AE02D0143403D0E750D88017
:10D68000145408E2FD0EDB50DF24156E3F0E155CCE
:10D6900001E2DF2ADF501EE0E66ADFCFE6FFFD0E83
:10D6A000DBCFE6FFFE0EDBCFE6FF2DDFE552E552D6
:10D6B000E552E552E76E010EE7CFDBFFDB50DF5EA0
:10D6C000FD0EDBCFE7FF010EDB50E726FD0EE7CFB7
:10D6D000DBFFE0D7020EE15C02E2E16AE552E16EB7
:10D6E000E552E7CFD9FF1200D9CFE6FFE1CFD9FF4E
:10D6F000160EE126FD0EDBCF14F0FB0EDB50D880BA
:10D7000014541DE2D950FB0FE66EFF0EDA20E66ED0
:10D71000D950FC0FE66EFF0EDA20E66ED950FD0FF1
:10D72000E66EFF0EDA20E66ED950FE0FE66EFF0EB3
:10D73000DA20E66E4EDE146E080EE15E1450FB0E2B
:10D74000DBCFE6FFFD0EDB50E552E75C010FE76E35
:10D75000060EE7CFDBFFFE0EDB50F36EFC0EDBCFD9
:10D76000F4FFF350F45C14E3FC0EDBCFE6FFFE0E97
:10D77000DB50E552E75C010FE76E050EE7CFDBFFFC
:10D78000010EF36E070EF3CFDBFF080EDB6A10D03D
:10D79000FE0EDBCFE6FFFC0EDB50E552E75C010F2F
:10D7A000E76E050EE7CFDBFF070EDB68080EDB68D0
:10D7B000050EDB50F36E060EDBCFF4FFF350F45C86
:10D7C00001E2CCD0060EDB50640D0D0EF3CFDBFF73
:10D7D0000E0EF4CFDBFF050EDB50146E156A0D0E36
:10D7E000DBCF08F00E0EDBCF09F014C00DF015C032
:10D7F0000EF0C2EC72F00B0E08C0DBFF0C0E09C07D
:10D80000DBFFFE0EDB50DF6EFD0EDB50E76E010E20
:10D81000E7CFDBFF150EDB6AFC0EDB50146E156ADA
:10D8200014C008F015C009F0070EDBCF0DF0080E8C
:10D83000DBCF0EF0E8EC72F0090E06C0DBFF0A0E3B
:10D8400007C0DBFFDF50166E176A16C008F017C05E
:10D8500009F0070EDBCF0DF0080EDBCF0EF0E8EC81
:10D8600072F006C014F007C015F0090EDBCF18F0F7
:10D870000A0EDBCF19F019501518E8AE02D0153496
:10D8800004D01450185C1550195867E3640E166ED6
:10D89000176A150EDB50E76E0B0EDBCF14F00C0E83
:10D8A000DBCF15F0E7501426000E1522130E14C01E
:10D8B000DBFF140E15C0DBFF14C008F015C009F023
:10D8C00016C00DF017C00EF0C2EC72F0020E08C0C8
:10D8D000DBFF130EDBCF14F0140EDBCF15F0640E5C
:10D8E0000D6E0E6A14C008F015C009F0C2EC72F09B
:10D8F00004C014F005C015F0150E14C0DBFF020EB5
:10D90000DB5027E0FA0EDBCFE6FF020EDBCFE6FFAF
:10D91000010EDBCFE6FFDFCFE6FFF5DDE552E55296
:10D92000E552E552E76E040EE7CFDBFF020EDBCFD8
:10D93000E7FF040EDB50E75E020EE7CFDBFF010ED0
:10D94000DBCFE7FF040EDB50E726010EE7CFDBFF5E
:10D95000D6D7070EDB50DF2675D785D0050EDB50F6
:10D96000640D110EF3CFDBFF120EF4CFDBFF060EBA
:10D97000DB50146E156A110EDBCF08F0120EDBCFF0
:10D9800009F014C00DF015C00EF0C2EC72F00F0ECD
:10D9900008C0DBFF100E09C0DBFFFE0EDB50DF6EA0
:10D9A000FD0EDB50E76E010EE7CFDBFF150EDB6AE5
:10D9B000010EDBCF14F0FB0EDB50D880145453E380
:10D9C000640E166E176A150EDB50E76E0F0EDBCF76
:10D9D00014F0100EDBCF15F0E7501426000E1522C0
:10D9E000130E14C0DBFF140E15C0DBFF14C008F0CB
:10D9F00015C009F016C00DF017C00EF0C2EC72F0A1
:10DA0000030E08C0DBFF130EDBCF14F0140EDBCFC8
:10DA100015F0640E0D6E0E6A14C008F015C009F002
:10DA2000C2EC72F004C014F005C015F0150E14C05D
:10DA3000DBFF030EDBCFF3FFDB06F350000910E042
:10DA4000FA0EDBCFE6FF010EDBCFE6FFDFCFE6FF0E
:10DA5000EEDDE552E552E552070EDB50DF26E9D751
:10DA6000010EDB2AA5D7150EDB5032080CE2FA0EA8
:10DA7000DBCFE6FF010EDBCFE6FFDFCFE6FFD7DD32
:10DA8000E552E552E552160EE15C02E2E16AE5522A
:0ADA9000E16EE552E7CFD9FF120066
:06DA9A0000000000000086
:10DAA000004F00000007000700147F147F14242A91
:10DAB0007F2A122313086462364955225000050359
:10DAC0000000001C2241000041221C0014083E08F6
:10DAD0001408083E0808005030000008080808082C
:10DAE000006060000020100804023E5149453E00DD
:10DAF000427F400042615149462141454B31181453
:10DB0000127F1027454545393C4A49493001710982
:10DB100005033649494936064949291E003636006B
:10DB20000000563600000814224100141414141486
:10DB300000412214080201510906324979413E7E12
:10DB40001111117E7F494949363E414141227F41B1
:10DB500041221C7F494949417F090909013E414948
:10DB6000497A7F0808087F00417F41002040413FFB
:10DB7000017F081422417F404040407F020C027F19
:10DB80007F0408107F3E4141413E7F090909063E5E
:10DB90004151215E7F091929464649494931010110
:10DBA0007F01013F4040403F1F2040201F3F403841
:10DBB000403F631408146307087008076151494522
:10DBC00043007F41410002040810200041417F00D2
:10DBD00004020102044040404040000102040020D1
:10DBE000545454787F48444438384444442038449A
:10DBF00044487F3854545418087E0901020C52528C
:10DC0000523E7F0804047800447D40002040443D9B
:10DC1000007F1028440000417F40007C04180478F5
:10DC20007C0804047838444444387C1414140808EC
:10DC30001414187C7C080404084854545420043FED
:10DC40004440203C4040207C1C2040201C3C403074
:10DC5000403C44281028440C5050503C4464544CE0
:10DC600044000836410000007F00000041360800F3
:10DC70000201020402000F0F0F00FF0F0000FFFF60
:10DC800000F00FFFF00F0F0FF0000F0F0F0000005C
:10DC9000FF00000000FF000000F0FF00000F0F0F6A
:10DCA0000F0F00F00F0000000000F00FF00F0F0F3B
:10DCB000F0000F0F0F00F0000000FF00000FF00059
:10DCC0000F0F0FFFF00000000F000F0F0FFFFFF00E
:10DCD0000F00FF000000F0FF00000F0F0F00F0002A
:10DCE0000000FF0F0F0F0FF0FF0F0F0F0F000F0FB0
:10DCF0000F00FF000000FFFFF0F0F00000F00F0F3A
:10DD000000000F00000000FF0000000000F00F0006
:10DD10000F0F0F0FFF000F0F0F00FF000000FF0F8E
:10DD2000F0F0F00FF00F0F0FF0000F0F00000000E9
:10DD300000F00F0FF0F0F0FFF00F0F0FF0000000F9
:10DD400000000000000000000000000000000000D3
:10DD500000000000000000000000000000000000C3
:0FDD6000000000000000000000000000000000B4
:01DD6F0000B3
:10DD7000D9CFE6FFE1CFD9FF030EE12659D8736A68
:10DD8000820E726E739C94949396958C7288728AAC
:10DD9000949EE66AD0D8E552E76E020EE7CFDBFF2D
:10DDA0000000D950020FE96EDACFEAFFEF50070BFF
:10DDB000020801E00000140EE66EBDD8E552E76EE1
:10DDC000020EE7CFDBFF020EDB96DB88020EDB8064
:10DDD000DB92DB94020EDBCFE6FF140EE66E3AD840
:10DDE000E552E552010EE66EA6D8E552DE6EDD6A1A
:10DDF0000000110EE66E9FD8E552DE6EDD6A00006F
:10DE0000E66A110EE66E26D8E552E5520000110EC4
:10DE1000E66E91D8E552DE6EDD6A0000030EE15C2D
:10DE200002E2E16AE552E16EE552E7CFD9FF120066
:10DE3000550EA76EAA0EA76E0E01FF91090ECC6FAC
:10DE40000A0ED36F170EFB6F550EA76EAA0EA76EA4
:10DE5000FF811200D9CFE6FFE1CFD9FFE652DF6A9A
:10DE6000FE0EDB50140804E0FE0EDB50340806E121
:10DE7000140EE66E60D8E552E00BDF6E8B9EA49E1A
:10DE8000FE0EDB50756EA4AEFED700000000000051
:10DE90000000000000000000000000000000000082
:10DEA0000000000000000000000000000000000072
:10DEB0000000000000000000000000000000000062
:10DEC0000000000000000000000000000000000052
:10DED0000000000000000000000000000000000042
:10DEE0000000000000000000000000000000000032
:10DEF0000000000000000000000000000000000022
:10DF000000000000000000000000A49EFE0EDB5098
:10DF10000A0805E1FD0EDB507F0B756E04D0FD0E87
:10DF2000DB50DF10756EA4AEFED78B8EE552E55246
:10DF3000E7CFD9FF1200D9CFE6FFE1CFD9FF8B9E03
:10DF4000A49EFE0EDB508009756EA4AEFED70000C5
:10DF500000000000000000000000000000000000C1
:10DF600000000000000000000000000000000000B1
:10DF700000000000000000000000000000000000A1
:10DF80000000000000000000000000000000000091
:10DF90000000000000000000000000000000000081
:10DFA0000000000000000000000000000000000071
:10DFB0000000000000000000000000000000000061
:10DFC0000000000000000000000000000000A49E0F
:10DFD000756AA4AEFED78B8E755000D0E552E7CFA0
:04DFE000D9FF120053
:0CDFE400030EB16EB392B390B396B288F6
:10DFF000B28EB290B292A494B38E12002F0E926E93
:10E000000F01E00E486F1F0E496FC18EC19CC70EF5
:10E01000C1140809C16EF80EC1140209C16E498FFE
:10E02000C29CC29EC30EC2140809C26EC2801200F6
:10E03000D9DFFEEF6FF0D9CFE6FFE1CFD9FF020EB7
:10E04000E126FE0EDB500F0BF36EF346F346C30ED4
:10E05000C214F310C26EFE0EDB50EA6A600FE96E66
:10E06000000EEA22EF503F0BF36EF346F346030E29
:10E07000B114F310B16EB38EB38200000000000043
:10E080000000000000000000000000000000000090
:10E090000000000000000000000000000000000080
:10E0A0000000B392B28000000000000000000000F9
:10E0B0000000000000000000000000000000000060
:10E0C0000000000000000000000000000000B2900E
:10E0D0009E9CC2829EACFED7C3CFDEFFC4CFDDFFC5
:10E0E000DECF14F0DDCF15F014C0F3FF15C0F4FF40
:10E0F00000D0020EE15C02E2E16AE552E16EE55217
:10E10000E7CFD9FF1200D9CFE6FFE1CFD9FF030E49
:10E11000E126020EDB6A040EF36E020EDBCFF4FF83
:10E12000F350F45C21E22AD8EF6A30D80CE226D80A
:10E13000EF501F0803E122D8EF6A13D01FD8EF2A4F
:10E1400025D8F5E30ED02CD80CE218D8EF50E10812
:10E1500003E114D8EF6A05D011D8EF062BD820D8E8
:10E16000F4E3020EDB2AD7D7030EE15C02E2E16A98
:10E17000E552E16EE552E7CFD9FF1200020EDB5007
:10E18000EA6A600FE96E000EEA22120013D8DECFB1
:10E1900014F0DDCF15F0200E145C030E155812009C
:10E1A000D9CFE9FFDACFEAFF200ED880EE54030E74
:10E1B000ED541200020EDBCFE6FF3DDFE552F3CF58
:08E1C000DEFFF4CFDDFF1200C9
:08E1C800D9CFE6FFDACFE6FF34
:10E1D000FA0EE3CFD9FFFB0EE3CFDAFFFD0EE352D9
:10E1E00009E72D0EDE6EFC0EE31EE32AFD0ED8B409
:10E1F000E306E31EE652E652E652FD0EE124E76E28
:10E20000FF0EE220E46EE652F70EE3CFE6FFF70ED4
:10E21000E3CFE6FF54EC71F0F90EE124E96EFF0E56
:10E22000E220EA6E44EC71F00AE141EC71F009E1A0
:10E2300044EC71F008E141EC71F007E108D04FECDB
:10E2400071F04AEC71F04FEC71F04AEC71F04FEC68
:10E2500071F0DE6AF90EE126FF0EE222FF0EE3CF37
:10E26000DAFFE552FF0EE3CFD9FFE552FC0EE124C1
:10E27000E96EFF0EE220EA6EEECFF3FFEFCFF4FF80
:10E280001200EF380F0B1200EF500F0B02E1EE52AD
:10E29000D8841200EF380F0B300FDE6E1200EE50F4
:10E2A0000F0B300FDE6E1200FC0EE3CFE9FFFD0E08
:10E2B000E3CFEAFF100EE66EEE6AEE6AEF6AD890E0
:10E2C000FD0EE336FE0EE336ED36ED36EF36FF0E8D
:10E2D000E30609E075EC71F0EE5275EC71F0EE5268
:10E2E00075EC71F0EDD7E56E1200030EEF24E8B681
:0CE2F000EF6E300EEF24E8BEEF6E000C65
:04E2FC000101FDB16E
:10E3000022D0FD838B809490550EA76EAA0EA76E27
:10E310000E01FF910E0ED16F550EA76EAA0EA76EBD
:10E32000FF810F0EBA6ECF0EBA140009BA6EBB6A27
:10E330000F01526B800ECB6E040ECA6EA496600E57
:10E34000776E7F0E766E12000101FD91FD938B803A
:10E35000949012000101FDA109D08B50010B04E142
:10E360009450010B01E1010CFD91C8DF0101FDA3F7
:10E37000C5DFA4A63AD0A496BA50300BE842E842D2
:10E38000E842E842030819E1400EBB5C10E18B90C3
:10E390009490BA6ACA6A0E01D16B0F01526BCB68B6
:10E3A000766A7768A4960101FD81FD93010CBB2A72
:10E3B000CF0EBA140009BA6E000CBA0EE96E0F0E39
:10E3C000EA6EEF50300BE842E842E842E842E82AC1
:10E3D000E850030BF36EF46EF346F346F346F34650
:0CE3E000CF0EEF14F310EF6EF450000CA1
:04E3EC005345542021
:10E3F000414C41524D00253032753A25303275007E
:10E40000534554204441544500253032752F253062
:10E410003275005345542054494D450032202D207B
:10E420003234480031202D20313248005049434BCE
:10E4300020494E54455256414C0032202D2044690B
:10E440006769746C20436C6F636B0031202D204131
:10E450006E616C6F6720436C6F636B0035202D20FD
:10E460003132482D3234482009090034202D204112
:10E470006C61726D2020202020202020200033207D
:10E480002D205365742044617465202020202020B5
:10E490000032202D205365742054696D65202020A2
:10E4A0002020200031202D20446973706C61792078
:10E4B0004D6F6465202000434C4F434B204D454E2B
:10E4C0005500504D00414D00253032753A2530320F
:07E4D000753A25303275009A
:08E4D800D9CFE6FFDACFE6FF21
:10E4E000E1CFD9FFE2CFDAFFE652E652E652E6523A
:10E4F000D950F90F146EFF0EDA20156E020E14C0FB
:10E50000DBFF030E15C0DBFF020EDBCFE6FF030EC1
:10E51000DBCFE6FFF90EDBCFE6FFFA0EDBCFE6FF3F
:10E52000FB0EDBCFE6FFD950FC0FE66EFF0EDA20C4
:10E53000E66E25EC60F0146E070EE15C02E2E16A23
:10E54000E552E16E1450F3CFDEFFF4CFDDFFFC0E99
:10E55000DBCFE9FFFD0EDBCFEAFFEF6ADECF14F081
:10E56000DDCF15F014C0F3FF15C0F4FF040EE15C1D
:10E5700002E2E16AE552E16EE552E5CFDAFFE7CF6C
:04E58000D9FF1200AD
:0CE58400006A0EAECBEF72F00D6C0E1EA4
:10E59000E86A0E22001E09AED3EF72F0086C091E65
:10E5A000E86A0922001E35EC74F009BEE3EF72F050
:10E5B00000AE000C086C091EE86A0922046C051EF6
:10E5C000E86A0522000C00BEDAEF72F00188FF0C49
:10E5D00009C013F008C012F008500D02F4CF07F084
:10E5E000F3CF06F009500E02F4CF09F0F3CF08F094
:10E5F0000D02F3500726F4500822E86A092212504F
:10E600000E02F3500726F4500822E86A09220EAEE3
:10E610000EEF73F01250085E1350095A13AE000C3F
:0AE620000D50085E0E50095A000C60
:06E62A001E0EF66EA00EAC
:10E63000F76E000EF86E01010900F550F26F090047
:10E64000F550F36F03E1F26701D03DD00900F550BA
:10E65000ED6F0900F550EE6F0900F550EF6F0900FE
:10E660000900F550E96E0900F550EA6E090009004D
:10E670000900F550F06F0900F550F16F090009002D
:10E68000F6CFF4F1F7CFF5F1F8CFF6F1EDC1F6FFE3
:10E69000EEC1F7FFEFC1F8FF0101F05302E1F153C2
:10E6A00007E00900F550EE6EF007F8E2F107F9D740
:10E6B000F4C1F6FFF5C1F7FFF6C1F8FF0101F2075B
:08E6C000000EF35BBFD712004E
:08E6C800D9CFE6FFDACFE6FF2F
:10E6D000E1CFD9FFE2CFDAFFFB0EDBCF14F0FC0E67
:10E6E000DBCF15F00001800E15141AE1FB0EDBCF15
:10E6F000E9FFFC0EDBCFEAFFEECFF3FFEDCFF4FF37
:10E70000EE2A000EEF22F3CFE9FFF4CFEAFFFD0E71
:10E71000DBCFEFFFEF50156AF36E15C0F4FF10D09A
:10E72000FB0EDB50FE0806E1FD0EDBCFE6FF7BECC7
:10E7300074F005D0FD0EDBCFE6FF03EC50F0E552A0
:0CE74000E552E5CFDAFFE7CFD9FF120069
:04E74C0006500B0266
:10E75000F3CF02F0F4CF03F00C02F3500326000EC7
:10E76000F420046E06500D02F3500426000EF4202F
:10E77000056E06500E02F350052607500B02F350AB
:10E780000326F4500422000E052207500C02F35019
:10E790000426F450052207500D02F35005260850B8
:10E7A0000B02F3500426F450052208500C02F350DB
:0CE7B000052609500B02F350052612004C
:04E7BC00FE0EE3CF9B
:10E7C000E9FFFF0EE3CFEAFFF36AF46AEE5203E0DB
:10E7D000F34AF42AFBD71200FF0EE3CFF8FFE5520D
:10E7E000FF0EE3CFF7FFE552FF0EE3CFF6FFE55252
:10E7F000E66AE66AE66A0900F55209E0FD0EE32AD8
:10E8000005E1FE0EE32A02E1FF0EE32AF4D7FD0E36
:10E81000E3CF07F0FE0EE3CF08F0FF0EE3CF09F0E1
:02E820001200E4
:0EE82200056A046A036A026A200EE76ED89047
:10E8300006360736083609360236033604360536FC
:10E840000B50025C0C5003580D5004580E500558E4
:10E8500009E30B50025E0C50035A0D50045A0E503F
:0AE86000055A062AE72EE4D712003D
:06E86A00056A046A100EAD
:10E87000E76ED89008360936043605360D50045C2C
:10E880000E50055805E30D50045E0E50055A082A37
:06E89000E72EF0D7120094
:0AE89600F36AF46AFF0EE124E96E54
:10E8A000FF0EE220EA6EED6607D02F0EEF6404D073
:0AE8B0003A0EEF6001D0F32A1200C7
:06E8BA00C00EF36E00EE3B
:10E8C00000F00E0E01D81200EA6002D0EE6AFCD70A
:0AE8D000F350E9601200EE6AFCD775
:06E8DA001DEE00F02DEE22
:10E8E00000F0F86A019C15EC73F007EC50F09CEC1A
:06E8F0005FF0FBD71200EF
:0AE8F600FF0EE350ADBA04D0B06A83
:10E90000AC8EAD8A949CADA2FED7AE6EF36EF46A67
:02E910001200F3
:0EE91200056A080EE76ED890093605360E50DD
:0EE92000055C02E3056E092AE72EF7D7120008
:02E92E00303186
:0FE93000323334353637383961626364656600D7
:01E93F0001D6
:10E94000000000000000004043474A4D505354551A
:10E950005657595A5B5B5A5856545252504E4C4A6D
:10E960004846444242403D3A3733333231302F2F0C
:10E970002E2D2C2B2B2B2B2C2D2D2C2C2E303437BD
:10E98000393C3E3E09090A0B0C0D0E0F11131416EB
:10E99000181A1D202225282A2B2D2E3032333435EB
:10E9A000363635353535343332312F2D2A29272562
:10E9B00022201E1B181613110F0E0D0B0A0A09092F
:10E9C0000000000000000000000000000000000047
:10E9D0000000000000000000000000000000000037
:10E9E0000000000000000000000000000000000027
:10E9F0000000000000000000000000000000000017
:10EA00000000000000000000000000000000000006
:06EA100000000000000000
:01FFF800AA5E
:01FFF900F710
:01FFFA001FE7
:01FFFB00F70E
:01FFFC0063A1
:01FFFD00F80B
:01FFFE008181
:01FFFF00F110
:00000001FF
