:020000040000FA
:0600000011EF71F0120087
:08000800D7EF50F01200DACF2F
:10001000E4FFE2CFDAFFE652E552E5CFDAFF110066
:10002000D8CFE4FFE0CFE4FFE46EDACFE4FFE2CF25
:10003000DAFFE652E552E5CFDAFFE550E5CFE0FF23
:06004000E5CFD8FF10001F
:06A0000011EF71F01200E7
:02A00600120046
:06A0080007EF00F012005A
:02A00E0012003E
:06A0180010EF00F0120041
:02A01E0002003E
:10A0200087E20000000E0000BF00000007D700001C
:08A03000BF0E0000010000005A
:08A03800E4EC6CF04FEC6DF05C
:10A0400084EC6BF019EC63F0E66AFEEC63F0E55229
:10A05000120076EC6EF0000901E1FBD70F014869B0
:10A0600049691CEF50F0D9CFE6FFE1CFD9FF020ECE
:10A07000E126D59ED59CD59AD596F80ED51407091C
:10A08000D56EF2940001170E6B6F3B0E6C6F320EA3
:10A090006D6F6E6B1F0E6F6F0C0E706F716B726B4E
:10A0A0008B0EDE6EDD68DECF14F0DDCF15F015C04F
:10A0B00014F0156A14C074F0DECF14F0DDCF15F083
:10A0C00014C073F0FE0EDB5003E0F184F28AF294C8
:10A0D000020EE15C02E2E16AE552E16EE552E7CF91
:10A0E000D9FF120074C0D7FF73C0D6FFD58EF2948B
:10A0F0001200D9CFE6FFE1CFD9FF00016D51E66E26
:10A10000E66A6C51E66EE66A6B51E66EE66A010E2F
:10A11000146EE00E156E166A14C0E6FF15C0E6FF59
:10A1200016C0E6FF7E0EE66E0E0EE66EC2EC6EF018
:10A13000176E0B0EE15E1750FB0EDBCFE6FFFD0E38
:10A14000DBCFE6FF7E0EE66E0E0EE66E50EC65F09F
:10A15000E552E552E552E552E552E7CFD9FF12004C
:10A16000D9CFE6FFE1CFD9FFFE0EDB5000016E270D
:10A17000640E6E5D12E3640E6E5D6E6F6D2B3C0EB1
:10A180006D5D0BE16D6B6C2B3C0E6C5D06E16C6BD9
:10A190006B2B180E6B5D01E16B6BE552E7CFD9FFBE
:10A1A0001200D550800B01E0010E00D01200DACF72
:10A1B000E4FFE2CFDAFFE9CFE4FFEACFE4FFF6CF36
:10A1C000E4FFF7CFE4FFF5CFE4FFF3CFE4FFF4CFF4
:10A1D000E4FFFACFE4FF00EE00F0140EE80403E31E
:10A1E000EECFE4FFFBD700EE14F0070EE80403E324
:10A1F000EECFE4FFFBD7E652F29EF2A406D072DF68
:10A200000400010EE66EACDFE552F28EE55200EE80
:10A210001AF0070EE80403E3E5CFEDFFFBD700EEED
:10A2200013F0140EE80403E3E5CFEDFFFBD7E5CF11
:10A23000FAFFE5CFF4FFE5CFF3FFE5CFF5FFE5CF7C
:10A24000F7FFE5CFF6FFE5CFEAFFE5CFE9FFE5CF82
:10A25000DAFF110081B01FD00E0193CE14F094CE1E
:10A2600015F095CE16F096CE17F0932B000E942392
:10A2700095239623D8800A0E1454000E1554000E10
:10A280001654000E175406E2936B946B956B966B05
:10A29000010E926F11D00E0192050EE193519411AF
:10A2A0009511961104E1926B010E08D005D0930729
:10A2B000000E945B955B965B000E00D01200D9CF28
:10A2C000E6FFE1CFD9FF080EE126E66AE7EC6CF085
:10A2D000E552020EF3CFDBFF030EF4CFDBFFE66E99
:10A2E000E7EC6CF0E552F3CFDEFFF4CFDDFF010EBB
:10A2F000E66EE7EC6CF0E552040EF3CFDBFF050EE3
:10A30000F4CFDBFF020EE66EE7EC6CF0E552060ED2
:10A31000F3CFDBFF070EF4CFDBFF130EC26ED9CFF6
:10A32000E9FFDACFEAFF200ED880EE54030EED5499
:10A3300002E34C0E27D0D950020FE96EDACFEAFFC4
:10A34000200ED880EE54030EED5402E3520E1AD0C4
:10A35000D950040FE96EDACFEAFFC50ED880EE546B
:10A36000030EED5402E2550E0DD0D950060FE96EE2
:10A37000DACFEAFFD40ED880EE54030EED5402E299
:10A38000440E00D0146E080EE15C02E2E16AE55270
:10A39000E16E1450E552E7CFD9FF1200D9CFE6FFA6
:10A3A000E1CFD9FF1E0EE126C30EC2141009C26E02
:10A3B000C282C2B2FED7D9CFE6FFDACFE6FFC3CF63
:10A3C000E6FFC4CFE6FFB0EC6DF0E552E552E55292
:10A3D000E552B00ED880C354040EC4540AE3EE0E06
:10A3E000D880C354020EC45404E2060EF36EF46A1D
:10A3F0002CD0EE0EC35C020EC4580AE2F40ED880D4
:10A40000C354010EC45404E2050EF36EF46A1DD069
:10A41000F40EC35C010EC4580AE2FA0ED880C3548D
:10A42000000EC45404E2040EF36EF46A0ED0FA0E69
:10A43000C35C000EC45809E2000EC35C000EC45891
:10A4400004E3030EF36EF46A00D01E0EE15C02E238
:10A45000E16AE552E16EE552E7CFD9FF1200D9CFAC
:10A46000E6FFE1CFD9FF020EE126E66AFEEC63F0DB
:10A47000E552500EE66EE66A000EE66EE66A39DEDA
:10A48000E552E552E552E55289DFF3CFDEFFF4CF26
:10A49000DDFFE66AE66AF60EE66EDF0EE66E16ECA5
:10A4A00065F0E552E552E552E552E66A030EE66EC6
:10A4B000E30EE66EDF0EE66E16EC65F0E552E55251
:10A4C000E552E552E66A040EE66ED00EE66EDF0E49
:10A4D000E66E16EC65F0E552E552E552E552E66AA5
:10A4E000050EE66EBD0EE66EDF0EE66E16EC65F04E
:10A4F000E552E552E552E552E66A060EE66EAA0E10
:10A50000E66EDF0EE66E16EC65F0E552E552E552BA
:10A51000E552780EE66EDECF14F0DDCF15F0B00E0A
:10A520001424E66E3C0EE66EEAEC64F0E552E55269
:10A53000E552780EE66EDECF14F0DDCF15F014068E
:10A54000000E155AB00E1424E66E200EE66EEAECEC
:10A5500064F0E552E552E552780EE66EDECF14F077
:10A56000DDCF15F0010E1426000E1522B00E1424B6
:10A57000E66E200EE66EEAEC64F0E552E552E55236
:10A5800069DE010824E1000EDFCF08F0010EDBCF09
:10A5900009F0060E081801E1095016E0050E08182A
:10A5A00001E109500FE0040E081801E1095008E02C
:10A5B000030E081801E1095001E009D01FD807D0A7
:10A5C0001BD905D0EEDA03D015EC57F000D077DEBA
:10A5D0004C0808E1E66AFEEC63F0E552020EE15C2D
:10A5E00008E205D0AEEC5AF0D0EC5AF042D7E16A5E
:10A5F000E552E16EE552E7CFD9FF1200D9CFE6FF71
:10A60000E1CFD9FF050EE126460EDF6E030EF36E95
:10A61000010EF3CFDBFF020EDB6AE66AFEEC63F0AD
:10A62000E552780EE66E010EDBCF14F0020EDBCFA2
:10A6300015F0B00E1424E66E3C0EE66EEAEC64F003
:10A64000E552E552E552500EE66EE66A000EE66E01
:10A65000E66A4FDDE552E552E552E552E66AE66A02
:10A66000F60EE66EDF0EE66E16EC65F0E552E5528C
:10A67000E552E552E66A030EE66E990EE66EDF0ECF
:10A68000E66E16EC65F0E552E552E552E552E66AF3
:10A69000040EE66E880EE66EDF0EE66E16EC65F0D2
:10A6A000E552E552E552E5520ADEDF6E77DE030E33
:10A6B000F3CFDBFF040EF4CFDBFFD950030FE96EBD
:10A6C000DACFEAFF030EEE1801E1ED500AE0D950AF
:10A6D000030FE96EDACFEAFF040EEE1801E1ED5048
:10A6E00016E1780EE66EB40EE66E200EE66EEAEC2B
:10A6F00064F0E552E552E552780EE66EB30EE66E72
:10A700003C0EE66EEAEC64F0E552E552E552D950B3
:10A71000030FE96EDACFEAFF050EEE1801E1ED5006
:10A720000AE0D950030FE96EDACFEAFF060EEE1801
:10A7300001E1ED5016E1780EE66EB30EE66E200EE6
:10A74000E66EEAEC64F0E552E552E552780EE66E0C
:10A75000B40EE66E3C0EE66EEAEC64F0E552E552AD
:10A76000E552AEEC5AF0D0EC5AF04C0EDF5C01E151
:10A7700039D0520EDF5C35E1D950030FE96EDACFE4
:10A78000EAFF030EEE1801E1ED500AE0D950030F85
:10A79000E96EDACFEAFF040EEE1801E1ED5004E1B4
:10A7A000020E0E01006F016BD950030FE96EDACF74
:10A7B000EAFF050EEE1801E1ED500AE0D950030F53
:10A7C000E96EDACFEAFF060EEE1801E1ED5004E182
:10A7D000010E0E01006F016BE66AFEEC63F0E552BC
:10A7E00001D031D7050EE15C02E2E16AE552E16E8B
:10A7F000E552E7CFD9FF1200D9CFE6FFE1CFD9FF6D
:10A800000E0EE126460EDF6E010EDB6A020EDB6ADB
:10A81000320EF36E030EF3CFDBFF040EDB6A000192
:10A820006B51E66ED950080FE96EDACFEAFFE552B8
:10A83000E750EE6EED6A6C51E66ED9500A0FE96E84
:10A84000DACFEAFFE552E750EE6EED6A6D51E66E43
:10A85000D9500C0FE96EDACFEAFFE552E750EE6E01
:10A86000ED6AE66AFEEC63F0E552010EDBCF6DF0B7
:10A87000320EE66EE66A040EE66EE66A3ADCE552F1
:10A88000E552E552E5521BDDDF6E88DD050EF3CFA4
:10A89000DBFF060EF4CFDBFFD950050FE96EDACFF0
:10A8A000EAFF030EEE1801E1ED5033E1320EE66EE1
:10A8B000B50EE66E5F0EE66EEAEC64F0E552E55228
:10A8C000E552380EE66EB50EE66E5F0EE66EEAEC09
:10A8D00064F0E552E552E552440EE66EB50EE66EC2
:10A8E000200EE66EEAEC64F0E552E552E5524A0EBF
:10A8F000E66EB50EE66E200EE66EEAEC64F0E5520A
:10A90000E552E552320EF36E030EF3CFDBFF040E79
:10A91000DB6AD950050FE96EDACFEAFF040EEE18B4
:10A9200001E1ED5049E1320EE66EB50EE66E200E05
:10A93000E66EEAEC64F0E552E552E552380EE66E5A
:10A94000B50EE66E200EE66EEAEC64F0E552E552D6
:10A95000E552560EE66EB50EE66E200EE66EEAEC99
:10A9600064F0E552E552E5525C0EE66EB50EE66E19
:10A97000200EE66EEAEC64F0E552E552E552440E34
:10A98000E66EB50EE66E5F0EE66EEAEC64F0E5523A
:10A99000E552E5524A0EE66EB50EE66E5F0EE66EC5
:10A9A000EAEC64F0E552E552E552440EF36E030E14
:10A9B000F3CFDBFF040EDB6AD950050FE96EDACF67
:10A9C000EAFF050EEE1801E1ED5033E1560EE66E9A
:10A9D000B50EE66E5F0EE66EEAEC64F0E552E55207
:10A9E000E5525C0EE66EB50EE66E5F0EE66EEAECC4
:10A9F00064F0E552E552E552440EE66EB50EE66EA1
:10AA0000200EE66EEAEC64F0E552E552E5524A0E9D
:10AA1000E66EB50EE66E200EE66EEAEC64F0E552E8
:10AA2000E552E552560EF36E030EF3CFDBFF040E34
:10AA3000DB6AD950030FE96EDACFEAFF320EEE1867
:10AA400001E1ED5010E1550EDF5C05E1170E00014C
:10AA50006B5D01E26B2B440EDF5C05E100016B5185
:10AA6000010801E26B07D950030FE96EDACFEAFF64
:10AA7000440EEE1801E1ED5010E1550EDF5C05E1EA
:10AA80003B0E00016C5D01E26C2B440EDF5C05E1C6
:10AA900000016C51000801E26C07D950030FE96E08
:10AAA000DACFEAFF560EEE1801E1ED5026E1550E21
:10AAB000DF5C10E13B0E00016D5D0CE26D2B6D5112
:10AAC000E66ED950010FE96EDACFEAFFE552E750A2
:10AAD000EE6EED6A440EDF5C10E100016D5100087E
:10AAE0000CE26D076D51E66ED950010FE96EDACFB9
:10AAF000EAFFE552E750EE6EED6A4C0EDF5C0AE1CC
:10AB0000080EDBCF6BF00A0EDBCF6CF00C0EDBCF48
:10AB10006DF009D0520EDF5C01E105D0AEEC5AF0C9
:10AB2000D0EC5AF0A2D60E0EE15C02E2E16AE552E8
:10AB3000E16EE552E7CFD9FF1200D9CFE6FFE1CFB2
:10AB4000D9FF00017051E66EE66A6F51E66EE66A63
:10AB50007E0E146EDF0E156E166A14C0E6FF15C069
:10AB6000E6FF16C0E6FF970EE66E0E0EE66EC2EC2E
:10AB70006EF0176E090EE15E1750FB0EDBCFE6FF9D
:10AB8000FD0EDBCFE6FF970EE66E0E0EE66E50EC86
:10AB900065F0E552E552E552E552E552E7CFD9FFBF
:10ABA0001200D9CFE6FFE1CFD9FF0C0EE126460E09
:10ABB000DF6E010EF36EF3CFDBFF020EDB6A320EA7
:10ABC000F36E030EF3CFDBFF040EDB6A00016F515F
:10ABD000E66ED950080FE96EDACFEAFFE552E7508A
:10ABE000EE6EED6A7051E66ED9500A0FE96EDACF5B
:10ABF000EAFFE552E750EE6EED6AE66AFEEC63F0BE
:10AC0000E552320EE66EE66A040EE66EE66A95DFFF
:10AC1000E552E552E552E5525FEC51F0DF6ECEECC5
:10AC200051F0060EF3CFDBFF070EF4CFDBFFD95058
:10AC3000060FE96EDACFEAFF030EEE1801E1ED50E0
:10AC400033E1320EF36E030EF3CFDBFF040EDB6A4B
:10AC5000320EE66EB50EE66E5F0EE66EEAEC64F05E
:10AC6000E552E552E552380EE66EB50EE66E5F0E21
:10AC7000E66EEAEC64F0E552E552E552440EE66E0B
:10AC8000B50EE66E200EE66EEAEC64F0E552E55293
:10AC9000E5524A0EE66EB50EE66E200EE66EEAEC62
:10ACA00064F0E552E552E552D950060FE96EDACF6D
:10ACB000EAFF040EEE1801E1ED5033E1440EF36EAD
:10ACC000030EF3CFDBFF040EDB6A320EE66EB50E29
:10ACD000E66E200EE66EEAEC64F0E552E552E552CF
:10ACE000380EE66EB50EE66E200EE66EEAEC64F007
:10ACF000E552E552E552440EE66EB50EE66E5F0E85
:10AD0000E66EEAEC64F0E552E552E5524A0EE66E74
:10AD1000B50EE66E5F0EE66EEAEC64F0E552E552C3
:10AD2000E552D950030FE96EDACFEAFF320EEE1882
:10AD300001E1ED5010E1550EDF5C05E11F0E000151
:10AD40006F5D01E26F2B440EDF5C05E100016F5186
:10AD5000010801E26F07D950030FE96EDACFEAFF6D
:10AD6000440EEE1801E1ED5010E1550EDF5C05E1F7
:10AD70000C0E0001705D01E2702B440EDF5C05E1FA
:10AD800000017051010801E270074C0EDF5C07E121
:10AD90000A0EDBCF70F0080EDBCF6FF008D0520E3A
:10ADA000DF5C01E104D0DADBD0EC5AF02AD70C0EDC
:10ADB000E15C02E2E16AE552E16EE552E7CFD9FFDC
:10ADC0001200D9CFE6FFE1CFD9FF00017251E66E44
:10ADD000E66A7151E66EE66A740E146EDF0E156E49
:10ADE000166A14C0E6FF15C0E6FF16C0E6FFAB0EFC
:10ADF000E66E0E0EE66EC2EC6EF0176E090EE15EA8
:10AE00001750FB0EDBCFE6FFFD0EDBCFE6FFAB0EF0
:10AE1000E66E0E0EE66E50EC65F0E552E552E55238
:10AE2000E552E552E7CFD9FF1200D9CFE6FFE1CFD7
:10AE3000D9FF080EE126460EDF6E010EF36EF3CF4A
:10AE4000DBFF020EDB6A320EF36E030EF3CFDBFF85
:10AE5000040EDB6AE66AFEEC63F0E552320EE66E43
:10AE6000E66A040EE66EE66AACDFE552E552E552AC
:10AE7000E552CEEC51F0060EF3CFDBFF070EF4CF18
:10AE8000DBFF5FEC51F0DF6ED950060FE96EDACFD1
:10AE9000EAFF030EEE1801E1ED5033E1320EF36EDE
:10AEA000030EF3CFDBFF040EDB6A320EE66EB50E47
:10AEB000E66E5F0EE66EEAEC64F0E552E552E552AE
:10AEC000380EE66EB50EE66E5F0EE66EEAEC64F0E6
:10AED000E552E552E552440EE66EB50EE66E200EE2
:10AEE000E66EEAEC64F0E552E552E5524A0EE66E93
:10AEF000B50EE66E200EE66EEAEC64F0E552E55221
:10AF0000E552D950060FE96EDACFEAFF040EEE18CB
:10AF100001E1ED5033E1440EF36E030EF3CFDBFF9E
:10AF2000040EDB6A320EE66EB50EE66E200EE66E9D
:10AF3000EAEC64F0E552E552E552380EE66EB50EE5
:10AF4000E66E200EE66EEAEC64F0E552E552E5525C
:10AF5000440EE66EB50EE66E5F0EE66EEAEC64F049
:10AF6000E552E552E5524A0EE66EB50EE66E5F0E0C
:10AF7000E66EEAEC64F0E552E552E552D950030F73
:10AF8000E96EDACFEAFF320EEE1801E1ED5010E182
:10AF9000550EDF5C05E1170E0001715D01E2712BBA
:10AFA000440EDF5C05E100017151000801E2710708
:10AFB000D950030FE96EDACFEAFF440EEE1801E133
:10AFC000ED5010E1550EDF5C05E13B0E0001725DB6
:10AFD00001E2722B440EDF5C05E1000172510008B2
:10AFE00001E272074C0EDF5C04E10E01026B036BA1
:10AFF0000BD0520EDF5C05E1010E0E01026F036BF8
:10B0000003D0ACDACDDA2AD7080EE15C02E2E16ABD
:10B01000E552E16EE552E7CFD9FF1200D9CFE6FF46
:10B02000E1CFD9FF130EE126040EDB6A050EDB6AC1
:10B03000060EDB6A070EDB6A020EF36E080EF3CF14
:10B04000DBFF090EDB6A0A0E6BC0DBFF0B0E6CC068
:10B05000DBFF0C0E6DC0DBFF0D0EDB6A140EF36E12
:10B060000E0EF3CFDBFF300EF36E0F0EF3CFDBFFD0
:10B07000420EF36E100EF3CFDBFF5A0EF36E110E7D
:10B08000F3CFDBFF6E0EF36E120EF3CFDBFFDE6A43
:10B09000DD6ADECF14F0DDCF15F0D890155004E650
:10B0A000030E145C000E155801E34ED2D9500A0F5E
:10B0B000156EDACF16F0DE501524E96EDD5016203D
:10B0C000EA6EEFCF14F00A0E176E17C00EF014C020
:10B0D00009F02DEC71F00950E66ED950040FE96EBD
:10B0E000DACFEAFFE552E750EE6EED6AD9500A0F6B
:10B0F000156EDACF16F0DE501524E96EDD501620FD
:10B10000EA6EEFCF14F00A0E176E17C00EF014C0DF
:10B1100009F02DEC71F00550E66ED950060FE96E7E
:10B12000DACFEAFFE552E750EE6EED6A020EDB6A17
:10B13000030EDB6A020EDBCF14F0030EDBCF15F03B
:10B14000D890155004E6020E145C000E155801E369
:10B15000CAD1D950040F166EDACF17F0020E086E5E
:10B16000096ADBCF0DF0030EDBCF0EF03EEC6FF083
:10B1700016500624E96E17500720EA6EEECF14F041
:10B18000EFCF15F0090E141801E1155001E180D13F
:10B19000080E141801E1155001E155D1070E1418DD
:10B1A00001E1155001E12AD1060E141801E11550F4
:10B1B00001E1FFD0050E141801E1155001E1D4D0D2
:10B1C000040E141801E1155001E1A9D0030E141862
:10B1D00001E1155001E17ED0020E141801E1155075
:10B1E00054E0010E141801E115502AE0145001E159
:10B1F000155001E072D1D9500D0F166EDACF17F04D
:10B20000020E086E096ADECF0DF0DDCF0EF03EECC7
:10B210006FF016500624146E17500720156E020E9C
:10B22000DB501424E96E030EDB501520EA6EEF505C
:10B23000E66E200EE66EE4EC65F0E552E5524DD187
:10B24000D9500D0F166EDACF17F0020E086E096A8C
:10B25000DECF0DF0DDCF0EF03EEC6FF01650062481
:10B26000146E17500720156E020EDB501424E96E81
:10B27000030EDB501520EA6EEF50E66E240EE66EEC
:10B28000E4EC65F0E552E55228D1D9500D0F166E69
:10B29000DACF17F0020E086E096ADECF0DF0DDCFAF
:10B2A0000EF03EEC6FF016500624146E1750072077
:10B2B000156E020EDB501424E96E030EDB501520D0
:10B2C000EA6EEF50E66E280EE66EE4EC65F0E552AD
:10B2D000E55203D1D9500D0F166EDACF17F0020EDA
:10B2E000086E096ADECF0DF0DDCF0EF03EEC6FF098
:10B2F00016500624146E17500720156E020EDB50F0
:10B300001424E96E030EDB501520EA6EEF50E66E52
:10B310002C0EE66EE4EC65F0E552E552DED0D95035
:10B320000D0F166EDACF17F0020E086E096ADECF27
:10B330000DF0DDCF0EF03EEC6FF016500624146ECB
:10B3400017500720156E020EDB501424E96E030E11
:10B35000DB501520EA6EEF50E66E300EE66EE4EC40
:10B3600065F0E552E552B9D0D9500D0F166EDACF1F
:10B3700017F0020E086E096ADECF0DF0DDCF0EF079
:10B380003EEC6FF016500624146E17500720156E11
:10B39000020EDB501424E96E030EDB501520EA6E1A
:10B3A000EF50E66E340EE66EE4EC65F0E552E552E1
:10B3B00094D0D9500D0F166EDACF17F0020E086E2A
:10B3C000096ADECF0DF0DDCF0EF03EEC6FF01650C7
:10B3D0000624146E17500720156E020EDB5014243D
:10B3E000E96E030EDB501520EA6EEF50E66E380E64
:10B3F000E66EE4EC65F0E552E5526FD0D9500D0FE2
:10B40000166EDACF17F0020E086E096ADECF0DF065
:10B41000DDCF0EF03EEC6FF016500624146E175080
:10B420000720156E020EDB501424E96E030EDB506C
:10B430001520EA6EEF50E66E3C0EE66EE4EC65F029
:10B44000E552E5524AD0D9500D0F166EDACF17F0FB
:10B45000020E086E096ADECF0DF0DDCF0EF03EEC75
:10B460006FF016500624146E17500720156E020E4A
:10B47000DB501424E96E030EDB501520EA6EEF500A
:10B48000E66E400EE66EE4EC65F0E552E55225D03E
:10B49000D9500D0F166EDACF17F0020E086E096A3A
:10B4A000DECF0DF0DDCF0EF03EEC6FF0165006242F
:10B4B000146E17500720156E020EDB501424E96E2F
:10B4C000030EDB501520EA6EEF50E66E440EE66E7A
:10B4D000E4EC65F0E552E55200D0020EDB2A030EE3
:10B4E00001E3DB2A27D6280EE66EB30EE66E6F0E5A
:10B4F000E66EEAEC64F0E552E552E552280EE66E9F
:10B50000B40EE66E6F0EE66EEAEC64F0E552E552BC
:10B51000E552540EE66EB30EE66E6F0EE66EEAEC82
:10B5200064F0E552E552E552540EE66EB40EE66E56
:10B530006F0EE66EEAEC64F0E552E552E552DF2A62
:10B54000010E01E3DB2AA5D5130EE15C02E2E16AFC
:10B55000E552E16EE552E7CFD9FF1200170E000168
:10B560006B5D1DE13B0E6C5D1AE13B0E6D5D17E1FD
:10B570006B6B6C6B6D6B1F0E6F5D0AE1010E6F6F75
:10B580000C0E705D03E1010E706F01D0702B02D0C4
:10B590006F296F6F0C0E705D02E1010E706F12006B
:10B5A0000E01010E021901E1035118E100016B5176
:10B5B000715D14E16C51725D11E16D5114080EE37F
:10B5C0002AEC51F0000906E00E01026B036BF36AEE
:10B5D000F46A04D0E66AFEEC63F0E5521200010E54
:10B5E000E66E050EE66E400EE66EE66AE66E40EC2E
:10B5F00068F0146E050EE15E1450010EE66E200E2A
:10B60000E66E670EE66E200EE66E600EE66E40ECAD
:10B6100068F0146E050EE15E1450010EE66E3B0EEE
:10B62000E66E400EE66EE66EE66E40EC68F0146E76
:10B63000050EE15E1450010EE66E200EE66E220E3F
:10B64000E66E200EE66E1B0EE66E40EC68F0146EA1
:10B65000050EE15E1450E66A0C0EE66E610EE66EB3
:10B66000120EE66E5B0EE66E40EC68F0146E050E90
:10B67000E15E1450E66A330EE66E610EE66E2D0E44
:10B68000E66E5B0EE66E40EC68F0146E050EE15E51
:10B690001450E66A330EE66E1F0EE66E2D0EE66E51
:10B6A000250EE66E40EC68F0146E050EE15E145057
:10B6B000E66A0C0EE66E1F0EE66E120EE66E250EA4
:10B6C000E66E40EC68F0146E050EE15E1450120058
:10B6D000D9CFE6FFE1CFD9FF020EE126E66AFEEC04
:10B6E00063F0E55200016B5101E18DD0170A01E1D1
:10B6F00086D0010A01E17FD0030A01E178D0010A76
:10B7000072E0070A6CE0010A66E0030A60E0010AE1
:10B710005AE01F0A54E0010A4EE0030A48E0010A19
:10B7200043E0070A3DE0010A37E0030A31E0010A7D
:10B730002BE00F0A25E0010A1FE0030A19E0010AC5
:10B7400013E0070A0DE0010A07E0030A01E05ED0FA
:10B75000050EDE6EDD6A5AD00A0EDE6EDD6A56D048
:10B760000F0EDE6EDD6A52D0140EDE6EDD6A4ED034
:10B77000190EDE6EDD6A4AD01E0EDE6EDD6A46D020
:10B78000230EDE6EDD6A42D0280EDE6EDD6A3ED00C
:10B790002D0EDE6EDD6A3AD0320EDE6EDD6A36D0F8
:10B7A000370EDE6EDD6A32D0DE6ADD6A2FD0050E1E
:10B7B000DE6EDD6A2BD00A0EDE6EDD6A27D00F0E3C
:10B7C000DE6EDD6A23D0140EDE6EDD6A1FD0190E28
:10B7D000DE6EDD6A1BD01E0EDE6EDD6A17D0230E14
:10B7E000DE6EDD6A13D0280EDE6EDD6A0FD02D0E00
:10B7F000DE6EDD6A0BD0320EDE6EDD6A07D0370EEC
:10B80000DE6EDD6A03D0DE6ADD6A00D0E66A6D5165
:10B81000EA6A410FE96E0E0EEA22EF50E66E6D51B4
:10B82000EA6A040FE96E0E0EEA22EF50E66E200E71
:10B83000E66E400EE66E40EC68F0146E050EE15EBA
:10B840001450010EE66E00016C51EA6A410FE96E78
:10B850000E0EEA22EF50E66E6C51EA6A040FE96EB2
:10B860000E0EEA22EF50E66E200EE66E400EE66EF9
:10B8700040EC68F0146E050EE15E1450020EE66EA8
:10B88000DECFE9FFDDCFEAFF410EE9260E0EEA2208
:10B89000EF50E66EDECFE9FFDDCFEAFF040EE926CA
:10B8A0000E0EEA22EF50E66E200EE66E400EE66EB9
:10B8B00040EC68F0146E050EE15E1450020EE15C7F
:10B8C00002E2E16AE552E16EE552E7CFD9FF1200EC
:10B8D000D9CFE6FFE1CFD9FF030EE12629EC50F0E6
:10B8E000010EE66E33EC50F0E552F28ED08E72EC23
:10B8F00050F0C080D1EC50F0000952E00E01010E72
:10B90000001901E1015121E15F0EE66EE66A070EC2
:10B91000E66EE66A9DEC55F0E552E552E552E552D9
:10B920000EEC58F01BDE0E01010E021901E103516D
:10B930000BE1000EE66EE66AE66EE66AE1EC56F0B2
:10B94000E552E552E552E55220D0C2DE07DE47DE81
:10B95000000EE66EE66A070EE66EE66A9DEC55F0AE
:10B96000E552E552E552E5520E01010E021901E1E0
:10B9700003510BE1000EE66EE66AE66EE66AE1EC64
:10B9800056F0E552E552E552E5522AEC51F0E76EE9
:10B99000020EE7CFDBFFDB0402E12FEC52F000DE0A
:10B9A000A9D7030EE15C02E2E16AE552E16EE552DD
:06B9B000E7CFD9FF1200F1
:0AB9B60017EC62F0FB0EDBCFF3FF8D
:10B9C000DB06F35000090AE065EC62F0FA0ED0ECF9
:10B9D00062F0F3E1151CF1E1010E01D0000E46EF1B
:10B9E00062F017EC62F03B0EE12402E3E168E652FC
:10B9F000E16E010EDB6A020EDB6AF90EDBCFF6FFA9
:10BA0000FA0EDBCFF7FFFB0EDBCFF8FF0800F55097
:10BA1000DF6EDF5002E16AEF61F0250EDF5C02E0CD
:10BA20005DEF61F0030EDB6A040EDB6A050EDB6A74
:10BA3000060EDB6A070EDB6A7FEC61F02D0EDF5C21
:10BA40000CE02B0EDF5C09E0200EDF5C06E0230E2D
:10BA5000DF5C03E0300EDF5C1AE1DF50300A14E0F7
:10BA6000130A0FE0030A0AE00B0A05E0060AE4E104
:10BA7000030EDB80E1D7030EDB82DED7030EDB840F
:10BA8000DBD7030EDB86D8D7030EDB88D5D72A0E8B
:10BA9000DF5C1BE17BEC61F0C9EC61F010E0030EB0
:10BAA000DB8008680968130EDBCF0DF0140EDBCFC6
:10BAB0000EF03EEC6FF0040E06C0DBFF03D0130E59
:10BAC000B2EC61F07FEC61F00BD0090EDB6A20EC88
:10BAD00062F003E094EC62F0FAD7090EB2EC61F088
:10BAE000030EDBB0DB982E0EDF5C1BE17FEC61F018
:10BAF0002A0EDF5C0BE17BEC61F0C9EC61F003E145
:10BB0000130E04EC62F07FEC61F00BD0090EDB6ADF
:10BB100020EC62F003E094EC62F0FAD7090E04EC3A
:10BB200062F0680EDF5C07E17FEC61F0680EDF5CBD
:10BB30001DE1030E18D0740EDF5C17E07A0EDF5C97
:10BB400014E0480EDF5C06E0540EDF5C03E05A0EA2
:10BB5000DF5C02E1020E07D06C0EDF5C03E06A0ED0
:10BB6000DF5C04E1010E57EC62F0C9DBDF506E0AC6
:10BB700001E17FD31E0A01E192D1200A01E18FD1B8
:10BB80003F0A01E149D11A0A01E146D10D0A01E15A
:10BB900043D1200A01E140D13A0A01E13DD1200A16
:10BBA00001E13AD1260A01E135D10D0A01E132D194
:10BBB0001A0A01E1D9D0200A4AE0300A1FE0460AF9
:10BBC0000EE0250A01E083D3D950F90FE96EFF0E8C
:10BBD000DA20EA6E010EEE5E000EEE5AEE5A65ECC9
:10BBE00062F0250EE66E95DB03E1151C01E169D3D9
:10BBF00061EC62F001E26BD3DB2A69D3080EDB6AE9
:10BC0000040EDB50010806E2040EDB0429EC62F0AE
:10BC1000DB508BDB080EDB5009E0030EDB50010B21
:10BC200005E172DB01E04DD3080EDB6A64DBEFCF88
:10BC3000DFFFD9EC62F003E1151C01E142D361ECB6
:10BC400062F001E3DB2A60DB01E141D33AD3070E66
:10BC5000DB5002080FE1A5EC62F0030E6CEC62F021
:10BC60000E0EEECFDBFF0F0EEECFDBFF100EEECF92
:10BC7000DBFF20D0F70EDBCF17F0F80EDBCF18F08C
:10BC8000020E175E000E185AF70E17C0DBFFF80EF3
:10BC900018C0DBFF17C0E9FF18C0EAFF5CEC62F0D8
:10BCA000166A0E0E14C0DBFF0F0E15C0DBFF100E60
:10BCB00016C0DBFF0E0EDBCFE6FF0F0EDBCFE6FF7D
:10BCC000100EDBCFE6FF90EC70F0E552E552E55246
:10BCD000130E07C0DBFF140E08C0DBFF060EDB509F
:10BCE00005E0130EA0EC62F001E26ADBC4EC62F046
:10BCF00002E2130E37DB87EC62F006E0040EA0ECE4
:10BD000062F002E2050E2EDB030EDBB005D0FCDA9A
:10BD100001E0D7D2080EDB6A090EDB6A0E0EDBCF1C
:10BD2000F6FF0F0EDBCFF7FF100EDBCFF8FF08009A
:10BD3000F550DF6EDF5014E0CAEC62F011E2D9EC8E
:10BD400062F003E1151C01E1BCD2BBDB01E3DB2A9D
:10BD5000090EDB2AD9500E0FE96E000ECBDBE7D7B8
:10BD6000D3DA01E1B4D2ADD2C6DA110EEECFDBFFE9
:10BD7000120EEDCFDBFF110EDBCFE6FF120EDBCF95
:10BD8000E6FF82EC70F0E552E552130EF3CFDBFFD5
:10BD9000140EF4CFDBFF060EDB5004E0130ED0DBF5
:10BDA00001E20EDBC4EC62F002E2130EDBDAAFDB81
:10BDB00005E0040EC5DB02E2050ED4DA030EDBB0AB
:10BDC00005D0A2DA01E07DD2080EDB6A090EDB6A3B
:10BDD000110EDBCFE9FF120EDBCFEAFFEFCFDFFF63
:10BDE000DF5014E0D7DB12E2E4DB03E1151C01E1D4
:10BDF00068D267DB01E3DB2A090EDB2A110EDB2A9E
:10BE0000DBCFE9FF120EE8E3DB2AE6D77DDA01E1BA
:10BE10005ED257D2030EDB8E070EDB0410E195DBFA
:10BE2000040E5ADB0A0EEECFDBFF0B0EEECFDBFF6C
:10BE30000C0EEECFDBFF0D0EEECFDBFF6CD0070E4E
:10BE4000DB5003082CE1030EDBAE0DD0B2DA020E9C
:10BE500076DAEFCF14F0156A166A176A14AE39D085
:10BE60001568166835D0F70EDBCF15F0F80EDBCF6E
:10BE700016F0020E155E000E165AF70E15C0DBFF07
:10BE8000F80E16C0DBFF15C0E9FF16C0EAFFEFCFC2
:10BE900014F00A0E14C0DBFF0B0EDB6A38D0070E5D
:10BEA000DB50020809E1030EDBAE04D059DB16AE0D
:10BEB00010D00ED055DB0DD0030EDBAE12D079DAE8
:10BEC000020E3DDAF9DA166A176A15AE02D0166864
:10BED0001768E2DA0C0E16C0DBFF0D0E17C0DBFF91
:10BEE0001AD0F70EDBCF16F0F80EDBCF17F0020EEC
:10BEF000165E000E175AF70E16C0DBFFF80E17C0BD
:10BF0000DBFF16C0E9FF17C0EAFFD6DAC5DA0C0E70
:10BF1000DB6A0D0EDB6A060EDB5005E1010EF36EE7
:10BF2000050EF3CFDBFF150EDB6A160EDB6AD95068
:10BF3000370F146E000EDA20156E390E14C0DBFFB9
:10BF40003A0E15C0DBFF380EDB6A080EDB6A0A0EFC
:10BF5000AEDADF50780A12E0200A10E0280A0CE07E
:10BF6000200A0AE03F0A06E00D0A02E0200A08E182
:10BF7000020E05D0080E03D0080EDF26100E97DA49
:10BF8000030EDBBE02D0DB92DB94DB50800B24E09F
:10BF90008ADAD890030EEB50000A08E6000EEE5C39
:10BFA000000EEE58000EEE58000EEE5815E213DAB1
:10BFB0000B680C680D680E684AEC70F00A0E02C03F
:10BFC000DBFF0B0E03C0DBFF0C0E04C0DBFF0D0E0E
:10BFD00005C0DBFF2D0E08D0030EDBA202D02B0E16
:10BFE00003D0DBA408D0200EF36E170EF3CFDBFFD7
:10BFF000150EDB2A02D0170EDB6A050EDB5003E1BB
:10C00000B7D901E189D0760E146EE20E156E000EDE
:10C01000166E070EDBCF17F0186A196A1A6A17C076
:10C020000BF018C00CF019C00DF01AC00EF0D3D9E7
:10C03000B5EC70F014500224F36E15500320F46E2A
:10C0400016500420F86EF4CFF7FFF3CFF6FF080088
:10C05000090EF5CFDBFF580EDF5C0FE1610EF36ECA
:10C06000090E7BD90AE3200E146E090EDBCFE7FF21
:10C070001450E75E090EE7CFDBFF070EDBCF14F0AD
:10C08000156A166A176A0FDA14C00BF015C00CF0A7
:10C0900016C00DF017C00EF0EECF06F0EECF07F091
:10C0A000EECF08F0EFCF09F0B5EC70F009C0EDFF6E
:10C0B00008C0EDFF07C0EDFF06C0EFFF390EDBCF74
:10C0C000E9FFDB063A0EDBCFEAFF01E2DB06090EF1
:10C0D000DBCFEFFF150EDB2A4BD995E1030EDBA674
:10C0E0001DD06F0EDF5C06E1C1D918E3150EDB2809
:10C0F0005BDA14D0780EDF5C09E0580EDF5C06E0F6
:10C10000620EDF5C03E0420EDF5C08E1020EF36EBC
:10C11000160EF3CFDBFF02D0150EDB6A030EDB50E9
:10C12000100B0EE0040EDBCF14F0050EDB50D880B0
:10C13000145406E2060EDB5003E1040EDB5034DA41
:10C1400095D90AE2050EDBCFE7FF150EDB50E75E5F
:10C15000050EE7CFDBFF02D0050EDB6A040EDBCF56
:10C1600014F0160E45D9D880145414E2160EDBCF05
:10C17000E6FF150EDBCFE6FF040EDBCFE6FF050E74
:10C18000DB50E552E75CE552D880E754E552D880B1
:10C19000E7545FD9030EDB50010B0BE1080EDB50B7
:10C1A00008E0B2D801E08DD0080EDB50BED8080EF2
:10C1B000DB6A170EDB5007E088D9170EF1D903E1CF
:10C1C000151C01E17ED0160EDB5016E07ED9300E34
:10C1D000E66E9FD802E1151C74E077D9DFCFE6FF49
:10C1E00008EC70F0E552E552E552F4CF15F000018D
:10C1F000F31C02E1151C65E0050EDBCF14F0160EF2
:10C20000DB50D880145409E2050EDBCFE7FF160E91
:10C21000DB50E75E050EE7CFDBFF300EE66E050E66
:10C22000CBD94FE1390EDB2ADBCFE9FF3A0E01E330
:10C23000DB2ADBCFEAFF090EEFCFDBFFDB500EE09E
:10C2400044D9090EADD902E1151C3BE0390EDB2AB9
:10C25000DBCFE9FF3A0EEDE3DB2AEBD755D831E12E
:10C26000160EDBCFE6FF080EC3D8E552E7245DD8F3
:10C270002ED0070EDB50030A1CE0010A14E0030A6B
:10C2800007E07BD9DBCFEEFF020EDBCFEDFF1FD047
:10C29000F5D8196A17AE02D0186819682CD8BCD81E
:10C2A00019C0EEFF14D0EAD817BE186824D8B4D845
:10C2B0000ED063D9DBCFEFFF0AD07BD905E1151C87
:10C2C00003E1F368F46810D0FCD801E3DB2A79D9E4
:10C2D00006EF5DF0010EDBCF14F0020EDBCF15F0A0
:10C2E00014C0F3FF15C0F4FF3B0EE15C02E2E16A0B
:10C2F000E552E16ECBD029D9020E6CEF62F061D924
:10C300000800F550DF6E1200200EE66E080EDCEF1E
:10C3100062F008EC70F0E552E552E552F3CF14F00C
:10C32000F4CF15F00001F31C1200146E156AD950F9
:10C33000010F4DD91450EE261550ED221200185E53
:10C34000000E195AF70E18C0DBFFF80E19C0DBFFFC
:10C3500018C0E9FF19C0EAFF1200DBCFF4FFF35069
:10C36000F45C1200DB50E76E040EE7CFDBFF120037
:10C370000A0EDBCF14F00B0EDBCF15F00C0EDBCF6B
:10C3800016F00D0EDBCF17F0145015101610171005
:10C390001200130EEECFDBFF140EEDCFDBFF130EFA
:10C3A000DBCF14F0140EDBCF15F00001800E151456
:10C3B0001200F70EDBCF18F0F80EDBCF19F01200E9
:10C3C000050EDB50E66ED950130F01D9E552E75048
:10C3D000EE6EED6A12000A0EDBCF06F00B0EDBCF1D
:10C3E00007F00C0EDBCF08F00D0EDBCF09F01200CA
:10C3F000DBCFE6FF150EDBCFE6FF050EDB50E55287
:10C40000E724E552E7241200DB50CED8010EF36E8C
:10C41000060EF3CFDBFF1200EE50EFCFEAFFE96E1E
:10C4200016C0EEFF17C0EEFF18C0EEFF1200D9CF06
:10C43000E6FFDACFE6FFE1CFD9FFE2CFDAFF120065
:10C44000DFCFE6FFE66AEFEC70F0E552E552F3501D
:10C450001200E76E080EE7CFDBFF1200EECF14F0FC
:10C46000EECF15F0EFCF16F0176A1200050EDBCFF6
:10C4700014F0150EDB50D88014541200010EDBCFDF
:10C4800016F0020EDBCF17F0186A1200E552E5CF66
:10C49000DAFFE7CFD9FF12000A0E14C0DBFF0B0E44
:10C4A00015C0DBFF1200D9500A0FE7EF62F0F36E00
:10C4B000070EF3CFDBFF1200EECF14F0EFCF15F035
:10C4C0001200010EDB2A020E1200FC0EDBCFE6FF8B
:10C4D000FD0EDBCFE6FF1200145E000E155AF70EBC
:10C4E00014C0DBFFF80E15C0DBFF14C0E9FF15C058
:10C4F000EAFF1200DA20EA6EEF2AEECFF6FF000E16
:10C50000EF22EECFF7FFEF22EECFF8FF1200040E7E
:10C51000DBCFE6FF130EDB50E552E75C9ADFDB5022
:10C5200004DF060EDB501200090EDB500A0DF3503B
:10C53000DF24D00FE76E090EE7CFDBFF7FEF61F05E
:10C54000DB50F36E050EADEF61F0F70EDBCF14F0AC
:10C55000F80EDBCF15F01200DFCFE6FF89EF61F0B8
:10C5600028DF030EECDE2EEF62F0DBEC5CF0E55230
:10C57000E552E552E55200091200BDDEEE50EFCF64
:10C58000EAFFE96E010E1200130EDB50F36E040E8B
:10C59000ADEF61F0040EDB50F36E090EADEF61F00C
:10C5A000DBCFE6FF89EF61F0E76E050EE7CFDBFF3B
:10C5B00012008BDFACEF62F0DBCFE6FF86DFB5EF7A
:10C5C00062F0D950F90FE96EFF0E7AEF62F0E96E72
:08C5D000000EDA20EA6E1200F1
:08C5D800D9CFE6FFE1CFD9FF46
:10C5E000020EE126FD0EDBCF14F0DB06FE0EDBCFE4
:10C5F00015F001E2DB061450151011E0DE6ADD6A69
:10C60000DECF14F0DDCF15F0E30E145C0D0E1558DF
:10C6100005E2DF2A010E01E3DB2AF2D7E3D7020E9F
:10C62000E15C02E2E16AE552E16EE552E7CFD9FF53
:10C630001200D9CFE6FFE1CFD9FF060EE1268D9299
:10C6400096928D9096908D8496948A9A939A8C92D5
:10C65000DE6ADE6ADE6ADD6ADD52DD52D9CFE9FFCD
:10C66000DACFEAFF640EEE5C000EEE58000EEE58D4
:10C67000000EEE580AE2D9CFE9FFDACFEAFFEE2A40
:10C68000000EEE22EE22EE22E9D78C82DE6ADE6A0E
:10C69000DE6ADD6ADD52DD52D9CFE9FFDACFEAFF8B
:10C6A000640EEE5C000EEE58000EEE58000EEE58D2
:10C6B0000AE2D9CFE9FFDACFEAFFEE2A000EEE2236
:10C6C000EE22EE22E9D7AE0EE66E70D8E552DB0E12
:10C6D000E66E6CD8E552230EE66E68D8E552D90EA8
:10C6E000E66E64D8E552220EE66E60D8E552A10EE1
:10C6F000E66E5CD8E552C80EE66E58D8E552DA0E02
:10C70000E66E54D8E552120EE66E50D8E552A80EE9
:10C71000E66E4CD8E5523F0EE66E48D8E552D50E8F
:10C72000E66E44D8E552A00EE66E40D8E552810E82
:10C73000E66E3CD8E552600EE66E38D8E552D30E70
:10C74000E66E34D8E552E66A31D8E552A60EE66EBA
:10C750002DD8E552AD0EE66E29D8E5528B0EE66E69
:10C7600025D8E552AF0EE66E21D8E5520A0EE66EE8
:10C77000E66A32DFE552E552A40EE66E17D8E552BE
:10C78000400EE66E13D8E552020EE66E0FD8E55263
:10C79000100EE66E0BD8E552060EE15C02E2E16A8D
:10C7A000E552E16EE552E7CFD9FF1200D9CFE6FF9F
:10C7B000E1CFD9FF956AFE0EDB508C6E8D808D82A5
:10C7C0008A9A8D948D928D828D849568E552E7CFFB
:10C7D000D9FF1200D9CFE6FFE1CFD9FF956AFE0E4F
:10C7E000DB508C6E8D808D828A8A8D948D928D82A5
:10C7F0008D849568E552E7CFD9FF1200D9CFE6FFC7
:10C80000E1CFD9FF020EE126B00EDF6EB80EDF5C7D
:10C8100023E2DFCFE6FFCADFE552020EE66EC6DF97
:10C82000E552100EE66EC2DFE552010EDB6ADB5008
:10C83000146E156AD890155004E6840E145C000E30
:10C84000155808E2FE0EDBCFE6FFC4DFE552010E0D
:10C85000DB2AEDD7DF2ADAD7020EE15C03E200D053
:10C86000E16AE552E16EE552E7CFD9FF1200D9CF78
:10C87000E6FFE1CFD9FF640EE66EFD0EDBCFE6FFEB
:10C880003C0EE66EE66AD2D8E552E552E552E55234
:10C8900000D0E552E7CFD9FF1200D9CFE6FFE1CFB4
:10C8A000D9FF200E146EFE0EDBCFE7FF1450E75EBB
:10C8B000FE0EE7CFDBFFDBCFF6FFF76AF6BEF768C9
:10C8C000050EF702F3CFF7FFF602F3CFF6FFF450B1
:10C8D000F726320EF626D40EF7220800F550E66E43
:10C8E00079DFE552FE0EDBCFF6FFF76AF6BEF7689A
:10C8F000050EF702F3CFF7FFF602F3CFF6FFF45081
:10C90000F726320EF626D40EF722010EF626000E7A
:10C91000F7220800F550E66E5DDFE552FE0EDBCF34
:10C92000F6FFF76AF6BEF768050EF702F3CFF7FFDA
:10C93000F602F3CFF6FFF450F726320EF626D40EA9
:10C94000F722020EF626000EF7220800F550E66EDA
:10C9500041DFE552FE0EDBCFF6FFF76AF6BEF76861
:10C96000050EF702F3CFF7FFF602F3CFF6FFF45010
:10C97000F726320EF626D40EF722030EF626000E08
:10C98000F7220800F550E66E25DFE552FE0EDBCFFC
:10C99000F6FFF76AF6BEF768050EF702F3CFF7FF6A
:10C9A000F602F3CFF6FFF450F726320EF626D40E39
:10C9B000F722040EF626000EF7220800F550E66E68
:10C9C00009DFE552E66A06DFE55200D0E552E7CF1F
:10C9D000D9FF1200D9CFE6FFE1CFD9FFE652FD0E15
:10C9E000DBCFE6FFE3DEE552020E146EFC0EDBCF7A
:10C9F000E7FF1450E726FC0EE7CFDBFFDB500F0B01
:10CA0000E66ED4DEE552FC0EDB380F0B0F0B100F79
:10CA1000E66ECCDEE552FE0EDBCFE6FF3EDFE552F2
:10CA200000D0E552E552E7CFD9FF1200D9CFE6FF9B
:10CA3000E1CFD9FFFC0EDB50B00FE76EFC0EE7CF65
:10CA4000DBFFFB0EDBCFE6FFFC0EDBCFE6FFFD0ED0
:10CA5000DBCFF6FFFE0EDBCFF7FF0800F550E66EEA
:10CA6000B9DFE552E552E552FD0EDB2ADBCFF6FFDA
:10CA7000FE0E01E3DB2ADBCFF7FF0800F5500CE0E8
:10CA8000FD0EDBCFF6FFFE0EDBCFF7FF0800F55003
:10CA9000E66E03DFE552E8D7E552E7CFD9FF120093
:10CAA000D9CFE6FFE1CFD9FFFC0EDB50B00FE76E28
:10CAB000FC0EE7CFDBFFFB0EDBCFE6FFFC0EDBCF90
:10CAC000E6FFFD0EDBCFE9FFFE0EDBCFEAFFEF5006
:10CAD000E66E80DFE552E552E552FD0EDB2ADBCF44
:10CAE000E9FFFE0E01E3DB2ADBCFEAFFEF500BE0AC
:10CAF000FD0EDBCFE9FFFE0EDBCFEAFFEF50E66E67
:10CB0000CCDEE552EAD7E552E7CFD9FF1200D9CF04
:10CB1000E6FFE1CFD9FF050EE126030EDB6A040E26
:10CB2000DB6A020E146EFA0EDBCFE7FF1450E72625
:10CB3000FA0EE7CFDBFFF90EDB50B00FDF6EFB0E16
:10CB4000DB50B00FDF5C35E2DFCFE6FF2FDEE552D2
:10CB5000FA0EDB500F0BE66E29DEE552FA0EDB38DB
:10CB60000F0B0F0B1009E66E21DEE552010EDB6A9A
:10CB7000FC0EDB50F36E010EDBCFF4FFF350F45CE0
:10CB800016E2030EDB2A040E01E3DB2AFD0EDBCFE7
:10CB9000F6FFDB2AFE0EDBCFF7FF01E3DB2A0800FE
:10CBA000F550E66E17DEE552010EDB2AE1D7DF2AEB
:10CBB000C6D7050EE15C03E200D0E16AE552E16E02
:10CBC000E552E7CFD9FF1200D9CFE6FFE1CFD9FF79
:10CBD000070EE126B00EF36E060EF3CFDBFF020E5A
:10CBE000146EFD0EDBCFE7FF1450E726FD0EE7CFF6
:10CBF000DBFF200E146EFE0EDBCFE7FF1450E75E66
:10CC0000FE0EE7CFDBFF050EF36E040EF3CFDBFF66
:10CC1000050EDB6A040EDBCF14F0050EDBCF15F03A
:10CC2000153404E214500108000E155474E2060E87
:10CC3000DBCFE7FF040EDB50E726060EE7CFDBFF76
:10CC4000DBCFE6FFB3DDE552FD0EDB500F0BE66EEA
:10CC5000ADDDE552FD0EDB380F0B0F0B100FE66E4E
:10CC6000A5DDE552DE6ADD6ADECF14F0DDCF15F01A
:10CC7000D890155004E6050E145C000E15583BE2E2
:10CC8000020EDB6A030EDB6A020EDBCF14F0030E2A
:10CC9000DBCF15F0D890155004E6030E145C000E9F
:10CCA000155824E2FE0EDBCF14F0156A14BE156889
:10CCB000050E1502F3CF15F01402F3CF14F0F45063
:10CCC00015260D0E1426D60E1522DE501424F66EEF
:10CCD000DD501520F76E0800F550E66E7BDDE5525D
:10CCE000020EDB2A030E01E3DB2ACED7DF2A010E78
:10CCF00001E3DB2AB9D7B00EF36E060EF3CFDBFFEC
:10CD0000FE0EDB2AE66A66DDE552040EDB06050E42
:10CD100001E2DB067FD7070EE15C03E200D0E16AA7
:0CCD2000E552E16EE552E7CFD9FF1200AA
:04CD2C00D9CFE6FF76
:10CD3000E1CFD9FFE65295688D808D828A8A8D94E5
:10CD40008D900000000000000000000000000000C6
:10CD50008D8000008D9000008350DF6E8D808D846B
:10CD6000E552E552E7CFD9FF1200D9CFE6FFE1CF78
:10CD7000D9FF020EE126FD0EDBCFE9FFFE0EDBCF71
:10CD8000EAFFEF50DE6EDD6AF90EDBCFE9FFFA0E47
:10CD9000DBCFEAFFEF50E66EFD0EDBCFE9FFFE0EC4
:10CDA000DBCFEAFFE552E750EF6EF90EDBCFE9FF8C
:10CDB000FA0EDBCFEAFFDFCFEFFFFB0EDBCFE9FFA1
:10CDC000FC0EDBCFEAFFEF50DE6EDD6AF70EDBCF45
:10CDD000E9FFF80EDBCFEAFFEF50E66EFB0EDBCF8C
:10CDE000E9FFFC0EDBCFEAFFE552E750EF6EF70EEE
:10CDF000DBCFE9FFF80EDBCFEAFFDFCFEFFF020E5C
:10CE0000E15C02E2E16AE552E16EE552E7CFD9FF6B
:10CE10001200D9CFE6FFE1CFD9FFE652E00EE66E71
:10CE2000D6EC63F0E55282DFDF6EFE0EDB50DF1AD8
:10CE3000DFCFE6FFEAEC63F0E552EE0EE66ED6ECED
:10CE400063F0E552E552E552E7CFD9FF1200D9CFA2
:10CE5000E6FFE1CFD9FFFE0EDB50B00FE66ED6EC59
:10CE600063F0E552020E146EFD0EDBCFE7FF1450A7
:10CE7000E726FD0EE7CFDBFFDB500F0BE66ED6ECAF
:10CE800063F0E552FD0EDB380F0B0F0B100FE66E53
:10CE9000D6EC63F0E552E552E7CFD9FF1200D9CFC7
:10CEA000E6FFE1CFD9FF040EE126DF6AFD0EDB408D
:10CEB000E840E8401F0BE76E020EE7CFDBFFFD0EF8
:10CEC000DB50070BE76E030EE7CFDBFF010EDB6ADB
:10CED000030EDB50070815E3FC0EDB5012E0010ED9
:10CEE000F36E030EDB5004E0D890F336E806FCE165
:10CEF000F350DF12010EDB2AFC0EDB06030EDB2AE9
:10CF0000E7D7FE0EDBCFE6FF020EDBCFE6FF9FDFAB
:10CF1000E552E552DFCFE6FF7CDFE552FB0EDBCFCB
:10CF200014F0000EE76E1418E8AE02D0143403D0EB
:10CF3000E750D880145419E2FE0EDB50156E166AC5
:10CF4000D890165004E6830E155C000E16580DE2BC
:10CF5000FE0EDB28E66E020EDBCFE6FF78DFE55241
:10CF6000E552DFCFE6FF55DFE552FB0EDBCF14F0D5
:10CF7000010EE76E1418E8AE02D0143403D0E75067
:10CF8000D880145411E2FE0EDB5000080DE2FE0EB4
:10CF9000DB04E66E020EDBCFE6FF59DFE552E55219
:10CFA000DFCFE6FF36DFE552010EDB50146E040ED4
:10CFB000E15C03E200D0E16AE552E16E1450E55213
:10CFC000E7CFD9FF1200D9CFE6FFE1CFD9FF020E9C
:10CFD000E126010EDF6EFC0EDBCF14F0000EE76ED3
:10CFE0001418E8AE02D0143403D0E750D88014549B
:10CFF00007E2FD0EDB50000803E2FD0EDB06DF2A30
:10D00000FC0EDBCF14F0010EE76E1418E8AE02D070
:10D01000143403D0E750D880145408E2FD0EDB50DE
:10D02000DF24156E3F0E155C01E2DF2ADF501EE0A3
:10D03000E66ADFCFE6FFFD0EDBCFE6FFFE0EDBCFBD
:10D04000E6FF2DDFE552E552E552E552E76E010EAF
:10D05000E7CFDBFFDB50DF5EFD0EDBCFE7FF010E2E
:10D06000DB50E726FD0EE7CFDBFFE0D7020EE15CE9
:10D0700002E2E16AE552E16EE552E7CFD9FF120024
:10D08000D9CFE6FFE1CFD9FF160EE126FD0EDBCFAB
:10D0900014F0FB0EDB50D88014541DE2D950FB0F66
:10D0A000E66EFF0EDA20E66ED950FC0FE66EFF0E3C
:10D0B000DA20E66ED950FD0FE66EFF0EDA20E66E3E
:10D0C000D950FE0FE66EFF0EDA20E66E4EDE146ECD
:10D0D000080EE15E1450FB0EDBCFE6FFFD0EDB50C9
:10D0E000E552E75C010FE76E060EE7CFDBFFFE0EB1
:10D0F000DB50F36EFC0EDBCFF4FFF350F45C14E373
:10D10000FC0EDBCFE6FFFE0EDB50E552E75C010FC5
:10D11000E76E050EE7CFDBFF010EF36E070EF3CFD0
:10D12000DBFF080EDB6A10D0FE0EDBCFE6FFFC0E45
:10D13000DB50E552E75C010FE76E050EE7CFDBFF42
:10D14000070EDB68080EDB68050EDB50F36E060E7B
:10D15000DBCFF4FFF350F45C01E2CCD0060EDB50E1
:10D16000640D0D0EF3CFDBFF0E0EF4CFDBFF050ECB
:10D17000DB50146E156A0D0EDBCF08F00E0EDBCF00
:10D1800009F014C00DF015C00EF018EC6FF00B0E86
:10D1900008C0DBFF0C0E09C0DBFFFE0EDB50DF6EAC
:10D1A000FD0EDB50E76E010EE7CFDBFF150EDB6AED
:10D1B000FC0EDB50146E156A14C008F015C009F09F
:10D1C000070EDBCF0DF0080EDBCF0EF03EEC6FF05C
:10D1D000090E06C0DBFF0A0E07C0DBFFDF50166E2C
:10D1E000176A16C008F017C009F0070EDBCF0DF064
:10D1F000080EDBCF0EF03EEC6FF006C014F007C057
:10D2000015F0090EDBCF18F00A0EDBCF19F019501C
:10D210001518E8AE02D0153404D01450185C15501F
:10D22000195867E3640E166E176A150EDB50E76E29
:10D230000B0EDBCF14F00C0EDBCF15F0E7501426ED
:10D24000000E1522130E14C0DBFF140E15C0DBFFF9
:10D2500014C008F015C009F016C00DF017C00EF08C
:10D2600018EC6FF0020E08C0DBFF130EDBCF14F0DA
:10D27000140EDBCF15F0640E0D6E0E6A14C008F0AC
:10D2800015C009F018EC6FF004C014F005C015F0DB
:10D29000150E14C0DBFF020EDB5027E0FA0EDBCFC9
:10D2A000E6FF020EDBCFE6FF010EDBCFE6FFDFCFAE
:10D2B000E6FFF5DDE552E552E552E552E76E040E74
:10D2C000E7CFDBFF020EDBCFE7FF040EDB50E75EAC
:10D2D000020EE7CFDBFF010EDBCFE7FF040EDB50D2
:10D2E000E726010EE7CFDBFFD6D7070EDB50DF26A0
:10D2F00075D785D0050EDB50640D110EF3CFDBFF23
:10D30000120EF4CFDBFF060EDB50146E156A110E01
:10D31000DBCF08F0120EDBCF09F014C00DF015C002
:10D320000EF018EC6FF00F0E08C0DBFF100E09C0F6
:10D33000DBFFFE0EDB50DF6EFD0EDB50E76E010EF5
:10D34000E7CFDBFF150EDB6A010EDBCF14F0FB0E1F
:10D35000DB50D880145453E3640E166E176A150E12
:10D36000DB50E76E0F0EDBCF14F0100EDBCF15F0A5
:10D37000E7501426000E1522130E14C0DBFF140E06
:10D3800015C0DBFF14C008F015C009F016C00DF081
:10D3900017C00EF018EC6FF0030E08C0DBFF130E81
:10D3A000DBCF14F0140EDBCF15F0640E0D6E0E6A99
:10D3B00014C008F015C009F018EC6FF004C014F0A8
:10D3C00005C015F0150E14C0DBFF030EDBCFF3FF15
:10D3D000DB06F350000910E0FA0EDBCFE6FF010E8A
:10D3E000DBCFE6FFDFCFE6FFEEDDE552E552E552AB
:10D3F000070EDB50DF26E9D7010EDB2AA5D7150E75
:10D40000DB5032080CE2FA0EDBCFE6FF010EDBCF79
:10D41000E6FFDFCFE6FFD7DDE552E552E552160E17
:10D42000E15C02E2E16AE552E16EE552E7CFD9FF45
:02D430001200E8
:0ED43200000000000000004F0000000700078F
:10D4400000147F147F14242A7F2A12231308646295
:10D4500036495522500005030000001C22410000FF
:10D4600041221C0014083E081408083E0808005019
:10D47000300000080808080800606000002010085C
:10D4800004023E5149453E00427F400042615149FD
:10D49000462141454B311814127F10274545453927
:10D4A0003C4A494930017109050336494949360664
:10D4B0004949291E0036360000005636000008147F
:10D4C00022410014141414140041221408020151C2
:10D4D0000906324979413E7E1111117E7F49494941
:10D4E000363E414141227F4141221C7F4949494109
:10D4F0007F090909013E4149497A7F0808087F00F0
:10D50000417F41002040413F017F081422417F407C
:10D510004040407F020C027F7F0408107F3E414163
:10D52000413E7F090909063E4151215E7F091929C3
:10D5300046464949493101017F01013F4040403F92
:10D540001F2040201F3F4038403F631408146307EA
:10D55000087008076151494543007F4141000204BA
:10D560000810200041417F000402010204404040B5
:10D570004040000102040020545454787F48444441
:10D58000383844444420384444487F38545454186C
:10D59000087E0901020C5252523E7F0804047800B2
:10D5A000447D40002040443D007F1028440000415D
:10D5B0007F40007C041804787C08040478384444D4
:10D5C00044387C14141408081414187C7C080404CF
:10D5D000084854545420043F4440203C4040207CA0
:10D5E0001C2040201C3C4030403C44281028440C67
:10D5F0005050503C4464544C4400083641000000F4
:10D600007F000000413608000201020402000F0FF3
:10D610000F00FF0F0000FFFF00F00FFFF00F0F0FD4
:10D62000F0000F0F0F000000FF00000000FF0000DF
:10D6300000F0FF00000F0F0F0F0F00F00F000000B1
:10D640000000F00FF00F0F0FF0000F0F0F00F000B1
:10D650000000FF00000FF0000F0F0FFFF0000000B0
:10D660000F000F0F0FFFFFF00F00FF000000F0FF93
:10D6700000000F0F0F00F0000000FF0F0F0F0FF062
:10D68000FF0F0F0F0F000F0F0F00FF000000FFFF35
:10D69000F0F0F00000F00F0F00000F00000000FF9E
:10D6A0000000000000F00F000F0F0F0FFF000F0F22
:10D6B0000F00FF000000FF0FF0F0F00FF00F0F0F52
:10D6C000F0000F0F0000000000F00F0FF0F0F0FF6F
:10D6D000F00F0F0FF000000000000000000000003D
:10D6E000000000000000000000000000000000003A
:10D6F000000000000000000000000000000000002A
:07D700000000000000000022
:01D707000021
:08D70800D9CFE6FFE1CFD9FF04
:10D71000030EE12659D8736A820E726E739C94943C
:10D720009396958C7288728A949EE66AD0D8E55258
:10D73000E76E020EE7CFDBFF0000D950020FE96E63
:10D74000DACFEAFFEF50070B020801E00000140EE9
:10D75000E66EBDD8E552E76E020EE7CFDBFF020EA4
:10D76000DB96DB88020EDB80DB92DB94020EDBCFE4
:10D77000E6FF140EE66E3AD8E552E552010EE66E6B
:10D78000A6D8E552DE6EDD6A0000110EE66E9FD867
:10D79000E552DE6EDD6A0000E66A110EE66E26D8FE
:10D7A000E552E5520000110EE66E91D8E552DE6EAC
:10D7B000DD6A0000030EE15C02E2E16AE552E16E1F
:10D7C000E552E7CFD9FF1200550EA76EAA0EA76E3D
:10D7D0000E01FF91090ECC6F0A0ED36F170EFB6F6F
:10D7E000550EA76EAA0EA76EFF811200D9CFE6FFD5
:10D7F000E1CFD9FFE652DF6AFE0EDB50140804E0E9
:10D80000FE0EDB50340806E1140EE66E60D8E552D9
:10D81000E00BDF6E8B9EA49EFE0EDB50756EA4AEF9
:10D82000FED7000000000000000000000000000023
:10D8300000000000000000000000000000000000E8
:10D8400000000000000000000000000000000000D8
:10D8500000000000000000000000000000000000C8
:10D8600000000000000000000000000000000000B8
:10D8700000000000000000000000000000000000A8
:10D880000000000000000000000000000000000098
:10D890000000000000000000000000000000000088
:10D8A0000000A49EFE0EDB500A0805E1FD0EDB50D1
:10D8B0007F0B756E04D0FD0EDB50DF10756EA4AECD
:10D8C000FED78B8EE552E552E7CFD9FF1200D9CFB4
:10D8D000E6FFE1CFD9FF8B9EA49EFE0EDB508009B0
:10D8E000756EA4AEFED7000000000000000000002E
:10D8F0000000000000000000000000000000000028
:10D900000000000000000000000000000000000017
:10D910000000000000000000000000000000000007
:10D9200000000000000000000000000000000000F7
:10D9300000000000000000000000000000000000E7
:10D9400000000000000000000000000000000000D7
:10D9500000000000000000000000000000000000C7
:10D96000000000000000A49E756AA4AEFED78B8E56
:0CD97000755000D0E552E7CFD9FF12003F
:04D97C00030EB16E77
:10D98000B392B390B396B288B28EB290B292A4948E
:10D99000B38E12002F0E926E0F01E00E486F1F0E15
:10D9A000496FC18EC19CC70EC1140809C16EF80E23
:10D9B000C1140209C16E498FC29CC29EC30EC2141B
:10D9C0000809C26EC2801200D9DFCAEF6CF0D9CF4D
:10D9D000E6FFE1CFD9FF020EE126FE0EDB500F0B72
:10D9E000F36EF346F346C30EC214F310C26EFE0E7E
:10D9F000DB50EA6A850FE96E000EEA22EF503F0B1A
:10DA0000F36EF346F346030EB114F310B16EB38E0A
:10DA1000B3820000000000000000000000000000D1
:10DA200000000000000000000000000000000000F6
:10DA300000000000000000000000B392B28000006F
:10DA400000000000000000000000000000000000D6
:10DA500000000000000000000000000000000000C6
:10DA6000000000000000B2909E9CC2829EACFED7D7
:10DA7000C3CFDEFFC4CFDDFFDECF14F0DDCF15F066
:10DA800014C0F3FF15C0F4FF00D0020EE15C02E207
:10DA9000E16AE552E16EE552E7CFD9FF1200D9CF36
:10DAA000E6FFE1CFD9FF030EE126020EDB6A040E8A
:10DAB000F36E020EDBCFF4FFF350F45C21E22AD8C0
:10DAC000EF6A30D80CE226D8EF501F0803E122D8C5
:10DAD000EF6A13D01FD8EF2A25D8F5E30ED02CD843
:10DAE0000CE218D8EF50E10803E114D8EF6A05D032
:10DAF00011D8EF062BD820D8F4E3020EDB2AD7D7B3
:10DB0000030EE15C02E2E16AE552E16EE552E7CF25
:10DB1000D9FF1200020EDB50EA6A850FE96E000E93
:10DB2000EA22120013D8DECF14F0DDCF15F0200E5C
:10DB3000145C030E15581200D9CFE9FFDACFEAFFC3
:10DB4000200ED880EE54030EED541200020EDBCFEF
:10DB5000E6FF3DDFE552F3CFDEFFF4CFDDFF12003D
:10DB6000D9CFE6FFDACFE6FFFA0EE3CFD9FFFB0EFF
:10DB7000E3CFDAFFFD0EE35209E72D0EDE6EFC0E59
:10DB8000E31EE32AFD0ED8B4E306E31EE652E65296
:10DB9000E652FD0EE124E76EFF0EE220E46EE6524F
:10DBA000F70EE3CFE6FFF70EE3CFE6FF20EC6EF0D3
:10DBB000F90EE124E96EFF0EE220EA6E10EC6EF041
:10DBC0000AE10DEC6EF009E110EC6EF008E10DECED
:10DBD0006EF007E108D01BEC6EF016EC6EF01BEC5B
:10DBE0006EF016EC6EF01BEC6EF0DE6AF90EE126BC
:10DBF000FF0EE222FF0EE3CFDAFFE552FF0EE3CF86
:10DC0000D9FFE552FC0EE124E96EFF0EE220EA6E38
:10DC1000EECFF3FFEFCFF4FF1200EF380F0B12003F
:10DC2000EF500F0B02E1EE52D8841200EF380F0BC9
:10DC3000300FDE6E1200EE500F0B300FDE6E120052
:10DC4000FC0EE3CFE9FFFD0EE3CFEAFF100EE66E18
:10DC5000EE6AEE6AEF6AD890FD0EE336FE0EE3360A
:10DC6000ED36ED36EF36FF0EE30609E041EC6EF0DF
:10DC7000EE5241EC6EF0EE5241EC6EF0EDD7E56EF7
:10DC80001200030EEF24E8B6EF6E300EEF24E8BE6C
:04DC9000EF6E000C27
:0CDC94000E01BFB122D0BF838B809490A2
:10DCA000550EA76EAA0EA76E0E01FF910E0ED16F34
:10DCB000550EA76EAA0EA76EFF810F0EBA6ECF0E7D
:10DCC000BA140009BA6EBB6A0F01526B800ECB6E9C
:10DCD000040ECA6EA496600E776E7F0E766E1200EA
:10DCE0000E01BF91BF938B80949012000E01BFA1D3
:10DCF00009D08B50010B04E19450010B01E1010CA0
:10DD0000BF91C8DF0E01BFA3C5DFA4A63AD0A49679
:10DD1000BA50300BE842E842E842E842030819E111
:10DD2000400EBB5C10E18B909490BA6ACA6A0E01F7
:10DD3000D16B0F01526BCB68766A7768A4960E019F
:10DD4000BF81BF93010CBB2ACF0EBA140009BA6E73
:10DD5000000CBA0EE96E0F0EEA6EEF50300BE8427F
:10DD6000E842E842E842E82AE850030BF36EF46E1A
:10DD7000F346F346F346F346CF0EEF14F310EF6E7F
:04DD8000F450000C4F
:0CDD8400D9CFE6FFDACFE6FFE1CFD9FFF0
:10DD9000E2CFDAFFE652E652E652E652D950F90FE8
:10DDA000146EFF0EDA20156E020E14C0DBFF030E98
:10DDB00015C0DBFF020EDBCFE6FF030EDBCFE6FF75
:10DDC000F90EDBCFE6FFFA0EDBCFE6FFFB0EDBCF73
:10DDD000E6FFD950FC0FE66EFF0EDA20E66EF1EC9E
:10DDE0005CF0146E070EE15C02E2E16AE552E16E5E
:10DDF0001450F3CFDEFFF4CFDDFFFC0EDBCFE9FFE5
:10DE0000FD0EDBCFEAFFEF6ADECF14F0DDCF15F0B9
:10DE100014C0F3FF15C0F4FF040EE15C02E2E16AF6
:10DE2000E552E16EE552E5CFDAFFE7CFD9FF120008
:10DE3000006A0EAE21EF6FF00D6C0E1EE86A0E2226
:10DE4000001E09AE29EF6FF0086C091EE86A09226E
:10DE5000001ED9EC70F009BE39EF6FF000AE000C77
:10DE6000086C091EE86A0922046C051EE86A05228E
:10DE7000000C00BE30EF6FF00188FF0C09C013F0FA
:10DE800008C012F008500D02F4CF07F0F3CF06F0EF
:10DE900009500E02F4CF09F0F3CF08F00D02F35051
:10DEA0000726F4500822E86A092212500E02F350A5
:10DEB0000726F4500822E86A09220EAE64EF6FF0DC
:10DEC0001250085E1350095A13AE000C0D50085E34
:06DED0000E50095A000C7F
:0ADED6001E0EF66EA00EF76E000E91
:10DEE000F86E00010900F5507A6F0900F5507B6F5C
:10DEF00003E17A6701D03DD00900F550756F090044
:10DF0000F550766F0900F550776F09000900F5505C
:10DF1000E96E0900F550EA6E090009000900F550A4
:10DF2000786F0900F550796F09000900F6CF7CF091
:10DF3000F7CF7DF0F8CF7EF075C0F6FF76C0F7FF23
:10DF400077C0F8FF0001785302E1795307E0090038
:10DF5000F550EE6E7807F8E27907F9D77CC0F6FF46
:10DF60007DC0F7FF7EC0F8FF00017A07000E7B5BE3
:04DF7000BFD7120005
:0CDF7400253032753A253032750025301A
:10DF800032752F253032750032202D2044696769A3
:10DF9000746C20436C6F636B0031202D20416E61E7
:10DFA0006C6F6720436C6F636B0034202D20416CD5
:10DFB00061726D2020202020202020200033202D81
:10DFC00020536574204461746520202020202000A7
:10DFD00032202D205365742054696D652020202047
:10DFE00020200031202D20446973706C6179204D10
:10DFF0006F6465202000434C4F434B204D454E55E8
:10E0000000253032753A253032753A2530327500A8
:10E01000D9CFE6FFDACFE6FFE1CFD9FFE2CFDAFFD3
:10E02000FB0EDBCF14F0FC0EDBCF15F00001800EF1
:10E0300015141AE1FB0EDBCFE9FFFC0EDBCFEAFF84
:10E04000EECFF3FFEDCFF4FFEE2A000EEF22F3CF79
:10E05000E9FFF4CFEAFFFD0EDBCFEFFFEF50156ACB
:10E06000F36E15C0F4FF10D0FB0EDB50FE0806E186
:10E07000FD0EDBCFE6FF1FEC71F005D0FD0EDBCF10
:10E08000E6FF03EC50F0E552E552E5CFDAFFE7CFCB
:04E09000D9FF1200A2
:0CE0940006500B02F3CF02F0F4CF03F0B3
:10E0A0000C02F3500326000EF420046E06500D02FD
:10E0B000F3500426000EF420056E06500E02F350B5
:10E0C000052607500B02F3500326F4500422000EDD
:10E0D000052207500C02F3500426F4500522075085
:10E0E0000D02F350052608500B02F3500426F4509D
:10E0F000052208500C02F350052609500B02F3507C
:04E1000005261200DE
:0CE10400FE0EE3CFE9FFFF0EE3CFEAFFC1
:10E11000F36AF46AEE5203E0F34AF42AFBD71200E2
:10E12000FF0EE3CFF8FFE552FF0EE3CFF7FFE55216
:10E13000FF0EE3CFF6FFE552E66AE66AE66A0900FB
:10E14000F55209E0FD0EE32A05E1FE0EE32A02E1A5
:10E15000FF0EE32AF4D7FD0EE3CF07F0FE0EE3CF68
:0AE1600008F0FF0EE3CF09F01200F3
:06E16A00056A046A036A65
:10E17000026A200EE76ED890063607360836093652
:10E1800002360336043605360B50025C0C50035839
:10E190000D5004580E50055809E30B50025E0C5008
:10E1A000035A0D50045A0E50055A062AE72EE4D79A
:02E1B00012005B
:0EE1B200056A046A100EE76ED890083609362A
:10E1C000043605360D50045C0E50055805E30D501D
:0EE1D000045E0E50055A082AE72EF0D7120002
:02E1DE00F36AE2
:10E1E000F46AFF0EE124E96EFF0EE220EA6EED66AE
:10E1F00007D02F0EEF6404D03A0EEF6001D0F32A5F
:02E2000012000A
:0EE20200C00EF36E00EE00F00E0E01D81200FA
:10E21000EA6002D0EE6AFCD7F350E9601200EE6AC1
:02E22000FCD729
:0EE222001DEE00F02DEE00F0F86A019C6BEC92
:0EE230006FF007EC50F068EC5CF0FBD71200CA
:02E23E00FF0ED1
:10E24000E350ADBA04D0B06AAC8EAD8A949CADA256
:0AE25000FED7AE6EF36EF46A120002
:06E25A00056A080EE76EE4
:10E26000D890093605360E50055C02E3056E092A82
:06E27000E72EF7D71200B3
:0AE276003031323334353637383991
:07E280006162636465660042
:09E28700010000004043474A4D2C
:10E29000505354555657595A5B5B5A58565452521C
:10E2A000504E4C4A4846444242403D3A373333325E
:10E2B00031302F2F2E2D2C2B2B2B2B2C2D2D2C2C8E
:10E2C0002E303437393C3E3E09090A0B0C0D0E0F37
:10E2D00011131416181A1D202225282A2B2D2E3032
:10E2E00032333435363635353535343332312F2DFA
:10E2F0002A29272522201E1B181613110F0E0D0B7D
:10E300000A0A0909000000000000000000000000E7
:10E3100000000000000000000000000000000000FD
:10E3200000000000000000000000000000000000ED
:10E3300000000000000000000000000000000000DD
:06E34000000000000000D7
:01FFF800AA5E
:01FFF900F710
:01FFFA001FE7
:01FFFB00F70E
:01FFFC0063A1
:01FFFD00F80B
:01FFFE008181
:01FFFF00F110
:00000001FF
