:020000040000FA
:060000002EEF78F0120063
:08000800D7EF50F01200DACF2F
:10001000E4FFE2CFDAFFE652E552E5CFDAFF110066
:10002000D8CFE4FFE0CFE4FFE46EDACFE4FFE2CF25
:10003000DAFFE652E552E5CFDAFFE550E5CFE0FF23
:06004000E5CFD8FF10001F
:06A000002EEF78F01200C3
:02A00600120046
:06A0080007EF00F012005A
:02A00E0012003E
:06A0180010EF00F0120041
:02A01E0002003E
:10A02000C1F000006000000051000000C7E3000024
:08A03000CE0000000100000059
:08A0380044EC73F0AFEC73F08F
:10A04000E4EC71F080EC63F0E66A65EC64F0E552F4
:10A05000120064EC75F0000901E1FBD70F014869BB
:10A0600049691CEF50F0D9CFE6FFE1CFD9FF020ECE
:10A07000E126D59ED59CD59AD596F80ED51407091C
:10A08000D56EF2940101170EF26F3B0EF36F320E94
:10A09000F46FF56B1F0EF66F0C0EF76FF86BF96B24
:10A0A0008B0EDE6EDD68DECF00F0DDCF01F001C08B
:10A0B00000F0016A00C0FBF1DECF00F0DDCF01F05F
:10A0C00000C0FAF1FE0EDB5003E0F184F28AF29454
:10A0D000020EE15C02E2E16AE552E16EE552E7CF91
:10A0E000D9FF1200FBC1D7FFFAC1D6FFD58EF2947B
:10A0F0001200D9CFE6FFE1CFD9FF0101F451E66E9E
:10A10000E66AF351E66EE66AF251E66EE66A370EEB
:10A11000006EED0E016E026A00C0E6FF01C0E6FFB0
:10A1200002C0E6FF700EE66E000EE66EB0EC75F053
:10A13000036E0B0EE15E0350FB0EDBCFE6FFFD0E60
:10A14000DBCFE6FF700EE66E000EE66EB7EC65F054
:10A15000E552E552E552E552E552E7CFD9FF12004C
:10A16000D9CFE6FFE1CFD9FFFE0EDB500101F52785
:10A17000640EF55D12E3640EF55DF56FF42B3C0E95
:10A18000F45D0BE1F46BF32B3C0EF35D06E1F36B36
:10A19000F22B180EF25D01E1F26BE552E7CFD9FF29
:10A1A0001200D550800B01E0010E00D01200DACF72
:10A1B000E4FFE2CFDAFFE9CFE4FFEACFE4FFF6CF36
:10A1C000E4FFF7CFE4FFF5CFE4FFF3CFE4FFF4CFF4
:10A1D000E4FFFACFE4FF00EE18F0140EE80403E306
:10A1E000EECFE4FFFBD700EE00F0180EE80403E327
:10A1F000EECFE4FFFBD7E652F29EF2A406D072DF68
:10A200000400010EE66EACDFE552F28EE55200EE80
:10A2100017F0180EE80403E3E5CFEDFFFBD700EEDF
:10A220002BF0140EE80403E3E5CFEDFFFBD7E5CFF9
:10A23000FAFFE5CFF4FFE5CFF3FFE5CFF5FFE5CF7C
:10A24000F7FFE5CFF6FFE5CFEAFFE5CFE9FFE5CF82
:10A25000DAFF110081B01FD0000185C000F086C078
:10A2600001F087C002F088C003F0852B000E862322
:10A2700087238823D8800A0E0054000E0154000E54
:10A280000254000E035406E2856B866B876B886B65
:10A29000010E846F11D0000184050EE185518611F5
:10A2A0008711881104E1846B010E08D005D0850761
:10A2B000000E865B875B885B000E00D01200D9CF52
:10A2C000E6FFE1CFD9FF080EE126E66A47EC73F01E
:10A2D000E552020EF3CFDBFF030EF4CFDBFFE66E99
:10A2E00047EC73F0E552F3CFDEFFF4CFDDFF010E54
:10A2F000E66E47EC73F0E552040EF3CFDBFF050E7C
:10A30000F4CFDBFF020EE66E47EC73F0E552060E6B
:10A31000F3CFDBFF070EF4CFDBFF130EC26ED9CFF6
:10A32000E9FFDACFEAFF200ED880EE54030EED5499
:10A3300002E34C0E27D0D950020FE96EDACFEAFFC4
:10A34000200ED880EE54030EED5402E3520E1AD0C4
:10A35000D950040FE96EDACFEAFFC50ED880EE546B
:10A36000030EED5402E2550E0DD0D950060FE96EE2
:10A37000DACFEAFFD40ED880EE54030EED5402E299
:10A38000440E00D0006E080EE15C02E2E16AE55284
:10A39000E16E0050E552E7CFD9FF1200D9CFE6FFBA
:10A3A000E1CFD9FF1E0EE126C30EC2141009C26E02
:10A3B000C282C2B2FED7D9CFE6FFDACFE6FFC3CF63
:10A3C000E6FFC4CFE6FF10EC74F0E552E552E5522B
:10A3D000E552B00ED880C354040EC4540AE3EE0E06
:10A3E000D880C354020EC45404E2060EF36EF46A1D
:10A3F0002CD0EE0EC35C020EC4580AE2F40ED880D4
:10A40000C354010EC45404E2050EF36EF46A1DD069
:10A41000F40EC35C010EC4580AE2FA0ED880C3548D
:10A42000000EC45404E2040EF36EF46A0ED0FA0E69
:10A43000C35C000EC45809E2000EC35C000EC45891
:10A4400004E3030EF36EF46A00D01E0EE15C02E238
:10A45000E16AE552E16EE552E7CFD9FF1200D9CFAC
:10A46000E6FFE1CFD9FF020EE126E66A65EC64F073
:10A47000E552500EE66EE66A000EE66EE66A39DEDA
:10A48000E552E552E552E55289DFF3CFDEFFF4CF26
:10A49000DDFFE66AE66A2C0EE66EED0EE66E7DECFA
:10A4A00065F0E552E552E552E552E66A030EE66EC6
:10A4B000190EE66EED0EE66E7DEC65F0E552E552A6
:10A4C000E552E552E66A040EE66E060EE66EED0E05
:10A4D000E66E7DEC65F0E552E552E552E552E66A3E
:10A4E000050EE66EF30EE66EEC0EE66E7DEC65F0A4
:10A4F000E552E552E552E552E66A060EE66EE00EDA
:10A50000E66EEC0EE66E7DEC65F0E552E552E55246
:10A51000E552780EE66EDECF00F0DDCF01F0B00E32
:10A520000024E66E3C0EE66E51EC65F0E552E55215
:10A53000E552780EE66EDECF00F0DDCF01F00006CA
:10A54000000E015AB00E0024E66E200EE66E51ECAD
:10A5500065F0E552E552E552780EE66EDECF00F08A
:10A56000DDCF01F0010E0026000E0122B00E002406
:10A57000E66E200EE66E51EC65F0E552E552E552CE
:10A5800069DE010824E1000EDFCF20F0010EDBCFF1
:10A5900021F0060E201801E1215016E0050E2018CA
:10A5A00001E121500FE0040E201801E1215008E0E4
:10A5B000030E201801E1215001E009D01FD807D077
:10A5C0002FD905D002DB03D029EC57F000D077DE7D
:10A5D0004C0808E1E66A65EC64F0E552020EE15CC5
:10A5E00008E205D0C2EC5AF0E4EC5AF042D7E16A36
:10A5F000E552E16EE552E7CFD9FF1200D9CFE6FF71
:10A60000E1CFD9FF030EE126460EDF6E030EF36E97
:10A61000010EF3CFDBFF020EDB6AE66A65EC64F045
:10A62000E552780EE66E010EDBCF00F0020EDBCFB6
:10A6300001F0B00E0024E66E3C0EE66E51EC65F0C3
:10A64000E552E552E552500EE66EE66A000EE66E01
:10A65000E66A4FDDE552E552E552E552E66AE66A02
:10A660002C0EE66EED0EE66E7DEC65F0E552E552E1
:10A67000E552E552E66A030EE66ECF0EE66EEC0E8C
:10A68000E66E7DEC65F0E552E552E552E552E66A8C
:10A69000040EE66EBE0EE66EEC0EE66E7DEC65F028
:10A6A000E552E552E552E5520ADEDF6E550EDF5CFB
:10A6B00041E1780EE66E010EDBCF00F0020EDBCF3B
:10A6C00001F0B00E0024E66E200EE66E51EC65F04F
:10A6D000E552E552E552D950010FE96EDACFEAFFB3
:10A6E000EE06000EED5A010EDBCF00F0020EDBCFBE
:10A6F00001F0D890015004E6030E005C000E0158F2
:10A7000007E2030EF36E010EF3CFDBFF020EDB6AEE
:10A71000780EE66E010EDBCF00F0020EDBCF01F00B
:10A72000B00E0024E66E3C0EE66E51EC65F0E5528C
:10A73000E552E552440EDF5C40E1780EE66E010E14
:10A74000DBCF00F0020EDBCF01F0B00E0024E66E8E
:10A75000200EE66E51EC65F0E552E552E552D95017
:10A76000010FE96EDACFEAFFEE2A000EED22010EAC
:10A77000DBCF00F0020EDBCF01F0013404E2005029
:10A780000408000E015407E2040EF36E010EF3CF2D
:10A79000DBFF020EDB6A780EE66E010EDBCF00F007
:10A7A000020EDBCF01F0B00E0024E66E3C0EE66E2A
:10A7B00051EC65F0E552E552E5524CDD010824E12B
:10A7C000D950010FE96EDACFEAFF030EEE1801E16E
:10A7D000ED5004E1020E0001606F616BD950010F72
:10A7E000E96EDACFEAFF040EEE1801E1ED5004E164
:10A7F000010E0001606F616BE66A65EC64F0E55282
:10A80000030EE15C08E205D0C2EC5AF0E4EC5AF029
:10A810001AD7E16AE552E16EE552E7CFD9FF12009F
:10A82000D9CFE6FFE1CFD9FF0E0EE126460EDF6E4F
:10A83000010EDB6A020EDB6A320EF36E030EF3CFFB
:10A84000DBFF040EDB6A0101F251E66ED950080FFE
:10A85000E96EDACFEAFFE552E750EE6EED6AF351AA
:10A86000E66ED9500A0FE96EDACFEAFFE552E750FB
:10A87000EE6EED6AF451E66ED9500C0FE96EDACF48
:10A88000EAFFE552E750EE6EED6AE66A65EC64F0C9
:10A89000E552010EDBCFF4F1320EE66EE66A040EED
:10A8A000E66EE66A26DCE552E552E552E55207DD42
:10A8B000DF6E74DD050EF3CFDBFF060EF4CFDBFF9A
:10A8C000D950050FE96EDACFEAFF030EEE1801E169
:10A8D000ED5033E1320EE66EB50EE66E5F0EE66EBB
:10A8E00051EC65F0E552E552E552380EE66EB50ED4
:10A8F000E66E5F0EE66E51EC65F0E552E552E5520C
:10A90000440EE66EB50EE66E200EE66E51EC65F076
:10A91000E552E552E5524A0EE66EB50EE66E200EA1
:10A92000E66E51EC65F0E552E552E552320EF36EFB
:10A93000030EF3CFDBFF040EDB6AD950050FE96E7F
:10A94000DACFEAFF040EEE1801E1ED5049E1320ED4
:10A95000E66EB50EE66E200EE66E51EC65F0E55241
:10A96000E552E552380EE66EB50EE66E200EE66E46
:10A9700051EC65F0E552E552E552560EE66EB50E25
:10A98000E66E200EE66E51EC65F0E552E552E552BA
:10A990005C0EE66EB50EE66E200EE66E51EC65F0CE
:10A9A000E552E552E552440EE66EB50EE66E5F0ED8
:10A9B000E66E51EC65F0E552E552E5524A0EE66E60
:10A9C000B50EE66E5F0EE66E51EC65F0E552E552AF
:10A9D000E552440EF36E030EF3CFDBFF040EDB6A89
:10A9E000D950050FE96EDACFEAFF050EEE1801E146
:10A9F000ED5033E1560EE66EB50EE66E5F0EE66E76
:10AA000051EC65F0E552E552E5525C0EE66EB50E8E
:10AA1000E66E5F0EE66E51EC65F0E552E552E552EA
:10AA2000440EE66EB50EE66E200EE66E51EC65F055
:10AA3000E552E552E5524A0EE66EB50EE66E200E80
:10AA4000E66E51EC65F0E552E552E552560EF36EB6
:10AA5000030EF3CFDBFF040EDB6AD950030FE96E60
:10AA6000DACFEAFF320EEE1801E1ED5010E1550E9B
:10AA7000DF5C05E1170E0101F25D01E2F22B440EED
:10AA8000DF5C05E10101F251010801E2F207D95052
:10AA9000030FE96EDACFEAFF440EEE1801E1ED5044
:10AAA00010E1550EDF5C05E13B0E0101F35D01E2B3
:10AAB000F32B440EDF5C05E10101F351000801E2D4
:10AAC000F307D950030FE96EDACFEAFF560EEE18FE
:10AAD00001E1ED5026E1550EDF5C10E13B0E010176
:10AAE000F45D0CE2F42BF451E66ED950010FE96EDF
:10AAF000DACFEAFFE552E750EE6EED6A440EDF5C16
:10AB000010E10101F45100080CE2F407F451E66E83
:10AB1000D950010FE96EDACFEAFFE552E750EE6E49
:10AB2000ED6A4C0EDF5C0AE1080EDBCFF2F10A0E93
:10AB3000DBCFF3F10C0EDBCFF4F109D0520EDF5C6A
:10AB400001E105D0C2EC5AF0E4EC5AF0A2D60E0EA8
:10AB5000E15C02E2E16AE552E16EE552E7CFD9FF3E
:10AB60001200D9CFE6FFE1CFD9FF0101F751E66E20
:10AB7000E66AF651E66EE66AB40E006EEC0E016E01
:10AB8000026A00C0E6FF01C0E6FF02C0E6FF890ED0
:10AB9000E66E000EE66EB0EC75F0036E090EE15E37
:10ABA0000350FB0EDBCFE6FFFD0EDBCFE6FF890E89
:10ABB000E66E000EE66EB7EC65F0E552E552E55242
:10ABC000E552E552E7CFD9FF1200D9CFE6FFE1CF3A
:10ABD000D9FF0C0EE126460EDF6E010EF36EF3CFA9
:10ABE000DBFF020EDB6A320EF36E030EF3CFDBFFE8
:10ABF000040EDB6A0101F651E66ED950080FE96ECA
:10AC0000DACFEAFFE552E750EE6EED6AF751E66EF5
:10AC1000D9500A0FE96EDACFEAFFE552E750EE6E3F
:10AC2000ED6AE66A65EC64F0E552320EE66EE66ABD
:10AC3000040EE66EE66A95DFE552E552E552E5520E
:10AC40005FEC51F0DF6ECEEC51F0060EF3CFDBFF80
:10AC5000070EF4CFDBFFD950060FE96EDACFEAFF1B
:10AC6000030EEE1801E1ED5033E1320EF36E030EE8
:10AC7000F3CFDBFF040EDB6A320EE66EB50EE66E36
:10AC80005F0EE66E51EC65F0E552E552E552380E86
:10AC9000E66EB50EE66E5F0EE66E51EC65F0E552BF
:10ACA000E552E552440EE66EB50EE66E200EE66EF7
:10ACB00051EC65F0E552E552E5524A0EE66EB50EEE
:10ACC000E66E200EE66E51EC65F0E552E552E55277
:10ACD000D950060FE96EDACFEAFF040EEE1801E153
:10ACE000ED5033E1440EF36E030EF3CFDBFF040EA1
:10ACF000DB6A320EE66EB50EE66E200EE66E51ECA5
:10AD000065F0E552E552E552380EE66EB50EE66E98
:10AD1000200EE66E51EC65F0E552E552E552440E28
:10AD2000E66EB50EE66E5F0EE66E51EC65F0E5522E
:10AD3000E552E5524A0EE66EB50EE66E5F0EE66E21
:10AD400051EC65F0E552E552E552D950030FE96E3A
:10AD5000DACFEAFF320EEE1801E1ED5010E1550EA8
:10AD6000DF5C05E11F0E0101F65D01E2F62B440EEA
:10AD7000DF5C05E10101F651010801E2F607D95057
:10AD8000030FE96EDACFEAFF440EEE1801E1ED5051
:10AD900010E1550EDF5C05E10C0E0101F75D01E2EB
:10ADA000F72B440EDF5C05E10101F751010801E2D8
:10ADB000F7074C0EDF5C07E10A0EDBCFF7F1080E58
:10ADC000DBCFF6F108D0520EDF5C01E104D0DADB14
:10ADD000E4EC5AF02AD70C0EE15C02E2E16AE5529B
:10ADE000E16EE552E7CFD9FF1200D9CFE6FFE1CF00
:10ADF000D9FF0101F951E66EE66AF851E66EE66A9E
:10AE0000AA0E006EEC0E016E026A00C0E6FF01C0E1
:10AE1000E6FF02C0E6FF9D0EE66E000EE66EB0ECA9
:10AE200075F0036E090EE15E0350FB0EDBCFE6FF0B
:10AE3000FD0EDBCFE6FF9D0EE66E000EE66EB7EC74
:10AE400065F0E552E552E552E552E552E7CFD9FF0C
:10AE50001200D9CFE6FFE1CFD9FF080EE126460E5A
:10AE6000DF6E010EF36EF3CFDBFF020EDB6A320EF4
:10AE7000F36E030EF3CFDBFF040EDB6AE66A65ECCC
:10AE800064F0E552320EE66EE66A040EE66EE66A9D
:10AE9000ACDFE552E552E552E552CEEC51F0060E3C
:10AEA000F3CFDBFF070EF4CFDBFF5FEC51F0DF6E7B
:10AEB000D950060FE96EDACFEAFF030EEE1801E172
:10AEC000ED5033E1320EF36E030EF3CFDBFF040ED1
:10AED000DB6A320EE66EB50EE66E5F0EE66E51EC84
:10AEE00065F0E552E552E552380EE66EB50EE66EB7
:10AEF0005F0EE66E51EC65F0E552E552E552440E08
:10AF0000E66EB50EE66E200EE66E51EC65F0E5528B
:10AF1000E552E5524A0EE66EB50EE66E200EE66E7E
:10AF200051EC65F0E552E552E552D950060FE96E55
:10AF3000DACFEAFF040EEE1801E1ED5033E1440EE2
:10AF4000F36E030EF3CFDBFF040EDB6A320EE66E08
:10AF5000B50EE66E200EE66E51EC65F0E552E55258
:10AF6000E552380EE66EB50EE66E200EE66E51EC3A
:10AF700065F0E552E552E552440EE66EB50EE66E1A
:10AF80005F0EE66E51EC65F0E552E552E5524A0E71
:10AF9000E66EB50EE66E5F0EE66E51EC65F0E552BC
:10AFA000E552E552D950030FE96EDACFEAFF320ECF
:10AFB000EE1801E1ED5010E1550EDF5C05E1170ED2
:10AFC0000101F85D01E2F82B440EDF5C05E10101AF
:10AFD000F851000801E2F807D950030FE96EDACF03
:10AFE000EAFF440EEE1801E1ED5010E1550EDF5C72
:10AFF00005E13B0E0101F95D01E2F92B440EDF5C36
:10B0000005E10101F951000801E2F9074C0EDF5C8E
:10B0100004E10001626B636B0BD0520EDF5C05E153
:10B02000010E0001626F636B03D0ACDACDDA2AD770
:10B03000080EE15C02E2E16AE552E16EE552E7CF1B
:10B04000D9FF1200D9CFE6FFE1CFD9FF130EE126D9
:10B05000040EDB6A050EDB6A060EDB6A070EDB6A8E
:10B06000020EF36E080EF3CFDBFF090EDB6A0A0E49
:10B07000F2C1DBFF0B0EF3C1DBFF0C0EF4C1DBFFF3
:10B080000D0EDB6A140EF36E0E0EF3CFDBFF300EE7
:10B09000F36E0F0EF3CFDBFF420EF36E100EF3CF05
:10B0A000DBFF5A0EF36E110EF3CFDBFF6E0EF36E65
:10B0B000120EF3CFDBFFDE6ADD6ADECF00F0DDCFFC
:10B0C00001F0D890015004E6030E005C000E015818
:10B0D00001E34ED2D9500A0F016EDACF02F0DE50F2
:10B0E0000124E96EDD500220EA6EEFCF00F00A0E77
:10B0F000036E03C026F000C021F04AEC78F0215026
:10B10000E66ED950040FE96EDACFEAFFE552E75058
:10B11000EE6EED6AD9500A0F016EDACF02F0DE5002
:10B120000124E96EDD500220EA6EEFCF00F00A0E36
:10B13000036E03C026F000C021F04AEC78F01D50E9
:10B14000E66ED950060FE96EDACFEAFFE552E75016
:10B15000EE6EED6A020EDB6A030EDB6A020EDBCFD7
:10B1600000F0030EDBCF01F0D890015004E6020E90
:10B17000005C000E015801E3CAD1D950040F026EE1
:10B18000DACF03F0020E206E216ADBCF25F0030E2A
:10B19000DBCF26F07BEC6BF002501E24E96E0350EF
:10B1A0001F20EA6EEECF00F0EFCF01F0090E00187D
:10B1B00001E1015001E180D1080E001801E10150C8
:10B1C00001E155D1070E001801E1015001E12AD13A
:10B1D000060E001801E1015001E1FFD0050E001834
:10B1E00001E1015001E1D4D0040E001801E1015049
:10B1F00001E1A9D0030E001801E1015001E17ED068
:10B20000020E001801E1015054E0010E001801E1A6
:10B2100001502AE0005001E1015001E072D1D95003
:10B220000D0F026EDACF03F0020E206E216ADECF20
:10B2300025F0DDCF26F07BEC6BF002501E24006E73
:10B2400003501F20016E020EDB500024E96E030E36
:10B25000DB500120EA6EEF50E66E200EE66E4BECFE
:10B2600066F0E552E5524DD1D9500D0F026EDACF9E
:10B2700003F0020E206E216ADECF25F0DDCF26F02E
:10B280007BEC6BF002501E24006E03501F20016EF9
:10B29000020EDB500024E96E030EDB500120EA6E43
:10B2A000EF50E66E240EE66E4BEC66F0E552E5528A
:10B2B00028D1D9500D0F026EDACF03F0020E206EA6
:10B2C000216ADECF25F0DDCF26F07BEC6BF002505B
:10B2D0001E24006E03501F20016E020EDB5000245E
:10B2E000E96E030EDB500120EA6EEF50E66E280E89
:10B2F000E66E4BEC66F0E552E55203D1D9500D0FE6
:10B30000026EDACF03F0020E206E216ADECF25F046
:10B31000DDCF26F07BEC6BF002501E24006E035054
:10B320001F20016E020EDB500024E96E030EDB507D
:10B330000120EA6EEF50E66E2C0EE66E4BEC66F0E6
:10B34000E552E552DED0D9500D0F026EDACF03F090
:10B35000020E206E216ADECF25F0DDCF26F07BECD9
:10B360006BF002501E24006E03501F20016E020E6F
:10B37000DB500024E96E030EDB500120EA6EEF5033
:10B38000E66E300EE66E4BEC66F0E552E552B9D053
:10B39000D9500D0F026EDACF03F0020E206E216A33
:10B3A000DECF25F0DDCF26F07BEC6BF002501E24C3
:10B3B000006E03501F20016E020EDB500024E96E68
:10B3C000030EDB500120EA6EEF50E66E340EE66E9F
:10B3D0004BEC66F0E552E55294D0D9500D0F026E59
:10B3E000DACF03F0020E206E216ADECF25F0DDCF2A
:10B3F00026F07BEC6BF002501E24006E03501F20E1
:10B40000016E020EDB500024E96E030EDB500120BA
:10B41000EA6EEF50E66E380EE66E4BEC66F0E552E3
:10B42000E5526FD0D9500D0F026EDACF03F0020E45
:10B43000206E216ADECF25F0DDCF26F07BEC6BF0AD
:10B4400002501E24006E03501F20016E020EDB50BE
:10B450000024E96E030EDB500120EA6EEF50E66E29
:10B460003C0EE66E4BEC66F0E552E5524AD0D95000
:10B470000D0F026EDACF03F0020E206E216ADECFCE
:10B4800025F0DDCF26F07BEC6BF002501E24006E21
:10B4900003501F20016E020EDB500024E96E030EE4
:10B4A000DB500120EA6EEF50E66E400EE66E4BEC8C
:10B4B00066F0E552E55225D0D9500D0F026EDACF75
:10B4C00003F0020E206E216ADECF25F0DDCF26F0DC
:10B4D0007BEC6BF002501E24006E03501F20016EA7
:10B4E000020EDB500024E96E030EDB500120EA6EF1
:10B4F000EF50E66E440EE66E4BEC66F0E552E55218
:10B5000000D0020EDB2A030E01E3DB2A27D6280E29
:10B51000E66EB30EE66E6F0EE66E51EC65F0E55228
:10B52000E552E552280EE66EB40EE66E6F0EE66E3C
:10B5300051EC65F0E552E552E552540EE66EB30E5D
:10B54000E66E6F0EE66E51EC65F0E552E552E5529F
:10B55000540EE66EB40EE66E6F0EE66E51EC65F0BC
:10B56000E552E552E552DF2A010E01E3DB2AA5D5BB
:10B57000130EE15C02E2E16AE552E16EE552E7CFCB
:10B58000D9FF1200170E0101F25D1DE13B0EF35DC4
:10B590001AE13B0EF45D17E1F26BF36BF46B1F0ED7
:10B5A000F65D0AE1010EF66F0C0EF75D03E1010E88
:10B5B000F76F01D0F72B02D0F629F66F0C0EF75D6E
:10B5C00002E1010EF76F12000001010E621901E1A4
:10B5D000635118E10101F251F85D14E1F351F95D95
:10B5E00011E1F45114080EE32AEC51F0000906E0D1
:10B5F0000001626B636BF36AF46A04D0E66A65EC7F
:10B6000064F0E5521200D9CFE6FFE1CFD9FF040E76
:10B61000E1262D0EF36E020EF3CFDBFF030EDB6A85
:10B62000680EDE6E010EDD6EDECF00F0DDCF01F0C4
:10B630000001800E011401E017D1000EDFCF20F0D1
:10B64000010EDBCF21F082EC6AF01FC00CF020C0AD
:10B650000DF021C00EF022C00FF0C30E246EF50EC7
:10B66000256E480E266E400E276E0CC01FF00DC0D2
:10B6700020F00EC021F00FC022F0E8EC6AF01FC0ED
:10B6800008F020C009F021C00AF022C00BF0246AA3
:10B69000256A340E266E430E276E08C01FF009C0BF
:10B6A00020F00AC021F00BC022F095EC6AF01FC018
:10B6B00004F020C005F021C006F022C007F004C04D
:10B6C000E6FF05C0E6FF06C0E6FF07C0E6FFABECFD
:10B6D00077F0E552E552E552E552F3CF02F0F4CFB0
:10B6E00003F068C020F069C021F002C025F003C05B
:10B6F00026F07BEC6BF000011E50645D006E1F5065
:10B700006559016E020EDBCFE9FF030EDBCFEAFFC6
:10B71000D890E936EA36000EE926010EEA2200C08A
:10B72000EEFF01C0EDFF000EDFCF20F0010EDBCFFA
:10B7300021F082EC6AF01FC00CF020C00DF021C097
:10B740000EF022C00FF0C30E246EF50E256E480ECB
:10B75000266E400E276E0CC01FF00DC020F00EC0EC
:10B7600021F00FC022F0E8EC6AF01FC008F020C002
:10B7700009F021C00AF022C00BF0246A256A340EB9
:10B78000266E430E276E08C01FF009C020F00AC0C5
:10B7900021F00BC022F095EC6AF01FC004F020C02D
:10B7A00005F021C006F022C007F004C0E6FF05C086
:10B7B000E6FF06C0E6FF07C0E6FF83EC77F0E55240
:10B7C000E552E552E552F3CF02F0F4CF03F068C042
:10B7D00020F069C021F002C025F003C026F07BEC08
:10B7E0006BF000011E50665D006E1F506759016EC0
:10B7F000020EDBCFE9FFDB06030EDBCFEAFF01E23F
:10B80000DB06D890E936EA36780EE926010EEA2200
:10B8100000C0EEFF01C0EDFFD950020FE96EDACF94
:10B82000EAFFFF0EEE1802E1FF0EED1804E13B0EF9
:10B83000006E016A06D0020EDBCF00F0030EDBCFF4
:10B8400001F0020E00C0DBFF030E01C0DBFFDECF04
:10B8500000F0DDCF01F0060E005E000E015A00C0C0
:10B86000DEFF01C0DDFFE0D6040EE15C02E2E16A2A
:10B87000E552E16EE552E7CFD9FF120001010A0E51
:10B88000F16F3C0EF15D29E2E66AF1C1E6FF440E7C
:10B89000E66E1E0EE66E410EE66EA7EC68F0006ED8
:10B8A000050EE15E0050640EE66EE66A53EC63F04E
:10B8B000E552E552E66AF1C1E6FF440EE66E1E0E61
:10B8C000E66E410EE66EA7EC68F0006E050EE15ED6
:10B8D0000050050E0101F127D4D71200020EE66ECA
:10B8E000E66A410EE66E050EE66E410EE66EA7ECC8
:10B8F00068F0006E050EE15E0050020EE66E1E0E50
:10B90000E66E7D0EE66E1E0EE66E780EE66EA7EC17
:10B9100068F0006E050EE15E0050020EE66E400E0D
:10B92000E66E410EE66E3B0EE66E410EE66EA7EC4D
:10B9300068F0006E050EE15E0050020EE66E1E0E0F
:10B94000E66E050EE66E1E0EE66E0A0EE66EA7ECBD
:10B9500068F0006E050EE15E0050010EE66EE66ACC
:10B960005F0EE66E050EE66E5D0EE66EA7EC68F005
:10B97000006E050EE15E0050010EE66E1E0EE66ED4
:10B980007D0EE66E1E0EE66E780EE66EA7EC68F093
:10B99000006E050EE15E0050010EE66E400EE66E92
:10B9A000410EE66E3B0EE66E410EE66EA7EC68F0C9
:10B9B000006E050EE15E0050010EE66E1E0EE66E94
:10B9C000050EE66E1E0EE66E0A0EE66EA7EC68F039
:10B9D000006E050EE15E00501200D9CFE6FFE1CF08
:10B9E000D9FF030EE12629EC50F0010EE66E33EC90
:10B9F00050F0E552F28ED08E72EC50F0C080D1EC57
:10BA000050F0000934E00001010E601901E16151BC
:10BA100021E15F0EE66EE66A070EE66EE66AB1ECBD
:10BA200055F0E552E552E552E55222EC58F0AADD18
:10BA30000001010E621901E163510BE1000EE66E97
:10BA4000E66AE66EE66AF5EC56F0E552E552E55236
:10BA5000E55202D043DF12DF2AEC51F0E76E020E0E
:10BA6000E7CFDBFFDB0402E12FEC52F0ADDDC7D7FF
:10BA7000030EE15C02E2E16AE552E16EE552E7CFD6
:04BA8000D9FF1200D8
:0CBA84007EEC62F0FB0EDBCFF3FFDB0674
:10BA9000F35000090AE0CCEC62F0FA0E37EC63F0E8
:10BAA000F3E1011CF1E1010E01D0000EADEF62F0F7
:10BAB0007EEC62F03B0EE12402E3E168E652E16EC7
:10BAC000010EDB6A020EDB6AF90EDBCFF6FFFA0E1F
:10BAD000DBCFF7FFFB0EDBCFF8FF0800F550DF6E82
:10BAE000DF5002E1D1EF61F0250EDF5C02E0C4EF30
:10BAF00061F0030EDB6A040EDB6A050EDB6A060EDC
:10BB0000DB6A070EDB6AE6EC61F02D0EDF5C0CE011
:10BB10002B0EDF5C09E0200EDF5C06E0230EDF5C0D
:10BB200003E0300EDF5C1AE1DF50300A14E0130A44
:10BB30000FE0030A0AE00B0A05E0060AE4E1030E3F
:10BB4000DB80E1D7030EDB82DED7030EDB84DBD79D
:10BB5000030EDB86D8D7030EDB88D5D72A0EDF5C31
:10BB60001BE1E2EC61F030EC62F010E0030EDB80F0
:10BB700020682168130EDBCF25F0140EDBCF26F0F2
:10BB80007BEC6BF0040E1EC0DBFF03D0130E19EC30
:10BB900062F0E6EC61F00BD0090EDB6A87EC62F034
:10BBA00003E0FBEC62F0FAD7090E19EC62F0030E29
:10BBB000DBB0DB982E0EDF5C1BE1E6EC61F02A0EB9
:10BBC000DF5C0BE1E2EC61F030EC62F003E1130EBC
:10BBD0006BEC62F0E6EC61F00BD0090EDB6A87ECEF
:10BBE00062F003E0FBEC62F0FAD7090E6BEC62F056
:10BBF000680EDF5C07E1E6EC61F0680EDF5C1DE1DA
:10BC0000030E18D0740EDF5C17E07A0EDF5C14E0D0
:10BC1000480EDF5C06E0540EDF5C03E05A0EDF5C8A
:10BC200002E1020E07D06C0EDF5C03E06A0EDF5CFF
:10BC300004E1010EBEEC62F0C9DBDF506E0A01E1E7
:10BC40007FD31E0A01E192D1200A01E18FD13F0A80
:10BC500001E149D11A0A01E146D10D0A01E143D1BE
:10BC6000200A01E140D13A0A01E13DD1200A01E177
:10BC70003AD1260A01E135D10D0A01E132D11A0A81
:10BC800001E1D9D0200A4AE0300A1FE0460A0EE05E
:10BC9000250A01E083D3D950F90FE96EFF0EDA20AF
:10BCA000EA6E010EEE5E000EEE5AEE5ACCEC62F039
:10BCB000250EE66E95DB03E1011C01E169D3C8ECBA
:10BCC00062F001E26BD3DB2A69D3080EDB6A040E53
:10BCD000DB50010806E2040EDB0490EC62F0DB505E
:10BCE0008BDB080EDB5009E0030EDB50010B05E196
:10BCF00072DB01E04DD3080EDB6A64DBEFCFDFFFC0
:10BD000040EC63F003E1011C01E142D3C8EC62F0B6
:10BD100001E3DB2A60DB01E141D33AD3070EDB50BC
:10BD200002080FE10CEC63F0030ED3EC62F00E0E90
:10BD3000EECFDBFF0F0EEECFDBFF100EEECFDBFF03
:10BD400020D0F70EDBCF03F0F80EDBCF04F0020EAD
:10BD5000035E000E045AF70E03C0DBFFF80E04C0AA
:10BD6000DBFF03C0E9FF04C0EAFFC3EC62F0026A34
:10BD70000E0E00C0DBFF0F0E01C0DBFF100E02C075
:10BD8000DBFF0E0EDBCFE6FF0F0EDBCFE6FF100E64
:10BD9000DBCFE6FF2BEC77F0E552E552E552130ED0
:10BDA0001FC0DBFF140E20C0DBFF060EDB5005E0DA
:10BDB000130E07EC63F001E26ADB2BEC63F002E2A6
:10BDC000130E37DBEEEC62F006E0040E07EC63F0D6
:10BDD00002E2050E2EDB030EDBB005D0FCDA01E03B
:10BDE000D7D2080EDB6A090EDB6A0E0EDBCFF6FF38
:10BDF0000F0EDBCFF7FF100EDBCFF8FF0800F5507A
:10BE0000DF6EDF5014E031EC63F011E240EC63F0E0
:10BE100003E1011C01E1BCD2BBDB01E3DB2A090E1B
:10BE2000DB2AD9500E0FE96E000ECBDBE7D7D3DA51
:10BE300001E1B4D2ADD2C6DA110EEECFDBFF120EA5
:10BE4000EDCFDBFF110EDBCFE6FF120EDBCFE6FFFF
:10BE50001DEC77F0E552E552130EF3CFDBFF140E25
:10BE6000F4CFDBFF060EDB5004E0130ED0DB01E263
:10BE70000EDB2BEC63F002E2130EDBDAAFDB05E046
:10BE8000040EC5DB02E2050ED4DA030EDBB005D0EA
:10BE9000A2DA01E07DD2080EDB6A090EDB6A110E20
:10BEA000DBCFE9FF120EDBCFEAFFEFCFDFFFDF5082
:10BEB00014E0D7DB12E2E4DB03E1011C01E168D20C
:10BEC00067DB01E3DB2A090EDB2A110EDB2ADBCF5D
:10BED000E9FF120EE8E3DB2AE6D77DDA01E15ED264
:10BEE00057D2030EDB8E070EDB0410E195DB040E48
:10BEF0005ADB0A0EEECFDBFF0B0EEECFDBFF0C0E94
:10BF0000EECFDBFF0D0EEECFDBFF6CD0070EDB506C
:10BF100003082CE1030EDBAE0DD0B2DA020E76DAA6
:10BF2000EFCF00F0016A026A036A00AE39D00168FF
:10BF3000026835D0F70EDBCF01F0F80EDBCF02F050
:10BF4000020E015E000E025AF70E01C0DBFFF80E72
:10BF500002C0DBFF01C0E9FF02C0EAFFEFCF00F043
:10BF60000A0E00C0DBFF0B0EDB6A38D0070EDB5079
:10BF7000020809E1030EDBAE04D059DB02AE10D09B
:10BF80000ED055DB0DD0030EDBAE12D079DA020EE7
:10BF90003DDAF9DA026A036A01AE02D00268036888
:10BFA000E2DA0C0E02C0DBFF0D0E03C0DBFF1AD07D
:10BFB000F70EDBCF02F0F80EDBCF03F0020E025ECD
:10BFC000000E035AF70E02C0DBFFF80E03C0DBFFC2
:10BFD00002C0E9FF03C0EAFFD6DAC5DA0C0EDB6A5D
:10BFE0000D0EDB6A060EDB5005E1010EF36E050E49
:10BFF000F3CFDBFF150EDB6A160EDB6AD950370F65
:10C00000006E000EDA20016E390E00C0DBFF3A0E22
:10C0100001C0DBFF380EDB6A080EDB6A0A0EAEDAFF
:10C02000DF50780A12E0200A10E0280A0CE0200A0B
:10C030000AE03F0A06E00D0A02E0200A08E1020ECB
:10C0400005D0080E03D0080EDF26100E97DA030E77
:10C05000DBBE02D0DB92DB94DB50800B24E08ADA7B
:10C06000D890030EEB50000A08E6000EEE5C000EBE
:10C07000EE58000EEE58000EEE5815E213DA236863
:10C08000246825682668E5EC76F00A0E1AC0DBFF06
:10C090000B0E1BC0DBFF0C0E1CC0DBFF0D0E1DC00A
:10C0A000DBFF2D0E08D0030EDBA202D02B0E03D037
:10C0B000DBA408D0200EF36E170EF3CFDBFF150EB6
:10C0C000DB2A02D0170EDB6A050EDB5003E1B7D97D
:10C0D00001E189D0B00E006EF00E016E000E026E0E
:10C0E000070EDBCF03F0046A056A066A03C023F07B
:10C0F00004C024F005C025F006C026F0D3D9D2EC48
:10C1000077F000501A24F36E01501B20F46E025099
:10C110001C20F86EF4CFF7FFF3CFF6FF0800090EEE
:10C12000F5CFDBFF580EDF5C0FE1610EF36E090EF9
:10C130007BD90AE3200E006E090EDBCFE7FF00502B
:10C14000E75E090EE7CFDBFF070EDBCF00F0016AE9
:10C15000026A036A0FDA00C023F001C024F002C0B3
:10C1600025F003C026F0EECF1EF0EECF1FF0EECF8D
:10C1700020F0EFCF21F0D2EC77F021C0EDFF20C00E
:10C18000EDFF1FC0EDFF1EC0EFFF390EDBCFE9FF53
:10C19000DB063A0EDBCFEAFF01E2DB06090EDBCF5E
:10C1A000EFFF150EDB2A4BD995E1030EDBA61DD060
:10C1B0006F0EDF5C06E1C1D918E3150EDB285BDAF0
:10C1C00014D0780EDF5C09E0580EDF5C06E0620EEA
:10C1D000DF5C03E0420EDF5C08E1020EF36E160E38
:10C1E000F3CFDBFF02D0150EDB6A030EDB50100B22
:10C1F0000EE0040EDBCF00F0050EDB50D8800054BB
:10C2000006E2060EDB5003E1040EDB5034DA95D96A
:10C210000AE2050EDBCFE7FF150EDB50E75E050EE9
:10C22000E7CFDBFF02D0050EDB6A040EDBCF00F0A8
:10C23000160E45D9D880005414E2160EDBCFE6FF67
:10C24000150EDBCFE6FF040EDBCFE6FF050EDB505D
:10C25000E552E75CE552D880E754E552D880E754D0
:10C260005FD9030EDB50010B0BE1080EDB5008E039
:10C27000B2D801E08DD0080EDB50BED8080EDB6AC4
:10C28000170EDB5007E088D9170EF1D903E1011C26
:10C2900001E17ED0160EDB5016E07ED9300EE66E40
:10C2A0009FD802E1011C74E077D9DFCFE6FFA3EC51
:10C2B00076F0E552E552E552F4CF01F00001F31CAF
:10C2C00002E1011C65E0050EDBCF00F0160EDB502D
:10C2D000D880005409E2050EDBCFE7FF160EDB50D5
:10C2E000E75E050EE7CFDBFF300EE66E050ECBD91D
:10C2F0004FE1390EDB2ADBCFE9FF3A0E01E3DB2AFF
:10C30000DBCFEAFF090EEFCFDBFFDB500EE044D9B5
:10C31000090EADD902E1011C3BE0390EDB2ADBCF6F
:10C32000E9FF3A0EEDE3DB2AEBD755D831E1160EE3
:10C33000DBCFE6FF080EC3D8E552E7245DD82ED048
:10C34000070EDB50030A1CE0010A14E0030A07E0B1
:10C350007BD9DBCFEEFF020EDBCFEDFF1FD0F5D890
:10C36000056A03AE02D0046805682CD8BCD805C0A5
:10C37000EEFF14D0EAD803BE046824D8B4D80ED097
:10C3800063D9DBCFEFFF0AD07BD905E1011C03E1C4
:10C39000F368F46810D0FCD801E3DB2A79D96DEF9B
:10C3A0005DF0010EDBCF00F0020EDBCF01F000C02C
:10C3B000F3FF01C0F4FF3B0EE15C02E2E16AE552EB
:10C3C000E16ECBD029D9020ED3EF62F061D908001B
:10C3D000F550DF6E1200200EE66E080E43EF63F09C
:10C3E000A3EC76F0E552E552E552F3CF00F0F4CF3E
:10C3F00001F00001F31C1200006E016AD950010F18
:10C400004DD90050EE260150ED221200045E000EC0
:10C41000055AF70E04C0DBFFF80E05C0DBFF04C0B1
:10C42000E9FF05C0EAFF1200DBCFF4FFF350F45C34
:10C430001200DB50E76E040EE7CFDBFF12000A0E9E
:10C44000DBCF00F00B0EDBCF01F00C0EDBCF02F0E8
:10C450000D0EDBCF03F0005001100210031012008C
:10C46000130EEECFDBFF140EEDCFDBFF130EDBCF91
:10C4700000F0140EDBCF01F00001800E0114120059
:10C48000F70EDBCF04F0F80EDBCF05F01200050E3F
:10C49000DB50E66ED950130F01D9E552E750EE6E2E
:10C4A000ED6A12000A0EDBCF1EF00B0EDBCF1FF081
:10C4B0000C0EDBCF20F00D0EDBCF21F01200DBCF16
:10C4C000E6FF150EDBCFE6FF050EDB50E552E72455
:10C4D000E552E7241200DB50CED8010EF36E060EB3
:10C4E000F3CFDBFF1200EE50EFCFEAFFE96E02C0A0
:10C4F000EEFF03C0EEFF04C0EEFF1200D9CFE6FF4F
:10C50000DACFE6FFE1CFD9FFE2CFDAFF1200DFCFCB
:10C51000E6FFE66A0CEC78F0E552E552F3501200C3
:10C52000E76E080EE7CFDBFF1200EECF00F0EECF94
:10C5300001F0EFCF02F0036A1200050EDBCF00F02E
:10C54000150EDB50D88000541200010EDBCF02F034
:10C55000020EDBCF03F0046A1200E552E5CFDAFFEA
:10C56000E7CFD9FF12000A0E00C0DBFF0B0E01C09F
:10C57000DBFF1200D9500A0F4EEF63F0F36E070E87
:10C58000F3CFDBFF1200EECF00F0EFCF01F012008F
:10C59000010EDB2A020E1200FC0EDBCFE6FFFD0EC1
:10C5A000DBCFE6FF1200005E000E015AF70E00C05E
:10C5B000DBFFF80E01C0DBFF00C0E9FF01C0EAFFAE
:10C5C0001200DA20EA6EEF2AEECFF6FF000EEF221D
:10C5D000EECFF7FFEF22EECFF8FF1200040EDBCF15
:10C5E000E6FF130EDB50E552E75C9ADFDB5004DF19
:10C5F000060EDB501200090EDB500A0DF350DF244B
:10C60000D00FE76E090EE7CFDBFFE6EF61F0DB50FE
:10C61000F36E050E14EF62F0F70EDBCF00F0F80EAC
:10C62000DBCF01F01200DFCFE6FFF0EF61F028DF93
:10C63000030EECDE95EF62F042EC5DF0E552E55260
:10C64000E552E55200091200BDDEEE50EFCFEAFFE1
:10C65000E96E010E1200130EDB50F36E040E14EFA0
:10C6600062F0040EDB50F36E090E14EF62F0DBCFC4
:10C67000E6FFF0EF61F0E76E050EE7CFDBFF12009B
:10C680008BDF13EF63F0DBCFE6FF86DF1CEF63F099
:10C69000D950F90FE96EFF0EE1EF62F0E96E000E7E
:06C6A000DA20EA6E120030
:0AC6A600D9CFE6FFE1CFD9FF020E65
:10C6B000E126FD0EDBCF00F0DB06FE0EDBCF01F046
:10C6C00001E2DB060050011011E0DE6ADD6ADECF18
:10C6D00000F0DDCF01F0E30E005C0D0E015805E225
:10C6E000DF2A010E01E3DB2AF2D7E3D7020EE15C79
:10C6F00002E2E16AE552E16EE552E7CFD9FF1200AE
:10C70000D9CFE6FFE1CFD9FF060EE1268D929692B2
:10C710008D9096908D8496948A9A939A8C92DE6AE4
:10C72000DE6ADE6ADD6ADD52DD52D9CFE9FFDACF9B
:10C73000EAFF640EEE5C000EEE58000EEE58000E9E
:10C74000EE580AE2D9CFE9FFDACFEAFFEE2A000E6F
:10C75000EE22EE22EE22E9D78C82DE6ADE6ADE6A03
:10C76000DD6ADD52DD52D9CFE9FFDACFEAFF640E90
:10C77000EE5C000EEE58000EEE58000EEE580AE287
:10C78000D9CFE9FFDACFEAFFEE2A000EEE22EE2241
:10C79000EE22E9D7AE0EE66E70D8E552DB0EE66EFD
:10C7A0006CD8E552230EE66E68D8E552D90EE66ED7
:10C7B00064D8E552220EE66E60D8E552A10EE66E10
:10C7C0005CD8E552C80EE66E58D8E552DA0EE66E31
:10C7D00054D8E552120EE66E50D8E552A80EE66E19
:10C7E0004CD8E5523F0EE66E48D8E552D50EE66EBF
:10C7F00044D8E552A00EE66E40D8E552810EE66EB2
:10C800003CD8E552600EE66E38D8E552D30EE66E9F
:10C8100034D8E552E66A31D8E552A60EE66E2DD838
:10C82000E552AD0EE66E29D8E5528B0EE66E25D8A0
:10C83000E552AF0EE66E21D8E5520A0EE66EE66AC4
:10C8400032DFE552E552A40EE66E17D8E552400EEF
:10C85000E66E13D8E552020EE66E0FD8E552100EC2
:10C86000E66E0BD8E552060EE15C02E2E16AE552A3
:10C87000E16EE552E7CFD9FF1200D9CFE6FFE1CF55
:10C88000D9FF956AFE0EDB508C6E8D808D828A9A60
:10C890008D948D928D828D849568E552E7CFD9FF76
:10C8A0001200D9CFE6FFE1CFD9FF956AFE0EDB502B
:10C8B0008C6E8D808D828A8A8D948D928D828D84EE
:10C8C0009568E552E7CFD9FF1200D9CFE6FFE1CF57
:10C8D000D9FF020EE126B00EDF6EB80EDF5C23E258
:10C8E000DFCFE6FFCADFE552020EE66EC6DFE55295
:10C8F000100EE66EC2DFE552010EDB6ADB50006E01
:10C90000016AD890015004E6840E005C000E0158C4
:10C9100008E2FE0EDBCFE6FFC4DFE552010EDB2AA4
:10C92000EDD7DF2ADAD7020EE15C03E200D0E16A3C
:10C93000E552E16EE552E7CFD9FF1200D9CFE6FF0D
:10C94000E1CFD9FF640EE66EFD0EDBCFE6FF3C0EB5
:10C95000E66EE66AD2D8E552E552E552E55200D0DD
:10C96000E552E7CFD9FF1200D9CFE6FFE1CFD9FFDB
:10C97000200E006EFE0EDBCFE7FF0050E75EFE0EDE
:10C98000E7CFDBFFDBCFF6FFF76AF6BEF768050EF1
:10C99000F702F3CFF7FFF602F3CFF6FFF450F726D6
:10C9A000F20EF626E00EF7220800F550E66E79DF6B
:10C9B000E552FE0EDBCFF6FFF76AF6BEF768050E0E
:10C9C000F702F3CFF7FFF602F3CFF6FFF450F726A6
:10C9D000F20EF626E00EF722010EF626000EF722E2
:10C9E0000800F550E66E5DDFE552FE0EDBCFF6FF88
:10C9F000F76AF6BEF768050EF702F3CFF7FFF60207
:10CA0000F3CFF6FFF450F726F20EF626E00EF722EB
:10CA1000020EF626000EF7220800F550E66E41DF02
:10CA2000E552FE0EDBCFF6FFF76AF6BEF768050E9D
:10CA3000F702F3CFF7FFF602F3CFF6FFF450F72635
:10CA4000F20EF626E00EF722030EF626000EF7226F
:10CA50000800F550E66E25DFE552FE0EDBCFF6FF4F
:10CA6000F76AF6BEF768050EF702F3CFF7FFF60296
:10CA7000F3CFF6FFF450F726F20EF626E00EF7227B
:10CA8000040EF626000EF7220800F550E66E09DFC8
:10CA9000E552E66A06DFE55200D0E552E7CFD9FF5E
:10CAA0001200D9CFE6FFE1CFD9FFE652FD0EDBCF72
:10CAB000E6FFE3DEE552020E006EFC0EDBCFE7FF81
:10CAC0000050E726FC0EE7CFDBFFDB500F0BE66ED6
:10CAD000D4DEE552FC0EDB380F0B0F0B100FE66EA9
:10CAE000CCDEE552FE0EDBCFE6FF3EDFE55200D0A6
:10CAF000E552E552E7CFD9FF1200D9CFE6FFE1CFEB
:10CB0000D9FFFC0EDB50B00FE76EFC0EE7CFDBFF6A
:10CB1000FB0EDBCFE6FFFC0EDBCFE6FFFD0EDBCF2F
:10CB2000F6FFFE0EDBCFF7FF0800F550E66EB9DF2B
:10CB3000E552E552E552FD0EDB2ADBCFF6FFFE0E95
:10CB400001E3DB2ADBCFF7FF0800F5500CE0FD0E18
:10CB5000DBCFF6FFFE0EDBCFF7FF0800F550E66EE9
:10CB600003DFE552E8D7E552E7CFD9FF1200D9CF6E
:10CB7000E6FFE1CFD9FFFC0EDB50B00FE76EFC0EF5
:10CB8000E7CFDBFFFB0EDBCFE6FFFC0EDBCFE6FFE4
:10CB9000FD0EDBCFE9FFFE0EDBCFEAFFEF50E66EC6
:10CBA00080DFE552E552E552FD0EDB2ADBCFE9FFDF
:10CBB000FE0E01E3DB2ADBCFEAFFEF500BE0FD0EB8
:10CBC000DBCFE9FFFE0EDBCFEAFFEF50E66ECCDEF7
:10CBD000E552EAD7E552E7CFD9FF1200D9CFE6FFF9
:10CBE000E1CFD9FF050EE126030EDB6A040EDB6AF6
:10CBF000020E006EFA0EDBCFE7FF0050E726FA0EBA
:10CC0000E7CFDBFFF90EDB50B00FDF6EFB0EDB5022
:10CC1000B00FDF5C35E2DFCFE6FF2FDEE552FA0E24
:10CC2000DB500F0BE66E29DEE552FA0EDB380F0BF8
:10CC30000F0B1009E66E21DEE552010EDB6AFC0ED9
:10CC4000DB50F36E010EDBCFF4FFF350F45C16E221
:10CC5000030EDB2A040E01E3DB2AFD0EDBCFF6FF19
:10CC6000DB2AFE0EDBCFF7FF01E3DB2A0800F550DD
:10CC7000E66E17DEE552010EDB2AE1D7DF2AC6D7C2
:10CC8000050EE15C03E200D0E16AE552E16EE55297
:10CC9000E7CFD9FF1200D9CFE6FFE1CFD9FF070ECA
:10CCA000E126B00EF36E060EF3CFDBFF020E006E30
:10CCB000FD0EDBCFE7FF0050E726FD0EE7CFDBFFE1
:10CCC000200E006EFE0EDBCFE7FF0050E75EFE0E8B
:10CCD000E7CFDBFF050EF36E040EF3CFDBFF050E8F
:10CCE000DB6A040EDBCF00F0050EDBCF01F0013470
:10CCF00004E200500108000E015474E2060EDBCF7E
:10CD0000E7FF040EDB50E726060EE7CFDBFFDBCFA5
:10CD1000E6FFB3DDE552FD0EDB500F0BE66EADDD39
:10CD2000E552FD0EDB380F0B0F0B100FE66EA5DD85
:10CD3000E552DE6ADD6ADECF00F0DDCF01F0D8908B
:10CD4000015004E6050E005C000E01583BE2020EA5
:10CD5000DB6A030EDB6A020EDBCF00F0030EDBCFD3
:10CD600001F0D890015004E6030E005C000E01585B
:10CD700024E2FE0EDBCF00F0016A00BE0168050E62
:10CD80000102F3CF01F00002F3CF00F0F4500126CE
:10CD9000CD0E0026E20E0122DE500024F66EDD509C
:10CDA0000120F76E0800F550E66E7BDDE552020EBD
:10CDB000DB2A030E01E3DB2ACED7DF2A010E01E3D3
:10CDC000DB2AB9D7B00EF36E060EF3CFDBFFFE0EF3
:10CDD000DB2AE66A66DDE552040EDB06050E01E29B
:10CDE000DB067FD7070EE15C03E200D0E16AE55283
:0ACDF000E16EE552E7CFD9FF120013
:06CDFA00D9CFE6FFE1CFF6
:10CE0000D9FFE65295688D808D828A8A8D948D90A7
:10CE100000000000000000000000000000008D8005
:10CE200000008D9000008350DF6E8D808D84E55270
:10CE3000E552E7CFD9FF1200D9CFE6FFE1CFD9FF06
:10CE4000020EE126FD0EDBCFE9FFFE0EDBCFEAFF8F
:10CE5000EF50DE6EDD6AF90EDBCFE9FFFA0EDBCFB5
:10CE6000EAFFEF50E66EFD0EDBCFE9FFFE0EDBCFF3
:10CE7000EAFFE552E750EF6EF90EDBCFE9FFFA0E5D
:10CE8000DBCFEAFFDFCFEFFFFB0EDBCFE9FFFC0ECE
:10CE9000DBCFEAFFEF50DE6EDD6AF70EDBCFE9FF96
:10CEA000F80EDBCFEAFFEF50E66EFB0EDBCFE9FFBB
:10CEB000FC0EDBCFEAFFE552E750EF6EF70EDBCF5B
:10CEC000E9FFF80EDBCFEAFFDFCFEFFF020EE15CF8
:10CED00002E2E16AE552E16EE552E7CFD9FF1200C6
:10CEE000D9CFE6FFE1CFD9FFE652E00EE66E3DEC8A
:10CEF00064F0E55282DFDF6EFE0EDB50DF1ADFCF1B
:10CF0000E6FF51EC64F0E552EE0EE66E3DEC64F0A7
:10CF1000E552E552E552E7CFD9FF1200D9CFE6FF3F
:10CF2000E1CFD9FFFE0EDB50B00FE66E3DEC64F0B2
:10CF3000E552020E006EFD0EDBCFE7FF0050E72644
:10CF4000FD0EE7CFDBFFDB500F0BE66E3DEC64F030
:10CF5000E552FD0EDB380F0B0F0B100FE66E3DECAC
:10CF600064F0E552E552E7CFD9FF1200D9CFE6FFD2
:10CF7000E1CFD9FF040EE126DF6AFD0EDB40E84079
:10CF8000E8401F0BE76E020EE7CFDBFFFD0EDB5024
:10CF9000070BE76E030EE7CFDBFF010EDB6A030E24
:10CFA000DB50070815E3FC0EDB5012E0010EF36EB8
:10CFB000030EDB5004E0D890F336E806FCE1F350B2
:10CFC000DF12010EDB2AFC0EDB06030EDB2AE7D79D
:10CFD000FE0EDBCFE6FF020EDBCFE6FF9FDFE55262
:10CFE000E552DFCFE6FF7CDFE552FB0EDBCF00F042
:10CFF000000EE76E0018E8AE02D0003403D0E75010
:10D00000D880005419E2FE0EDB50016E026AD890FF
:10D01000025004E6830E015C000E02580DE2FE0E83
:10D02000DB28E66E020EDBCFE6FF78DFE552E55245
:10D03000DFCFE6FF55DFE552FB0EDBCF00F0010E40
:10D04000E76E0018E8AE02D0003403D0E750D88075
:10D05000005411E2FE0EDB5000080DE2FE0EDB0470
:10D06000E66E020EDBCFE6FF59DFE552E552DFCF79
:10D07000E6FF36DFE552010EDB50006E040EE15C88
:10D0800003E200D0E16AE552E16E0050E552E7CFDD
:10D09000D9FF1200D9CFE6FFE1CFD9FF020EE1267A
:10D0A000010EDF6EFC0EDBCF00F0000EE76E001805
:10D0B000E8AE02D0003403D0E750D880005407E235
:10D0C000FD0EDB50000803E2FD0EDB06DF2AFC0E3E
:10D0D000DBCF00F0010EE76E0018E8AE02D000349E
:10D0E00003D0E750D880005408E2FD0EDB50DF2467
:10D0F000016E3F0E015C01E2DF2ADF501EE0E66AAE
:10D10000DFCFE6FFFD0EDBCFE6FFFE0EDBCFE6FF57
:10D110002DDFE552E552E552E552E76E010EE7CF0D
:10D12000DBFFDB50DF5EFD0EDBCFE7FF010EDB50E8
:10D13000E726FD0EE7CFDBFFE0D7020EE15C02E25F
:10D14000E16AE552E16EE552E7CFD9FF1200D9CF8F
:10D15000E6FFE1CFD9FF160EE126FD0EDBCF00F092
:10D16000FB0EDB50D88000541DE2D950FB0FE66E59
:10D17000FF0EDA20E66ED950FC0FE66EFF0EDA20C5
:10D18000E66ED950FD0FE66EFF0EDA20E66ED9503E
:10D19000FE0FE66EFF0EDA20E66E4EDE006E080E23
:10D1A000E15E0050FB0EDBCFE6FFFD0EDB50E552EB
:10D1B000E75C010FE76E060EE7CFDBFFFE0EDB50EC
:10D1C000F36EFC0EDBCFF4FFF350F45C14E3FC0EC3
:10D1D000DBCFE6FFFE0EDB50E552E75C010FE76EAA
:10D1E000050EE7CFDBFF010EF36E070EF3CFDBFF7B
:10D1F000080EDB6A10D0FE0EDBCFE6FFFC0EDB5024
:10D20000E552E75C010FE76E050EE7CFDBFF070E87
:10D21000DB68080EDB68050EDB50F36E060EDBCF15
:10D22000F4FFF350F45C01E2CCD0060EDB50640D49
:10D230000D0EF3CFDBFF0E0EF4CFDBFF050EDB5040
:10D24000006E016A0D0EDBCF20F00E0EDBCF21F059
:10D2500000C025F001C026F055EC6BF00B0E20C08D
:10D26000DBFF0C0E21C0DBFFFE0EDB50DF6EFD0E80
:10D27000DB50E76E010EE7CFDBFF150EDB6AFC0E1D
:10D28000DB50006E016A00C020F001C021F0070EE3
:10D29000DBCF25F0080EDBCF26F07BEC6BF0090E20
:10D2A0001EC0DBFF0A0E1FC0DBFFDF50026E036AE9
:10D2B00002C020F003C021F0070EDBCF25F0080EDE
:10D2C000DBCF26F07BEC6BF01EC000F01FC001F03E
:10D2D000090EDBCF04F00A0EDBCF05F00550011874
:10D2E000E8AE02D0013404D00050045C015005586F
:10D2F00067E3640E026E036A150EDB50E76E0B0ED9
:10D30000DBCF00F00C0EDBCF01F0E7500026000E63
:10D310000122130E00C0DBFF140E01C0DBFF00C0B2
:10D3200020F001C021F002C025F003C026F055EC2A
:10D330006BF0020E20C0DBFF130EDBCF00F0140EEB
:10D34000DBCF01F0640E256E266A00C020F001C01C
:10D3500021F055EC6BF01CC000F01DC001F0150E63
:10D3600000C0DBFF020EDB5027E0FA0EDBCFE6FF4A
:10D37000020EDBCFE6FF010EDBCFE6FFDFCFE6FFDD
:10D38000F5DDE552E552E552E552E76E040EE7CFD2
:10D39000DBFF020EDBCFE7FF040EDB50E75E020E81
:10D3A000E7CFDBFF010EDBCFE7FF040EDB50E72604
:10D3B000010EE7CFDBFFD6D7070EDB50DF2675D790
:10D3C00085D0050EDB50640D110EF3CFDBFF120E7E
:10D3D000F4CFDBFF060EDB50006E016A110EDBCFCF
:10D3E00020F0120EDBCF21F000C025F001C026F0A6
:10D3F00055EC6BF00F0E20C0DBFF100E21C0DBFFE1
:10D40000FE0EDB50DF6EFD0EDB50E76E010EE7CF48
:10D41000DBFF150EDB6A010EDBCF00F0FB0EDB50ED
:10D42000D880005453E3640E026E036A150EDB507D
:10D43000E76E0F0EDBCF00F0100EDBCF01F0E750F0
:10D440000026000E0122130E00C0DBFF140E01C0E7
:10D45000DBFF00C020F001C021F002C025F003C0B6
:10D4600026F055EC6BF0030E20C0DBFF130EDBCF74
:10D4700000F0140EDBCF01F0640E256E266A00C0AA
:10D4800020F001C021F055EC6BF01CC000F01DC075
:10D4900001F0150E00C0DBFF030EDBCFF3FFDB0650
:10D4A000F350000910E0FA0EDBCFE6FF010EDBCFF0
:10D4B000E6FFDFCFE6FFEEDDE552E552E552070E6F
:10D4C000DB50DF26E9D7010EDB2AA5D7150EDB508E
:10D4D00032080CE2FA0EDBCFE6FF010EDBCFE6FFEF
:10D4E000DFCFE6FFD7DDE552E552E552160EE15CEF
:10D4F00002E2E16AE552E16EE552E7CFD9FF1200A0
:10D50000199E08D0199E21AE05D0206C211EE86A14
:10D510002122198E21C01BF020C01AF02B6A2A6A22
:10D520008E0E1C6E1D6AC4EF6BF0196A00EC6CF075
:10D5300018EC6CF019B6A8EF6BF019A205D019BA67
:10D54000A8EF6BF0AFEF6BF019BABBEF6BF019A05F
:10D5500005D019B8A8EF6BF0BBEF6BF019B8AFEFBF
:10D560006BF01D6A7F0E22241C6EE86A1D22275074
:10D570001C5EE86A1D5A1A0E286E226A2A6A2B6AF5
:10D580001A6A1B6A24501F5E2550205A2650215AC1
:10D59000000E225A09E724501F262550202226502B
:10D5A0002122000E222201D02A8AD8901F3620364E
:10D5B00021362236D8902A362B361A361B36282E9C
:10D5C000E1D7215020101F10D8A42A8AC4EF6BF095
:10D5D000196A00EC6CF018EC6CF019B6A8EF6BF05F
:10D5E00019A205D019B8A8EF6BF0AFEF6BF019AA2C
:10D5F00005D019B0A8EF6BF0AFEF6BF019B002D007
:10D6000019A802D0BBEF6BF01D6A275022241C6EB4
:10D61000E86A1D227E0E1C5EE86A1D5A2A6A2B6A81
:10D620001A6A1B6A26502102F4CF1BF0F3CF1AF0BE
:10D6300025502102F3502B26F4501A22000E1B22F3
:10D6400026502002F3502B26F4501A22000E1B22E3
:10D6500024502102F3502A26F4502B22000E1A22C5
:10D660001B2225502002F3502A26F4502B22000EB4
:10D670001A221B2226501F02F3502A26F4502B2276
:10D68000000E1A221B2224502002F4502A26000EDB
:10D690002B221A221B2225501F02F4502A26000E8C
:10D6A0002B221A221B22C4EF6BF0186A26AE5EEF03
:10D6B0006BF0256C261EE86A2622181E21AE66EF46
:10D6C0006BF0206C211EE86A2122181EF6EC77F020
:10D6D00021BE76EF6BF018AE000C206C211EE86ABC
:10D6E00021221C6C1D1EE86A1D22000C18BE6DEF65
:10D6F0006BF01988FF0C21C02BF020C02AF02050BD
:10D700002502F4CF1FF0F3CF1EF021502602F4CFF4
:10D7100021F0F3CF20F02502F3501F26F4502022F1
:10D72000E86A21222A502602F3501F26F4502022B4
:10D73000E86A212226AEA1EF6BF02A50205E2B5022
:10D74000215A2BAE000C2550205E2650215A000C89
:10D750007F0E226EFF0E216E206E1F6E12007F0E56
:10D7600019BEFF0E226E02D07F0E226E800E216E39
:10D77000206A1F6AF3D719AE04D0800E226E216A88
:10D78000F7D7226A216AF4D71B501A102B102A10DF
:10D79000F8E01DBEF0D71BBE0CD01C501D10EBE0F6
:10D7A000D8902A362B361A361B361C06D8A01D06F2
:10D7B000F2D71D50D4E11C28D2E02AAE11D07F0E42
:10D7C0002A1402E12BA00CD02B2AE86A1A221B2271
:10D7D00007E3D8801B321A322B321C2A1C28BFE0E8
:10D7E0001C50C9E02BC01FF01AC020F01B34216E62
:10D7F0001C30226E2132229E19BE228EAEEF6BF0BB
:10D800002136223602E31984197E06E11980226A44
:10D81000216A206A1F6A1200222803E0D880213280
:10D820001200D890213202E11982120019861200EA
:10D830002636273602E3198C197E06E11988276AF5
:10D84000266A256A246A1200272803E0D880263237
:10D850001200D8902632EAE1198A1200199E0CD0E3
:10D86000199E21AE09D01E6C1F1E201E211EE86AC3
:10D870001F2220222122198E21C01BF020C01AF065
:10D880001FC02BF01EC02AF09E0E1C6E1D6AC4EF36
:10D890006BF0277E196A00EC6CF018EC6CF019B68E
:10D8A000A8EF6BF019A20AD019AA03D019BEA8EFED
:10D8B0006BF019A4B4EF6BF0B1EF6BF019AA05D0BF
:10D8C00019ACB4EF6BF0B1EF6BF019A00AD019A846
:10D8D00008D019BE04D019A402D0BDEF6BF0C1EF7F
:10D8E0006BF02A6A1D6A2750225C296E10E31FC064
:10D8F0002BF020C01AF021C01BF022C028F024C059
:10D900001FF025C020F026C021F0193A09D024C00C
:10D910002BF025C01AF026C01BF027C028F0296C78
:10D92000199E19BC198E28C01CF019B0F0EF6BF0CD
:10D930001A0E2960F0EF6BF01C6A226A19A408D055
:10D940001F6C201E211E221EE86A20222122222274
:10D9500019AC08D02B6C1A1E1B1E1C1EE86A1A225A
:10D960001B221C221E6A295207E022342132203257
:10D970001F321E32292EF9D71F502B2620501A2273
:10D9800021501B2222501C221EC02AF0199E1CAEC0
:10D990000BD02A6C2B1E1A1E1B1E1C1EE86A2B2283
:10D9A0001A221B221C22198E1CA006D0D8801B32E2
:10D9B0001A322B322A32282A28C01CF0C4EF6BF00E
:10D9C000196A00EC6CF019B6EAEF6CF019A20ED0EF
:10D9D00019B405D07F0E216EFF0E206E1FD0800E71
:10D9E000216E206A1BD0216A206A18D019B0FBD79B
:10D9F0008F0E2260EDD77E0E2264F5D78E0E225C4C
:10DA000005E0D89021322032222AF8D719A406D076
:10DA1000206C211EE86A212221AEE5D71200196A86
:10DA200000EC6CF019B619EF6DF019A20FD019B413
:10DA300007D07F0E216EFF0E206E1F6E1E6E25D04A
:10DA4000800E216E01D0216A000EF6D719B0FBD7E7
:10DA50001E6A9F0E2260EBD77E0E2264F4D79E0EC4
:10DA6000225C07E0D890213220321F321E32222A57
:10DA7000F6D719A40AD01E6C1F1E201E211EE86AAC
:10DA80001F222022212221AEDED712004FEC6DF0A2
:10DA900019B6000C19B0000C19A4000C010C196A7D
:10DAA00000EC6CF018EC6CF019B6120019AE08D04E
:10DAB00019A004D019A802D01980120019901200E0
:10DAC0002750225C0BE12650215C08E12550205CA8
:10DAD00005E124501F5C02E119801200D8A002D099
:10DAE000198E10D0225027C022F0276E215026C058
:10DAF00021F0266E205025C020F0256E1F5024C036
:10DB00001FF0246E2750225C10E0FF0F09E01990EF
:10DB100019B403D019AE1984120019AE1994120069
:10DB2000272AD89026322532243224501F5E2550D1
:10DB3000205A2650215A21BEEAD7D8901F362036C7
:08DB40002136222EF8D7C8D7C8
:08DB4800D9CFE6FFDACFE6FFBA
:10DB5000E1CFD9FFE2CFDAFF220EE12402E3E16850
:10DB6000E652E16ED950130FE66E000EDA20E66E33
:10DB7000A8DAAAEC74F0006E060EE15C02E2E16A3B
:10DB8000E552E16E0050E76E0E0EE7CFDBFFDB5093
:10DB9000840B0CE0210E0001CC6FCD6B0F0EDB6807
:10DBA000100EDB68110EDB687F0E6ED08ADA36DA73
:10DBB000020E1EC0DBFF030E1FC0DBFF040E20C0E1
:10DBC000DBFF050E21C0DBFF87DA246A100E256E0D
:10DBD000490E266E460E14DA46EC6DF0010A32E06C
:10DBE0007BDA67DA0DDA95EC6AF0BFD9060EDBCF87
:10DBF0001FF0070EDBCF20F0080EDBCF21F0090E5F
:10DC0000DBCF22F00FEC6DF030EC6CF0AED964DAC3
:10DC1000060EDBCF08F0070EDBCF09F0080EDBCFD6
:10DC20000AF0090EDBCF0BF044DA276E08C01FF0B4
:10DC300009C020F00AC021F00BC022F048DA49ECFC
:10DC40006CF0C4D9F90EDB5012E00E0EDB040BE1D0
:10DC5000FA0EDBCF00F0FB0EDBCF01F0FC0EDBCFCA
:10DC600002F0FD0E52D167D9266AF8D947D00E0EC0
:10DC7000DB0419E10F0EDB6A100EDB6A800EF36E17
:10DC8000110EF3CFDBFF3F0EF36E120EF3CFDBFF6F
:10DC90000F0EDBCF00F0100EDBCF01F0110EDBCF4B
:10DCA00002F0120E32D1190EDB6A45D9800E266EB3
:10DCB000D5D9006A016A026A3F0E036ED950060F79
:10DCC000E96E000EDA20EA6EEECF1FF0EECF20F004
:10DCD000EECF21F0EFCF22F000C024F001C025F0FC
:10DCE00002C026F003C027F049EC6CF022C0EDFF23
:10DCF00021C0EDFF20C0EDFF1FC0EFFFDF50010B83
:10DD00000AE0190EDB5002E0000E01D0010EE76EB2
:10DD1000190EE7CFDBFF8CD9060EDBCF0CF0070E18
:10DD2000DBCF0DF0080EDBCF0EF0090EDBCF0FF0CE
:10DD3000246A256A490E266E400E276E0CC01FF01D
:10DD40000DC020F00EC021F00FC022F0E8EC6AF008
:10DD50005CD9A6D995D949EC6CF077D9060EDBCF02
:10DD600014F0070EDBCF15F0080EDBCF16F0090E0E
:10DD7000DBCF17F0220E246EAA0E256E7D0E266EC6
:10DD80003A0E276E14C01FF015C020F016C021F007
:10DD900017C022F0E8EC6AF01FC010F020C011F0AC
:10DDA00021C012F022C013F0EDD849EC6CF00A0E3D
:10DDB0001FC0DBFF0B0E20C0DBFF0C0E21C0DBFF02
:10DDC0000D0E22C0DBFFD9500A0FE96E000EEAD813
:10DDD00025D91EC000F01FC001F020C002F021C0F4
:10DDE00003F0246A256A800E266E390E276E1EC047
:10DDF0001FF04FD946EC6DF0010A13E1D9500A0F1C
:10DE0000E96E000EDA20EA6E020EEECFDBFF030EA3
:10DE1000EECFDBFF040EEECFDBFF050EEECFDBFF18
:10DE200068D0E1D80A0EDBCF24F00B0EDBCF25F053
:10DE30000C0EDBCF26F00D0EDBCF27F0E8EC6AF0FE
:10DE40001A0E1FC0DBFF1B0E20C0DBFF1C0E21C003
:10DE5000DBFF1D0E22C0DBFF5B0E1F6E9C0E206ED3
:10DE60002E0E216E360E226E72D8CFD8220E246E60
:10DE7000B20E256E4F0E266EB90E32D99ED83E0ECA
:10DE8000246E870E256E080E266E3C0E29D9DDD82D
:10DE9000A40E246EAA0E256E2A0E266EBE0E20D962
:10DEA0001E0E1FC0DBFF1F0E20C0DBFF200E21C097
:10DEB000DBFF210E22C0DBFF0A0EDBCF00F00B0ED2
:10DEC000DBCF01F00C0EDBCF02F00D0EDBCF03F049
:10DED0008AD81E0EDBCF24F01F0EDBCF25F0200EDC
:10DEE000DBCF26F0210EDBCF27F0F1D84AEC6CF027
:10DEF0006DD8190EDB5008E09BD8246A256A800E85
:10DF0000266EBF0EF0D803D042D8DBCF03F000C09E
:10DF10001EF001C01FF002C020F003C021F0220E4D
:10DF2000E15C02E2E16AE552E16EE552E5CFDAFF3B
:10DF3000E7CFD9FF12007CD8830E246EF90E256E30
:10DF4000A20E266E3E0ECFD8246A256A12001A0E43
:10DF5000DBCF24F01B0EDBCF25F01C0EDBCF26F031
:10DF60001D0EDBCF27F0E8EF6AF0060E1FC0DBFFC7
:10DF7000070E20C0DBFF080E21C0DBFF090E22C008
:10DF8000DBFF12008DD800C01FF049EF70F0020EC9
:10DF9000DBCF00F0030EDBCF01F0040EDBCF02F08D
:10DFA000050E1200DA20EA6EEECFE6FFEECFE6FFB6
:10DFB000EECFE6FFEFCFE6FF12001FC004F020C057
:10DFC00005F021C006F022C007F01200020E1FC0AB
:10DFD000DBFF030E20C0DBFF040E21C0DBFF050EBC
:10DFE00022C0DBFF12000A0EDBCF1FF00B0EDBCFCF
:10DFF00020F00C0EDBCF21F00D0EDBCF22F0120053
:10E00000276E00C01FF049EF70F01FC008F020C05D
:10E0100009F021C00AF022C00BF0120050EC77F09A
:10E02000E552E552E552E5521200276E4AEF6CF0D8
:10E03000020EDBCF04F0030EDBCF05F0040EDBCFC6
:10E0400006F0050EDBCF07F012001FC000F020C065
:10E0500001F021C002F022C003F012003F0EE5DF04
:10E06000E0EC6CF020C0DEFF21C0DDFF000EDFCF52
:10E0700020F0010EDBCF21F082EC6AF0B5EF6FF0FB
:10E0800004C01FF005C020F006C021F007C022F038
:10E09000120001C020F002C021F003C022F01200E3
:10E0A0001FC024F020C025F021C026F022C027F098
:10E0B0001200DB0E246E0F0E256EC90E266E400E6A
:10E0C0001200D950FA0FE96EFF0ED2EF6FF0E8ECB4
:10E0D0006AF073DFC2EF6FF05ADFDBCF03F012009C
:10E0E000A4DFA7EF6FF0276ECBDFE8EC6AF025EF37
:02E0F00070F0CE
:0EE0F200000000000000004F000000070007C3
:10E1000000147F147F14242A7F2A122313086462C8
:10E1100036495522500005030000001C2241000032
:10E1200041221C0014083E081408083E080800504C
:10E13000300000080808080800606000002010088F
:10E1400004023E5149453E00427F40004261514930
:10E15000462141454B311814127F1027454545395A
:10E160003C4A494930017109050336494949360697
:10E170004949291E003636000000563600000814B2
:10E1800022410014141414140041221408020151F5
:10E190000906324979413E7E1111117E7F49494974
:10E1A000363E414141227F4141221C7F494949413C
:10E1B0007F090909013E4149497A7F0808087F0023
:10E1C000417F41002040413F017F081422417F40B0
:10E1D0004040407F020C027F7F0408107F3E414197
:10E1E000413E7F090909063E4151215E7F091929F7
:10E1F00046464949493101017F01013F4040403FC6
:10E200001F2040201F3F4038403F6314081463071D
:10E21000087008076151494543007F4141000204ED
:10E220000810200041417F000402010204404040E8
:10E230004040000102040020545454787F48444474
:10E24000383844444420384444487F38545454189F
:10E25000087E0901020C5252523E7F0804047800E5
:10E26000447D40002040443D007F10284400004190
:10E270007F40007C041804787C0804047838444407
:10E2800044387C14141408081414187C7C08040402
:10E29000084854545420043F4440203C4040207CD3
:10E2A0001C2040201C3C4030403C44281028440C9A
:10E2B0005050503C4464544C440008364100000027
:10E2C0007F000000413608000201020402000F0F27
:10E2D0000F00FF0F0000FFFF00F00FFFF00F0F0F08
:10E2E000F0000F0F0F000000FF00000000FF000013
:10E2F00000F0FF00000F0F0F0F0F00F00F000000E5
:10E300000000F00FF00F0F0FF0000F0F0F00F000E4
:10E310000000FF00000FF0000F0F0FFFF0000000E3
:10E320000F000F0F0FFFFFF00F00FF000000F0FFC6
:10E3300000000F0F0F00F0000000FF0F0F0F0FF095
:10E34000FF0F0F0F0F000F0F0F00FF000000FFFF68
:10E35000F0F0F00000F00F0F00000F00000000FFD1
:10E360000000000000F00F000F0F0F0FFF000F0F55
:10E370000F00FF000000FF0FF0F0F00FF00F0F0F85
:10E38000F0000F0F0000000000F00F0FF0F0F0FFA2
:10E39000F00F0F0FF0000000000000000000000070
:10E3A000000000000000000000000000000000006D
:10E3B000000000000000000000000000000000005D
:07E3C0000000000000000056
:01E3C7000055
:08E3C800D9CFE6FFE1CFD9FF38
:10E3D000030EE12659D8736A820E726E739C949470
:10E3E0009396958C7288728A949EE66AD0D8E5528C
:10E3F000E76E020EE7CFDBFF0000D950020FE96E97
:10E40000DACFEAFFEF50070B020801E00000140E1C
:10E41000E66EBDD8E552E76E020EE7CFDBFF020ED7
:10E42000DB96DB88020EDB80DB92DB94020EDBCF17
:10E43000E6FF140EE66E3AD8E552E552010EE66E9E
:10E44000A6D8E552DE6EDD6A0000110EE66E9FD89A
:10E45000E552DE6EDD6A0000E66A110EE66E26D831
:10E46000E552E5520000110EE66E91D8E552DE6EDF
:10E47000DD6A0000030EE15C02E2E16AE552E16E52
:10E48000E552E7CFD9FF1200550EA76EAA0EA76E70
:10E490000E01FF91090ECC6F0A0ED36F170EFB6FA2
:10E4A000550EA76EAA0EA76EFF811200D9CFE6FF08
:10E4B000E1CFD9FFE652DF6AFE0EDB50140804E01C
:10E4C000FE0EDB50340806E1140EE66E60D8E5520D
:10E4D000E00BDF6E8B9EA49EFE0EDB50756EA4AE2D
:10E4E000FED7000000000000000000000000000057
:10E4F000000000000000000000000000000000001C
:10E50000000000000000000000000000000000000B
:10E5100000000000000000000000000000000000FB
:10E5200000000000000000000000000000000000EB
:10E5300000000000000000000000000000000000DB
:10E5400000000000000000000000000000000000CB
:10E5500000000000000000000000000000000000BB
:10E560000000A49EFE0EDB500A0805E1FD0EDB5004
:10E570007F0B756E04D0FD0EDB50DF10756EA4AE00
:10E58000FED78B8EE552E552E7CFD9FF1200D9CFE7
:10E59000E6FFE1CFD9FF8B9EA49EFE0EDB508009E3
:10E5A000756EA4AEFED70000000000000000000061
:10E5B000000000000000000000000000000000005B
:10E5C000000000000000000000000000000000004B
:10E5D000000000000000000000000000000000003B
:10E5E000000000000000000000000000000000002B
:10E5F000000000000000000000000000000000001B
:10E60000000000000000000000000000000000000A
:10E6100000000000000000000000000000000000FA
:10E62000000000000000A49E756AA4AEFED78B8E89
:0CE63000755000D0E552E7CFD9FF120072
:04E63C00030EB16EAA
:10E64000B392B390B396B288B28EB290B292A494C1
:10E65000B38E12002F0E926E0F01E00E486F1F0E48
:10E66000496FC18EC19CC70EC1140809C16EF80E56
:10E67000C1140209C16E498FC29CC29EC30EC2144E
:10E680000809C26EC2801200D9DF2AEF73F0D9CF19
:10E69000E6FFE1CFD9FF020EE126FE0EDB500F0BA5
:10E6A000F36EF346F346C30EC214F310C26EFE0EB1
:10E6B000DB50EA6AFC0FE96E010EEA22EF503F0BD5
:10E6C000F36EF346F346030EB114F310B16EB38E3E
:10E6D000B382000000000000000000000000000005
:10E6E000000000000000000000000000000000002A
:10E6F00000000000000000000000B392B2800000A3
:10E700000000000000000000000000000000000009
:10E7100000000000000000000000000000000000F9
:10E72000000000000000B2909E9CC2829EACFED70A
:10E73000C3CFDEFFC4CFDDFFDECF00F0DDCF01F0C1
:10E7400000C0F3FF01C0F4FF00D0020EE15C02E262
:10E75000E16AE552E16EE552E7CFD9FF1200D9CF69
:10E76000E6FFE1CFD9FF030EE126020EDB6A040EBD
:10E77000F36E020EDBCFF4FFF350F45C21E22AD8F3
:10E78000EF6A30D80CE226D8EF501F0803E122D8F8
:10E79000EF6A13D01FD8EF2A25D8F5E30ED02CD876
:10E7A0000CE218D8EF50E10803E114D8EF6A05D065
:10E7B00011D8EF062BD820D8F4E3020EDB2AD7D7E6
:10E7C000030EE15C02E2E16AE552E16EE552E7CF59
:10E7D000D9FF1200020EDB50EA6AFC0FE96E010E4F
:10E7E000EA22120013D8DECF00F0DDCF01F0200EB8
:10E7F000005C030E01581200D9CFE9FFDACFEAFF1F
:10E80000200ED880EE54030EED541200020EDBCF22
:10E81000E6FF3DDFE552F3CFDEFFF4CFDDFF120070
:10E82000D9CFE6FFDACFE6FFFA0EE3CFD9FFFB0E32
:10E83000E3CFDAFFFD0EE35209E72D0EDE6EFC0E8C
:10E84000E31EE32AFD0ED8B4E306E31EE652E652C9
:10E85000E652FD0EE124E76EFF0EE220E46EE65282
:10E86000F70EE3CFE6FFF70EE3CFE6FF80EC74F0A0
:10E87000F90EE124E96EFF0EE220EA6E70EC74F00E
:10E880000AE16DEC74F009E170EC74F008E16DECF4
:10E8900074F007E108D07BEC74F076EC74F07BEC5C
:10E8A00074F076EC74F07BEC74F0DE6AF90EE1261D
:10E8B000FF0EE222FF0EE3CFDAFFE552FF0EE3CFB9
:10E8C000D9FFE552FC0EE124E96EFF0EE220EA6E6C
:10E8D000EECFF3FFEFCFF4FF1200EF380F0B120073
:10E8E000EF500F0B02E1EE52D8841200EF380F0BFD
:10E8F000300FDE6E1200EE500F0B300FDE6E120086
:10E90000FC0EE3CFE9FFFD0EE3CFEAFF100EE66E4B
:10E91000EE6AEE6AEF6AD890FD0EE336FE0EE3363D
:10E92000ED36ED36EF36FF0EE30609E0A1EC74F0AC
:10E93000EE52A1EC74F0EE52A1EC74F0EDD7E56E5E
:10E940001200030EEF24E8B6EF6E300EEF24E8BE9F
:04E95000EF6E000C5A
:0CE95400D9CFE6FFDACFE6FFE1CFD9FF14
:10E96000E2CFDAFFE652006801687F0E026E036AAA
:10E97000D950FA0FE96EFF0EDA20EA6EEE5000165B
:10E98000EE500116EE500216EE5003166AD800C083
:10E99000EEFF01C0EEFF02C0EEFF03C0EEFFFD0E72
:10E9A000DB50800B02E0010E01D0000EE66E59D85C
:10E9B000060EE926000EEA22E552E750EF6EFC0E45
:10E9C000DBCF00F0FD0EDBCF01F0D8900036013632
:10E9D000FC0E00C0DBFFFD0E01C0DBFFDB50E66E6E
:10E9E00040D8040EE926000EEA22E552E750EE6E0A
:10E9F000ED6AFD0EDB50006E016AFF0E001818E193
:10EA0000015016E12ED8EECF00F0EECF01F0EECFA0
:10EA100002F0EFCF03F0005001100210031006E0E7
:10EA2000210E0001CC6FCD6B800E0BD0040E09D0EF
:10EA3000FD0EDB5008E115D8EE6AEE6AEE6AEE6A6A
:10EA4000010EDF6E06D0020EDF6E0BD8EE52EE52D4
:10EA5000EE8EDF50E552E552E5CFDAFFE7CFD9FF82
:10EA60001200F80EDBCFE9FFF90EDBCFEAFF120050
:10EA70000001CEB122D0CE838B809490550EA76E2C
:10EA8000AA0EA76E0E01FF910E0ED16F550EA76E46
:10EA9000AA0EA76EFF810F0EBA6ECF0EBA14000930
:10EAA000BA6EBB6A0F01526B800ECB6E040ECA6E3B
:10EAB000A496600E776E7F0E766E12000001CE91E6
:10EAC000CE938B80949012000001CEA109D08B5080
:10EAD000010B04E19450010B01E1010CCE91C8DF60
:10EAE0000001CEA3C5DFA4A63AD0A496BA50300B3D
:10EAF000E842E842E842E842030819E1400EBB5C04
:10EB000010E18B909490BA6ACA6A0E01D16B0F0122
:10EB1000526BCB68766A7768A4960001CE81CE935B
:10EB2000010CBB2ACF0EBA140009BA6E000CBA0E43
:10EB3000E96E0F0EEA6EEF50300BE842E842E84211
:10EB4000E842E82AE850030BF36EF46EF346F3460E
:10EB5000F346F346CF0EEF14F310EF6EF450000CB3
:10EB6000D9CFE6FFDACFE6FFE1CFD9FFE2CFDAFF78
:10EB7000E652E652E652E652D950F90F006EFF0E09
:10EB8000DA20016E020E00C0DBFF030E01C0DBFFC6
:10EB9000020EDBCFE6FF030EDBCFE6FFF90EDBCF85
:10EBA000E6FFFA0EDBCFE6FFFB0EDBCFE6FFD95028
:10EBB000FC0FE66EFF0EDA20E66E58EC5DF0006E9C
:10EBC000070EE15C02E2E16AE552E16E0050F3CF2C
:10EBD000DEFFF4CFDDFFFC0EDBCFE9FFFD0EDBCF68
:10EBE000EAFFEF6ADECF00F0DDCF01F000C0F3FFF7
:10EBF00001C0F4FF040EE15C02E2E16AE552E16E5D
:0CEC0000E552E5CFDAFFE7CFD9FF1200A4
:04EC0C001E0EF66E74
:10EC1000A00EF76E000EF86E00010900F550C16FEE
:10EC20000900F550C26F03E1C16701D03DD0090072
:10EC3000F550BC6F0900F550BD6F0900F550BE6F6F
:10EC400009000900F550E96E0900F550EA6E090067
:10EC500009000900F550BF6F0900F550C06F0900A9
:10EC60000900F6CFC3F0F7CFC4F0F8CFC5F0BCC0B1
:10EC7000F6FFBDC0F7FFBEC0F8FF0001BF5302E1C1
:10EC8000C05307E00900F550EE6EBF07F8E2C00779
:10EC9000F9D7C3C0F6FFC4C0F7FFC5C0F8FF000135
:0AECA000C107000EC25BBFD71200CF
:06ECAA00253032753A2509
:10ECB00030327500253032752F2530327500322004
:10ECC0002D2044696769746C20436C6F636B00315D
:10ECD000202D20416E616C6F6720436C6F636B0069
:10ECE00034202D20416C61726D20202020202020B6
:10ECF00020200033202D205365742044617465204A
:10ED000020202020200032202D20536574205469BB
:10ED10006D652020202020200031202D20446973A3
:10ED2000706C6179204D6F6465202000434C4F4327
:10ED30004B204D454E5500253032753A2530327501
:06ED40003A253032750097
:0AED4600D9CFE6FFDACFE6FFE1CFF8
:10ED5000D9FFE2CFDAFFFB0EDBCF00F0FC0EDBCFFA
:10ED600001F00001800E01141AE1FB0EDBCFE9FF78
:10ED7000FC0EDBCFEAFFEECFF3FFEDCFF4FFEE2A80
:10ED8000000EEF22F3CFE9FFF4CFEAFFFD0EDBCF59
:10ED9000EFFFEF50016AF36E01C0F4FF10D0FB0EDD
:10EDA000DB50FE0806E1FD0EDBCFE6FF3CEC78F021
:10EDB00005D0FD0EDBCFE6FF03EC50F0E552E55247
:0AEDC000E5CFDAFFE7CFD9FF12001C
:06EDCA001E502302F3CFEE
:10EDD0001AF0F4CF1BF02402F3501B26000EF4208F
:10EDE0001C6E1E502502F3501C26000EF4201D6ED2
:10EDF0001E502602F3501D261F502302F3501B26DF
:10EE0000F4501C22000E1D221F502402F3501C2619
:10EE1000F4501D221F502502F3501D2620502302BE
:10EE2000F3501C26F4501D2220502402F3501D26BE
:0AEE300021502302F3501D261200AA
:06EE3A00FE0EE3CFE9FF2C
:10EE4000FF0EE3CFEAFFF36AF46AEE5203E0F34AFF
:10EE5000F42AFBD71200FF0EE3CFF8FFE552FF0EB6
:10EE6000E3CFF7FFE552FF0EE3CFF6FFE552E66A88
:10EE7000E66AE66A0900F55209E0FD0EE32A05E1BB
:10EE8000FE0EE32A02E1FF0EE32AF4D7FD0EE3CFE4
:10EE90001FF0FE0EE3CF20F0FF0EE3CF21F01200B3
:10EEA000D9CFE6FFDACFE6FFE1CFD9FFE2CFDAFF35
:10EEB000E652E652D950FD0F006EFF0EDA2000C078
:10EEC000DEFFDD6EDECFE9FFDDCFEAFFEF9EFA0E5B
:10EED000DBCF00F0FB0EDBCF01F0FC0EDBCF02F04E
:10EEE000FD0EDBCF03F000C01EF001C01FF002C01A
:10EEF00020F003C021F0E552E552E552E5CFDAFFFC
:06EF0000E7CFD9FF12006B
:0AEF0600D9CFE6FFDACFE6FFE1CF36
:10EF1000D9FFE2CFDAFF010EE66ED950FA0FE96EA3
:10EF2000FF0EDA20EA6EEECFE6FFEECFE6FFEECF81
:10EF3000E6FFEFCFE6FFA4EC6DF0006E050EE15C9E
:10EF400002E2E16AE552E16E0050E552E5CFDAFFF8
:06EF5000E7CFD9FF12001B
:0AEF5600D9CFE6FFDACFE6FFE1CFE6
:10EF6000D9FFE2CFDAFFE66AD950FA0FE96EFF0E59
:10EF7000DA20EA6EEECFE6FFEECFE6FFEECFE6FF59
:10EF8000EFCFE6FFA4EC6DF0006E050EE15C02E24F
:10EF9000E16AE552E16E0050E552E5CFDAFFE7CFD6
:04EFA000D9FF120083
:0CEFA4001D6A1C6A1B6A1A6A200EE76EC8
:10EFB000D8901E361F36203621361A361B361C36A0
:10EFC0001D3623501A5C24501B5825501C582650BF
:10EFD0001D5809E323501A5E24501B5A25501C5A11
:0CEFE00026501D5A1E2AE72EE4D712000E
:04EFEC001D6A1C6A14
:10EFF000100EE76ED890203621361C361D3625506F
:10F000001C5C26501D5805E325501C5E26501D5AD9
:08F01000202AE72EF0D71200C0
:08F01800F36AF46AFF0EE12423
:10F02000E96EFF0EE220EA6EED6607D02F0EEF6468
:0CF0300004D03A0EEF6001D0F32A120069
:04F03C00C00EF36EA1
:10F0400000EE00F00E0E01D81200EA6002D0EE6A67
:0CF05000FCD7F350E9601200EE6AFCD718
:04F05C001DEE00F0B5
:10F060002DEE00F0F86A199C06EC76F007EC50F0F3
:08F07000EDEC5CF0FBD712008F
:08F07800FF0EE350ADBA04D015
:10F08000B06AAC8EAD8A949CADA2FED7AE6EF36E24
:04F09000F46A12000C
:0CF094001D6A080EE76ED89021361D366C
:10F0A00026501D5C02E31D6E212AE72EF7D71200C1
:10F0B00030313233343536373839616263646566EE
:01F0C000004F
:0FF0C1000000000041001F0020000000000000C0
:10F0D0000000000000000000000000000000000030
:10F0E0000000000000000000000000000000000020
:10F0F0000000000000000000000000000000000010
:10F1000000000000000000000000000000000000FF
:02F110000000FD
:01FFF800AA5E
:01FFF900F710
:01FFFA001FE7
:01FFFB00F70E
:01FFFC0063A1
:01FFFD00F80B
:01FFFE008181
:01FFFF00F110
:00000001FF
